:400000000010002011000000551C0000551C000010B501F027FEC04670B5144C23688025ED022B432360302002F04EFA104A114B1A603022104B1A60203A104B1A602023D4
:400040000F4A13600F4A136080231B060E4A136025600E4A13600E4A0E4B1A600E4A0F4B1A6000220E4B1A6070BDC04600010B400600008004010B40080202400C020240CC
:40008000280202403002024008010B400000024001000080400002401D000080800002400C020B4070B572B60122444B1A7000240FE043486200131959000B00411889888C
:4000C0001A5AC31858880004104301F0B9FD0134E4B2022CEDD9002411E0394EA2001319590071188D8AC88A000428430A8B498B09041143802201F0A9FD0134E4B2002CF6
:40010000EBD02F4920312F485C3001F07FFD2E4A2E4B1A6008222E4B1A602E4A2E4B1A60EE2212022D4B1A60EE222D4B1A6099231B042C4A13602C4A13602C4A13602C49B5
:400140002C4A11602C4A136002232C4A13602C4A13602C490B783C22934314221343DBB20B70294A117816230B43DBB213702C22264B1A60264A274B1A602022264B1A60A3
:400180001F3A264B1A60264A264B1A601C22264B1A60264A264B1A6080229201254B1A60D8221201244B1A600322244B1A602132234B1A60FFF730FF70BDC0461C700F408B
:4001C000C03E0000404000000000FFFF000001400400014000330300080001400C0001401000014000500F4010500F4020500F400000350228500F4030500F4020000040A6
:4002000000800F4001700F4000700F400000044089142700080004400C00044000010440360018000801044000020440806D0400080204400C02044008030440000404407E
:400240000804044010B5064C2378002B07D1054B002B02D0044800E000BF0123237010BD4801002000000000903E0000084B10B5002B03D00749084800E000BF0748036877
:40028000002B00D110BD064B002BFBD09847F9E7000000004C010020903E0000C00000200000000010B582B0002001F003F9304B18600024200002F09BFC200002F0E8FC9A
:4002C000002C01D0002400E001240A220021402001F054FE0190019B002B0ED10A21052001F0DAFE0A21202001F0D6FE0A21002001F0D2FE0A2001F0A3FE0A2200214020F3
:4003000001F03CFE0190019B002B1DD10A21042001F0C2FE0A2001F093FE012305221549402001F03FFF0190019B002B08D1114A13781B0252789B189BB26A46538006E001
:4003400000226B465A8002E000226B465A806B4602331B889BB2084A1380FA20400000F0BBFF002001F0A6F8014B1860A2E7C046180B0020D00A0020940A002010B50020A0
:4003800001F098F86D4B18606D4B1B68DB0700D5CAE06C4B1B78002B00D0C5E06A4B1868042101F089FB012800D0BDE0674B58789C781E2800D91E200022002305E06349D8
:4003C000C95C5218D2B20133DBB29842F7D8002A09D05F4B9C7011225A705E4A138801339BB213805AE0631EDBB2022B56D8012C02D0022C3BD051E0544B1A795979090258
:4004000011439A7912040A431100DA7912060A4351490A601A7A597A090211439A7A12040A431100DA7A12060A434C490A601A7B597B090211439A7B12040A431100DA7B79
:4004400012060A4346490A603221464A1170197C08003230444A10703222521A43490A700221434A1170DA78424B1A7016E03748C3785A1E9341404A1370037942791202F9
:400480001A4383791B0413431A00C3791B0613433A4A136008228256324B1A702C4C002323700233A3700F336370314B1B78E370284B1B889BB263711B0AA3712D4B1B7839
:4004C000237102F0ADFA6072020AA272020CE272000E20732A4B1B686373190AA173190CE1731B0E2374274B1B889BB2E3711B0A23720022002305E01549C95C5218D2B291
:400500000133DBB2102BF7D91148524202701E2102F04EF901220B4B1A700B4B186800230022002101F00CFA012000F0D5FE002000F0C0FF014B186026E7C046740A0020BA
:4005400024000740EC0A0020880A0020F80A0020A00A0020E40A0020C80A0020F00A00207C0A00206C0A0020800A00208C0A0020200B0020F40A00205C0A0020600A00202D
:40058000CC0A0020940A002010B502F0F5FA02F0B7FA002002F03CFA10BDC04610B502F021FB02F053F8002002F032FA10BDC04610B502F063FB02F059FB00281CD000F0A3
:4005C000A7FD0E4B18600E4B1B78012B14D11E2200210C4803F053FC002404E002F06CF8094B185501341D2CF8D902F07FF802F0EBF80022024B1A7010BDC046900A002060
:40060000EC0A0020A00A0020F80A002010B506490B2001F0EFFE05490E2001F0EBFE04490F2001F0E7FE10BD4D0C0000F10C0000350D000070B5051C194B0020185603F063
:4006400045FB041C011C281C02F018FD00280CD1144B0020185603F039FB041C011C281C02F0F8FC002800D12C1C0F49201C02F005FD002806D10021201C02F0EBFC00280C
:4006800003D001E0084C00E000248321C905201C03F060F802F006FD01F018FE70BDC046800A00208C0A00200000C84270B502F0B7F903F053FB0E4B18600E4B1C680E4B8D
:4006C0001C600E4B1D68291C201C02F0D7FC002802D0094B1D6009E0094B1D68291C201C02F0B8FC002801D0034B1D6070BDC046840A0020980A0020E80A0020680A00209B
:40070000700A0020F8B50E1C151C1C1C002812D003F024FB084902F053FE071C074B1E60291C03F017F8064B1860391C201C02F047FE044B1860F8BD00007A441C0B0020E3
:40074000C00A0020640A0020F0B54F4680B482B004000D003D4B1B78002B72D002F060F906003B4B1868201A3A4B1B68984265D3394B1B68394A126839490968FFF7C2FF6F
:40078000A81B03F0A3FA0190364B196802F0E2FF354F396802F09EFC051C3860334B1F68391C02F06BFC002802D02F4B1F600BE02F4B1B689946191C281C02F04BFC0028CF
:4007C00002D0294B4A461A60300003F0C7FA051C284B196803F0D2F803F056FA0600264B1968019802F0B6FF1F4B196802F072FC0190300003F06AFA204B196802F0AAFF8E
:40080000011C019803F0BAF8061C1D4B1860011C381C02F01FFC002802D0194B1F6009E0134B1F68391C301C02F014FC002801D0134B1F600F4B1D60054B1C60104B18683B
:4008400000E0002002B004BC9146F0BD64010020C40A0020C40000207C0A0020F00A0020C80A0020C00A0020E80A0020680A0020700A0020840A00201C0B0020640A0020CE
:40088000980A002070B5051C0C1C02F0F7FB002829D1154B1D60154B1C60154B1E68311C201C02F0D7FB002802D0114B1C6007E0311C281C02F0E2FB002801D00C4B1D6030
:4008C0000C4B1E68311C201C02F0C4FB002802D0084B1C6007E0311C281C02F0CFFB002801D0044B1D6070BD700A0020680A0020980A0020E80A002010B5441E63425C4189
:40090000E4B2012805D1044B1B78002B01D1FFF7CDFE014B1C7010BD6401002010B5054902F0D8FBFC21890502F014FFFFF782FE10BDC0460000C84270B5002000F0BAFD91
:400940003D4B18603D4C002323603D4D2B603D4E3360FFF7ABFE33682A6821680520FFF7D1FE39493948FFF78DFF0020FFF7C4FF0023374A1360374A1370374A13708020B9
:40098000000101F053FE00F0C3FB0400334B1B68FA2292009A18904201D8984209D23048FFF748FE00222C4B1A7032322D4B1A7038E02D4B1B78022B34D1274B1B78002BBF
:4009C00007D1284B00201856323003F07FF9FFF731FE204B1B78002B07D11F4A1278002A03D00120FFF788FF08E01B4A1278002A04D1002B02D00020FFF77EFF164D2A7832
:400A0000144B1A70124B19682000FFF79DFE2B78002B04D0154B1860FFF780FF02E00022124B1A60052000F057FC002000F042FD014B1860A3E7C0469C0A0020C80A0020B1
:400A4000F00A00207C0A00200000C8420000C8C2600A0020780A00205C0A0020900A0020000048426C0A0020200B0020CC0A002010B582B0FFF7CAFD002401940223009330
:400A8000002340223549364800F0E0FA019403230093002364223349334800F0D7FA019401230093002340223049314800F0CEFA012000F0F5FF2F4B186000280BD1013491
:400AC00063425C41E4B2200002F092F8FA20800001F0D8FCF4E7284802F076F8274802F03DF8274802F0B4F8032002F051F8022002F016F8032002F08DF862B601F00CF9AD
:400B0000642001F0BFFC01F0C7FD01F031FCC820C00001F0D3FB1B48FFF78CFD32221A4B1A703232194B1A700024194B1C7001F0D7FF8020000401F06BFF00F0E9FA154BC7
:400B400018600122144B1A70144B1C70144B1C8000F0ACFA012002B010BDC046943E000039090000983E00007D030000A83E0000A5020000880A00209D05000089050000F6
:400B8000B1050000000048426C0A0020800A00208C0A0020900A0020200B0020F40A0020E40A002082B000230193064B1B68013301D072B6FEE772B6019B002BFCD002B092
:400BC0007047C046C800002000000000000000000B4A13681868203080F30988022080F31488BFF36F8F3FBCAE4608BC04BC62B61847C046C046C046C046C046C046C046B7
:400C0000180A0020054B00221A6005490A600549054A116007221A607047C04610E000E018E000E07FBB000014E000E010B5031F802464041C60043B1960043B0249196080
:400C4000143B1A60403810BDA50B00007047C04610B50C4B1A68FF2109040A431A601A68FF2109060A431A60FFF7CCFF0022064B1A60FFF7ADFF00F049FBFFF793FF0020C3
:400C800010BDC04620ED00E0C800002080225205034B1A60BFF34F8FBFF36F8F7047C04604ED00E072B6044A136801331360BFF34F8FBFF36F8F7047C8000020064B1B68B2
:400CC000002B01D172B6FEE7013B034A1360002B00D162B67047C046C8000020EFF3108072B6704780F310887047C04600000000EFF309800E4B1A6820381060F0C04446D4
:400D00004D4656465F46F0C008B572B600F0FEFA62B60CBC116808681030F0C8A046A946B246BB4680F309882038F0C81847C046180A002010B5FFF7D1FF040000F0EEF9B2
:400D4000002803D080225205024B1A602000FFF7C9FF10BD04ED00E070B50400430702D007239C43083400F0CBF90F4B1B68002B05D10D4A13000C3307218B4313600B4BB8
:400D80005B6DE4180A4A944207D8A34207D2064A1568ED18054B5C6502E0002500E0002500F030FA280070BD68010020E8080020C7070000002801D072B6FEE77047C04620
:400DC000002301E0013001330278A52AFAD09B0898B270470A4B9B6A1B68002B01D1013300E00023002B04D001225242044BDA6205E0034B9A6AD268D2685268DA62704729
:400E00004009002010B50400006BFFF7D3FF2000FFF7D0FF10BDC046F0B583B000900D0017000193089C0A9E9200A521306B03F026F8234BFB189B00326B944663440722C2
:400E400093431F00002308E0E9180878F218343210700A78002A02D001330F2BF4D900224323F254042C00D90424F46274640023B364301D00F022FC3000183000F01EFC04
:400E8000366105231C1BB4617662002206E0130012339B00F318002159600132042AF6D9002333666422B354019A00993800FFF7BDFE3060099B002B00D01E6003B0F0BDCC
:400EC000FFFFFF3FF8B5002408E0A2001219930010483030C01800F0E5FB0134042CF4D90D4C27001437380000F0DCFB26002836300000F0D7FB074D2800143000F0D2FB4E
:400F000020003C3000F0CEFB280000F0CBFBAF622665F8BD40090020C009002010B50400FFF7C0FE1E4B5A6D01325A659B6D002B07D11B4B9C655B6D012B0ED1FFF7C2FF50
:400F40000BE0174BDB6D002B07D1154B9B6DDB6AE26A934201D8124B9C65114A136E01331366E36A526E934201D90D4A5366211D9A00D3189A000B483030801800F0A2FB4A
:400F8000FFF79CFE064BDB6D002B07D0044B9B6DDA6AE36A9A4201D2FFF778FE10BDC046C00900204009002070B512E0FFF77AFE0A4CA36CDD68281D00F0A8FB636D013BCB
:400FC0006365A36E013BA366FFF778FE2800FFF719FF024B9B6E002BE8D170BDC009002010B5FFF7E1FFFCE770B504000D00154BDE6E986D043000F089FB631C08D1002D4F
:4010000006D0104B996D04310F4800F05BFB18E034190C4B9B6D5C60A64206D9094B186D996D043100F05AFB0BE0074DA86A054B996D043100F052FBEB6A9C4201D2024BBB
:40104000DC6270BDC009002040090020F0B587B00490059114001F009000FFF77DFE061E0AD06820FFF778FE051E01D0066304E03000FFF79FFE00E00025002D11D000234D
:40108000039302950D9B01930C9B00933B00220005990498FFF7C0FE2800FFF73FFF012001E00120404207B0F0BDC04600B583B00F4B743301930023009380220D490E4856
:4010C000FFF7C4FF01280CD172B6012252420B4BDA62074B0232DA650022DA66FFF7B8FD03E0431C01D172B6FEE703B000BDC046C0090020B83E0000E10F0000400900201F
:40110000024A136F013313677047C046C0090020014BD86E7047C046C0090020F8B5364B1B6F002B5BD1344BDC6E0134DC66002C11D1324B9B6A1B68002B01D072B6FEE7EA
:401140002E4A916A2C4B186D906219659A6F01329A67FFF73FFE294BDB6A9C4203D2002742E0012700E00027244B9B6A1B68002B01D1013300E00023002B04D0012252425B
:401180001E4BDA6230E01D4B9B6ADB68DE6873689C4202D2194AD36226E0351D280000F0B5FAB36A002B03D03000183000F0AEFAF36A114A526E934201D90F4A53669A0042
:4011C000D3189A000D4830308018290000F07AFAF26A094B9B6DDB6A9A42C2D2C4E7064AD36F0133D3670027054B1B68002B00D001273800F8BDC046C00900204009002016
:40120000400A002070B5314B1B6F002B01D172B6FEE7FFF747FD2D4B1A6F013A1A671B6F002B4CD1294B5B6D002B26D1002449E0274B1B6ADC682000183000F067FA251D65
:40124000280000F063FAE36A204A526E934201D91E4A53669A00D3189A001D4830308018290000F02FFA194B9B6DDB6AE26A9A4204D30122174B1A6000E00024144B5B691E
:40128000002BD5D1002C01D0FFF7A4FD0F4BDC6F002C0CD0FFF742FF002802D001220D4B1A60013C002CF5D10022084BDA67094B1B68002B05D0FFF7E9FC012402E0002434
:4012C00000E00024FFF7FAFC200070BDC009002040090020400A002010B5041E0ED00A4B1B6F002B01D072B6FEE7FFF709FF00212000FFF779FEFFF785FF00E000200028FA
:4013000001D1FFF7C3FC10BDC009002010B51E4B1B6F002B03D001221C4B1A6033E000221A4B1A60184B5B6E04E0002B01D172B6FEE7013B9900C9188A0015498A18126BCB
:40134000002AF2D00A009900CC18A0001018446B6468446330321000C9188A0008328218944206D160689900C9188A0008498A1850639900C9188A0005498A18526BD16856
:40138000014A9165536610BDC0090020400A00204009002010B50C00002801D172B6FEE7044B996D183100F099F901212000FFF71BFE10BDC009002070B5C368DC68002CEB
:4013C00001D172B6FEE725001835280000F09EF9154B1B6F002B14D1251D280000F096F9E36A114A526E934201D90F4A53669A00D3189A000D4830308018290000F062F901
:4014000004E029000948143000F05CF9E26A064B9B6DDB6A9A4204D90122054B1A60012000E0002070BDC046C009002040090020400A0020024B9A6F0260DB6E43607047CA
:40144000C0090020F8B505000C00002801D172B6FEE7002901D172B6FEE7FFF723FC114BD86E6968421A23685E1C13D00D4EB66F2F68B74201D088420ED29A4206D29B1AF6
:4014800023602800FFF7D6FF002406E000232360012402E0002400E00124FFF70FFC2000F8BDC046C00900200122014B1A607047400A002010B5002801D1034B986D006B8A
:4014C000FFF77EFC10BDC046C0090020064BDB6D002B05D0044B1B6F002B03D1022002E0012000E000207047C009002070B5041E42D0C36A224A926DD26A934234D2826997
:40150000002A05DB1E4A926DD16A0522521A82619A00D3189A001B4B30339A186369934201D1012300E00023002B17D0251D280000F0ECF8124A936DDB6AE362526E93428A
:4015400001D90F4A53669A00D3189A000D4830308018290000F0B6F8012010E0084B9B6DDB6AE36201200AE0426C054B9B6DDB6A9A4203D3002002E0002000E0012070BDFE
:40158000C00900204009002070B5041E2CD0194B9B6D984201D072B6FEE7836C002B01D172B6FEE7013B8364C26A416C8A421DD0002B1DD1051D280000F0A8F8636CE362BD
:4015C0000522D21AA2610B4A526E934201D9094A53669A00D3189A00074830308018290000F070F8012004E0002002E0002000E0002070BDC00900204009002070B5041E31
:401600003CD0806C002801D172B6FEE7626C8A4200D20A00E36A9A4230D001282ED11849896D8C4201D172B6FEE7E262A169002902DB05218A1AA2619A00D3189A00114B44
:4016400030339A186369934201D1012300E00023002B13D0251D280000F058F8E36A084A526E934201D9064A53669A00D3189A00044830308018290000F024F870BDC04621
:40168000C009002040090020054B9B6D002B04D0034B9A6D936C01339364014B986D7047C0090020030008334360012252428260C3600361002303607047C0460023036146
:4016C0007047C04643684B609A688A609A68516099600861036801330360704730B50C68631C01D1026907E00200083200E01A0053681D68AC42FAD253684B6099608A60A8
:401700005160086103680133036030BD03694268816891608268416851605A68904201D182685A60002202611A68013A1A6018687047C046436A002B04D0036B18680523A7
:40174000181A00E00020704710B50400FFF7AAFAA26BE36B9A4201D1012400E00024FFF7ADFA200010BDC04610B50400FFF79AFAA36B002B01D1012400E00024FFF79EFA46
:40178000200010BD70B504001600856B026C002A08D10368002B2CD14068FFF7F5FE002363602DE0002E0ED1806802F05FFBA368226C94466344A360626893421BD323680F
:4017C000A36000201CE0C06802F050FB236C5B42E268D218E26021688A4203D2626894466344E360022E08D1002D08D0013D002006E0002004E0002002E0002000E0002093
:401800000135A56370BDC04670B50500FFF74AFA4523EC5C64B20CE06B6A002B0BD028002430FFF7C9FD002801D0FFF73DFE013C64B2002CF0DCFF224523EA54FFF73EFAA4
:40184000FFF730FA4423EC5C64B20CE02B69002B0BD028001030FFF7AFFD002801D0FFF723FE013C64B2002CF0DCFF224423EA54FFF724FA70BDC04670B504000D0000282D
:4018800001D172B6FEE7FFF70DFA2268E36B206C01005943511861600021A163A260013B4343D318E360FF234422A3540132A354002D0BD12369002B10D020001030FFF76B
:4018C0007BFD00280AD0FFF7E1F907E020001030FFF7E8FE20002430FFF7E4FEFFF7EEF9012070BD10B5029B002901D11B6000E01A60D863196401211800FFF7BDFF10BD61
:40190000F0B583B006000F001500002801D172B6FEE7002902D00800704300E000204830FFF71AFA041E07D00200483200902B0039003000FFF7D6FF200003B0F0BDC0467C
:40194000F0B585B004000E0001921D00002801D172B6FEE7002904D1036C002B03D1013302E0012300E00023002B01D172B6FEE7022D03D1E36B012B02D102E0012300E0DB
:401980000023002B01D172B6FEE7FFF79FFD002804D1019B002B03D1013302E0012300E00023002B01D172B6FEE70027FFF77AF9A36BE26B934201D3022D18D12A00310082
:4019C0002000FFF7DFFE636A002B08D020002430FFF7F2FC002806D0FFF758F903E0002801D0FFF753F9FFF769F901204AE0019B002B03D1FFF762F9002043E0002F03D194
:401A000002A8FFF717FD0137FFF758F9FFF778FBFFF748F94423E35C5BB2013302D100224423E2544523E35C5BB2013302D100224523E254FFF742F901A902A8FFF702FD65
:401A4000002819D12000FFF77FFE00280ED0200010300199FFF79EFC2000FFF7D5FEFFF7D1FB0028A2D1FFF711F99FE72000FFF7CBFEFFF7C7FB99E72000FFF7C5FEFFF77F
:401A8000C1FB002005B0F0BD10B5002807D0002343600360C36000220021FFF751FF10BD10B5020000210120FFF72AFF0400FFF7EBFF200010BDC04670B584B0041E019176
:401AC00001D172B6FEE7036C002B01D072B6FEE7FFF7FCFC002804D1019B002B03D1013302E0012300E00023002B01D172B6FEE700250026FFF7D6F8A36B002B16D0013B58
:401B0000A3632368002B02D1FFF7BEFD60602369002B07D020001030FFF74EFC002801D0FFF7B4F8FFF7CAF801206DE0019B002B07D1002D01D072B6FEE7FFF7BFF800203F
:401B400062E0002E03D102A8FFF774FC0136FFF7B5F8FFF7D5FAFFF7A5F84423E35C5BB2013302D100224423E2544523E35C5BB2013302D100224523E254FFF79FF801A9B4
:401B800002A8FFF75FFC002824D12000FFF7ECFD002819D02368002B07D1FFF783F86068FFF7A4FC0500FFF789F8200024300199FFF7F0FB2000FFF727FEFFF723FB0028BE
:401BC00098D1FFF763F895E72000FFF71DFEFFF719FB8FE72000FFF717FEFFF713FB2000FFF7C2FD002885D0002D0CD0FFF75AF82000FFF79FFD01006068FFF7FFFCFFF7CA
:401C00005DF8002000E0002004B070BDF0B50025002711E0BB00C658F3B2FF22964308E06A008A181478A419527822700135013BDBB2002BF4D10137092FEBD9F0BDC04685
:401C400010B50A00002102F01AF910BD10B502F00DF910BD10B502F0DDF803680C2B00D1FEE7FEE770B50F4E0F4D13E029686B68AC68002202E001C901C30432A242FAD18F
:401C8000E868002202E0002102C304328242FAD11035013E002EE9D102F0C2F8FEF7E8FEFEE7C046010000005C42000010B500230AE0032B03D89A000949505800E0094808
:401CC0009900094A885001332F2BF2D9FEF7EAF98022D205116801230B43136010BDC04600000000551C00000000002010B50A2000F06AFB10BDC04610B500F01DF810BD06
:401D000010B5044A1368802109060B431360FFF7EDFF10BD0000064010B5064B1B78002B04D1FFF7E9FF0122024B1A70FFF7E8FF10BDC046440A002010B51B4A11680C233E
:401D40000B4313600024194B1C60194A194B1A60194B1A4A13601A4A14601A4A14601A4A13601A4B1C600A2000F038FB03210A2000F062FB16490A2000F04CFB154B1C6036
:401D8000154B1C60154B1C60154B1C60154B1C60154B1C601022154B1A70154B1C80154B1C60154B1C6010BD700006400000064077080080600006400701008000030640C8
:401DC00004030640100306400002064004020640CD2C0000C80E0640880E0640480F0640080F0640C80F0640880F0640210B0020300B0020400B0020280B002010B5144A3C
:401E000013685B005B081360002312490B6012490B601248046812492140016011490B6011490B601149124B19601249124B19601249134B19601349134B19601021134B85
:401E400019701368802109060B43136010BDC04600000640680006406C00064060000640FF5CFFFF880F0640C80F0640F3070000800F0640ED0F0000C00F0640FF0F00008D
:401E8000400F064017030000000F0640210B002010B504000368002B09D0012000F00AFB2368013B2360002B03D0002003E0002001E08020000610BD10B5002839DBC023E1
:401EC000034208D00022284B1A601032274B1A70002310243DE0C3070FD5244B1B781B072BD5234B1B685B0001D5002300E0012310211E4A117001242BE0C30520D4830759
:401F000022D4C30605D51022184B1A70002300241FE0164B1B781B0719D5144B1B78DB0701D5252200E02422104B1A70002300240FE00123802424060BE00123012408E05F
:401F400001238024640004E00023022401E000230024012B02D1FFF751FF02E0054A064B1A60200010BDC04668000640210B00206000064017030000000F064070B582B046
:401F800004000D001600244B1B78102B40D10A2000F024FA214B1B68DB0734D4FA239B005E43019600221E4B1A601E4A1E4B1A601E4A1F4B1A606400FF231C40002D03D12C
:401FC0002422154B1A7004E02522134B1A7001231C43184B1C600222174B1A60124B1C680823FF3320001840144B1B68C02423401843040001A8FFF74BFF2043EED0FFF7FE
:402000005BFF040000E008240A2000F0DDF900E00424200002B070BD210B002064000640080F064017030000000F0640ED0F0000C00F06404002064068000640400F0640A1
:4020400010B582B0104B1B789B061AD5FA239B00584301900D4B1B689B0601D5182200E010220B4B1A600B4B18681223FF331840040001A8FFF70CFF2043F4D0FFF71CFF1E
:4020800000E0042002B010BD210B00206400064068000640000F064010B582B00D4B1B789B0613D5FA239B00594301910A4B18600A4B18680823FF331840040001A8FFF759
:4020C000E7FE2043F4D0FFF7F7FE00E0042002B010BDC046210B002040020640000F064070B52B4B1B6820251D402A4C03E0012000F0E0F9013C00F04BF9002801D1002C9D
:40210000F5D1002C43D0002000F04AF9224A13680F218B431360214A13685B005B081360002D18D0002000F03BF90A2000F0C2F9012000F035F90A2000F0BCF9154C03E058
:40214000012000F0B7F9013C00F036F9002803D1002CF5D100E00F4C002C08D0002000F01FF90A2000F0A6F901220D4B1A600B4A1368802109060B43136007490B680F220A
:402180009343013A13430B60012000F009F970BD64000640204E0000100001400000064068000640F0B583B001900C0017001D00002917D02F4B1B78102B08D10A2000F0BC
:4021C0000DF92D4B1B68DB070ED508260FE0294B1B78602B0AD1294A138808218B431380002604E0042602E0002600E00426002E39D129221F4B1A700022214B1A60214AC7
:402200001760214B1C60EBB220490B70019B5C00FF231C400120044318490B8883430B801B491C4B19601421FF311B4B19601368072B03D80422194B1A6008E0184A1368C2
:40224000802149000B4313600822144B1A60EB0704D5FFF745FF134B1C6004E0114B1C600222114B1A600A2000F0AEF8300003B0F0BDC046210B002064000640300B002074
:40228000400B00203C0B0020340B0020380B002017030000000F0640080F0640C80F06406000064040020640680006400004000C014B18607047C046880105400004000C56
:4022C000014B18607047C046940105400004000C014B18607047C0468C01054070B504000D0000F0EBFCAC40024B1C6000F0EAFC70BDC0460800054010B500F0DFFC064A28
:40230000116804230B43136000F0DCFC18210420FFF7E4FF10BDC04600000540014B18607047C046B801054010B50E4C8023DB042360236823600020FFF7B8FF236823609A
:402340000C22094B1A600120FFF7E8FF3122074B1A60C820C000FFF7B1FFC8208000FFF7B5FF10BD80010540A4010540A801054010B5064B1B78002B04D1FFF7D5FF0122E3
:40238000024B1A70FFF7B8FF10BDC0464C0A0020024B1868400801231840704704040440044A1368DBB201218B430840184310607047C04600040440024B1B680120184015
:4023C0007047C046040404401F2318401E3B8340014A13607047C04600E100E01F2318401E3B8340014A13607047C04680E100E001BE704770B504000D000F2802D9002092
:40240000FFF7F6FFA40080239B059C4664442068256070BD70B504000D001F2802D90020FFF7E6FF1034A40080239B059C4664442068256070BDC04670B504000E0003295B
:4024400002D90020FFF7D4FF1F2C02D90020FFF7CFFF03252540ED00063500F02FFCA408A400074B9C46644421680323AB4099430B003100A9401943216000F023FC70BDDE
:4024800000E400E010B5040006E0084B586800F00BFC074B9C46644480231B029C42F4D8024B9868604300F0FFFB10BDCC0000200080FFFF10B5034B1B7B584300F0F4FB25
:4024C00010BDC046CC000020F0B557464E46C0B483B0040000F0F2FB0190E71E2D2F74D83F4B1B78DBB29C4208D83E4B1B78DBB29A463D4B1B78DBB2994631E03B4B1B78DF
:40250000DBB29C4208D83A4B1B78DBB29A46394B1B78DBB2994623E0374B1B78DBB29C4208D8364B1B78DBB29A46354B1B78DBB2994615E0334B1B78DBB29C4208D8324B17
:402540001B78DBB29A46314B1B78DBB2994607E02F4B1B78DBB29A462E4B1B78DBB299462D4BDE5D2F2E09D92A2C07D919222B4B1A60052000F098FB192503E0274B1D68F4
:402580003F231D40B54206D9234BDA5D234B1A60052000F089FB1F4B9C4664442378DBB21F4A13601F4B52461A601F4B4A461A600520FFF77FFFB5420AD2174BDA5D174B11
:4025C0001A60052000F070FB02E00020FFF710FF019800F077FB03B00CBC91469A46F0BDC0F1FF0FC1F1FF0FC2F1FF0FC3F1FF0FC4F1FF0FC5F1FF0FC6F1FF0FC7F1FF0FEC
:40260000C8F1FF0FC9F1FF0FCAF1FF0FCBF1FF0FCCF1FF0FCDF1FF0F444100002CFF0B4028FF0B401CFF0B4020FF0B40054A1168054B184008431060024B1A68024B1A4201
:40264000FAD1704710020B4008080800034A10680423184010608008C0B270471000044010B50B20FFF7B0FE10BDC04610B500F03DF910BD10B500F0D3F810BD10B5054A2A
:402680001368802109060B431360FFF7E9FFFFF7EDFF10BD0000074010B5064B1B78002B04D1FFF7E7FF0122024B1A70FFF7E6FF10BDC046500A0020094B1A68094B1B6806
:4026C0009A420BD0074B1B680133212B00D10023054AD05CC0B2034A136000E000207047580B0020540B00205C0B002010B50B20FFF774FE0B4B1A680B4B1A6000220B4B75
:402700001A700B4B1A68802149020A431A601968084A0A401A60084A084B1A600B20FFF753FE10BD540B0020580B00204C0B002004030740FFFFFEFFED0F0000C00F0740BB
:40274000144B1A68144B1B689A4208D1134B1B680F221340082B02D0114B186019E00D4B1A680132202A00D100220B4B1B689A42FBD002230B490B60C0B20B49885405490C
:402780000A600A4A1268134203D1084A11680B4313607047500B0020480B00200802074040020740800F0740800B0020880F074070B506000D00002403E0305DFFF7C0FFCD
:4027C0000134AC42F9D370BD10B50B20FFF706FE0C4B1A680C4B1A600C4A136802218B4313600B4B1A68802149020A431A601968084A0A401A60084A084B1A600B20FFF792
:40280000E3FD10BD480B0020500B0020880F074004020740FFFFFEFFF3070000800F074010B51C4A1C4B1A6009221C4B1A601C4A1C4B1A6007221C4B1A601C4A1C4B1A6057
:4028400004241C4B1C600B20FFF7C8FD03210B20FFF7F2FD18490B20FFF7DCFD0023174A1360174A1360174A1360174A1360174A1460174A13601168164A1180164A13607F
:40288000164A1360164A1370164A1360164A136010BDC0460F000001000007402000074007030080000307400403074007010080000207400402074001290000880E0740E4
:4028C000C80E0740480F0740080F0740C80F0740880F0740580A0020580B0020540B00204C0B0020500B0020480B0020024B1A88024B1A607047C046580A0020880F074007
:4029000010B5274B1B68002B00D09847254B1B685B071DD5244B1B680133212B00D10023224A1268934205D1214B1B682022214B1A7006E01E4A1268D2B21F49CA541A4A68
:4029400013601E4B1B681B07E4D104221C4B1A601C4B1B689B0721D51B4B1A681B4B1B689A4213D0194B1B680133202B00D10023174AD25CD2B217490A60144A1360164B9F
:402980001B680F221340082BE6D104E0134A136802218B4313600222114B1A6010BDC046540A0020CC0F0740580B0020540B0020400307404C0B00205C0B002008030740BD
:4029C000C00F07408C0F0740500B0020480B0020800B00204002074008020740880F0740800F0740034A117880235B420B43DBB21370704771000F40014B18707047C0463C
:402A000082000F40014B1878C0B2704762000F4010B50100014800F0F7FA10BD00000F4010B5034B1B78034800F0F8FA10BDC04600000F4040000F4010B5024800F0EEFA98
:402A400010BDC04640000F4010B50100014800F0DBFA10BD20000F4010B50100014800F0D3FA10BD30000F4010B501E0FFF7E4FFFFF7C8FF4306F9D410BDC04610B5144985
:402A80000B780722934305221343DBB20B700B78032293430B70FFF7E7FF0E4C2000FFF7D3FF2000FFF7B4FF0020FFF7A5FFFFF7A9FF0948FFF7D0FF00F000F9074A1178FE
:402AC00010230B43DBB2137000F0FCF810BDC04671000F40FEFFFF00FFFFFF0092000F4010B5064B1B78002B04D1FFF7C7FF0122024B1A70FFF776FF10BDC0465A0A0020D3
:402B0000034A10684023184010608009C0B2704710020440014B98647047C0460000002010B5040000F0CAF8044A1168044B0B40A4051C43146000F0C5F810BD00E400E0E2
:402B4000FFFF3FFF0422014B1A60704700E100E00422014B1A60704780E100E010B50400FFF7F6FF2000FFF7D5FF0320FFF7D8FFFFF7E8FF10BDC0460422014B1A607047F0
:402B800080E200E0014B18647047C0460000002010B5040000F092F8044A1368C0218B43A4011C43146000F08DF810BD00E400E00122014B1A60704700E100E00122014B25
:402BC0001A60704780E100E010B50400FFF7F6FF2000FFF7D7FF0320FFF7DAFFFFF7E8FF10BDC0460122014B1A60704780E200E004490A68D2B240239A4380011840104390
:402C00000860704700010440014B58647047C0460000002010B5040000F050F8044A1168044B0B40A4031C43146000F04BF810BD00E400E0FF3FFFFF0222014B1A607047CE
:402C400000E100E00222014B1A60704780E100E010B50400FFF7F6FF2000FFF7D5FF0320FFF7D8FFFFF7E8FF10BDC046024B1868C00901231840704704000440034B186894
:402C8000C0B27F2290431860C00970471000044004490A68D2B202239A4340001840104308607047000104400230800804D0C0460138FDD1C046C046C0467047EFF3108078
:402CC00072B6704780F310887047C04610B5AD4B1B68002B00D09847AB4B1B68DB0702D50022AA4B1A60AA4B1B789B0628D5A94B1B68DB0507D5A84A1188C0239B000B43A0
:402D00001380012300E00023A24A1268D20706D5A14A118890239B000B4313800123002B0FD09B4A1278D20701D5012200E002229949088802430A800021954A117000E0F7
:402D40000023934A1278920600D414E1914A1268D20611D51022914B1A608D4B1B78DB0701D5012300E002238B4A11880B4313801022874B1A7004E1854A1278120720D558
:402D8000844A126892070AD50222844B1A60824A118888239B000B431380012311E07C4A1278D20703D52521794A117009E02421774A11707A4A1268002A02D01439794A00
:402DC0001160734A1278520700D4ABE0704A1278D20749D5744A1268120727D5734A1268734909680F240C40724909686418141B082C09D8002C16D16F4A11686F4B0B40C2
:402E00001360012308340EE008240CE0694A11686B48006841186B480068C0B20870116801311160013C002CF0D119E05E4A1268520715D55F4A116861480068411861483B
:402E40000068C0B208701168013111601168574A1268914203D204215B4A116000E001235A495B4A11605DE04A4A1268920726D502224A4B1A6057490B680D321A40096881
:402E800080231B020B4000D001239B18524A1168CB1A13601268514B1A603F4A118884239B000B4313804E4B1A68802149020A431A6019684B4A0A401A60012332E04A4AAC
:402EC0001268D20612D424E0434A1168344A1268914211D2404A11684448006841180978C9B243480160116801311160394A12680F210A40082AE7D1374A1168284A126847
:402F0000914202D14021274A11603A493A4A116008E0354A1268520604D52F4B1A682F4B1A600123002B2CD0234A1168234B0B4013600023314A13601A4A1360304B1B78DB
:402F40009B070ED5124B1B78DB0701D5092300E00A23114A11880B43138060220C4B1A700FE0284B1B689B0601D5182200E01022154B1A6005E0064B1B78DB0601D4FEF7BD
:402F80003DFF10BD480A00208C0E0640880E0640210B00200C0F0640300B0020000F06402C0B0020880F0640CC0F06403C0B002008030640400B002060000640FFFEFFFF64
:402FC000340B00204003064068000640ED0F0000C00F064008020640240B0020280B002004020640FFFFFEFF8C0F0640440B002040020640F3070000800F0640C80F06402D
:40300000380B002064000640CBB203700B0ADBB24370090CC9B281707047C0460378427812021A4383781B041A4310007047C0468446081C6146FFE71FB500F047FB00286D
:4030400001D40021C8421FBD10B500F0D3FA4042013010BD10B500F039FB002801DB002010BD012010BDC04610B500F02FFB002801DD002010BD012010BDC04610B500F029
:40308000E1FA002801DC002010BD012010BDC04610B500F0D7FA002801DA002010BD012010BDC0469E2110B5C905041CFFF7F0FF002803D1201C00F0E7FD10BD9E21201CBA
:4030C000C90500F05BFC00F0DFFD80231B069C466044F2E7F8B54A02430244004E00C50F240E28009B09360EC90F92098D4259D0A01B002800DC8DE0002E1AD1002A00D03C
:4031000079E05A0704D00F221A40042A00D004335A0138D50134FF2C00D189E028009B015B0AE4B25B02E4055B0A2343C0071843F8BDFF2CE5D08021C9040A431B2800DDDD
:4031400089E016002021C640081A8240511E8A4132439B1A5A0114D59B019E09300000F03BFE05388640844265DC041B330020200134E340041BA640721E96410024334367
:40318000BFE75A07BFD1DF082800FF2C2FD1002F00D187E08022D20313003B435B025B0AFF24BFE7A11B002949DD002E29D0FF2CA7D08026F60432431B2900DD8DE01700B6
:4031C0002026CF40711A8A40511E8A413A439B185A01D6D50134FF2C64D0012276491A405B080B4013438CE7031ECAD100207B025B0AE4B296E701380028AAD0FF2C9DD129
:403200007FE7002A00D17CE701390029DFD0FF2CD2D176E7002820D1601CC0B2012853DD80279E1AFF0437402FD0D61A0D0095E72800002376E7614B241A334061E7002966
:403240004DD1611CCEB2012E2FDDFF292AD09B185B080C0055E701227BE7002C1BD1002B5BD0C04300280CD0FF2E7ED01B2800DD92E01D002024C540201A8340581E8341D4
:403280002B43D31A34000D0064E7002E00D065E700200024ABE7FF2E67D08024E40440422343E3E7FF2400233CE7002C61D1002B7ED0002A00D124E79B185A0100D460E7F6
:4032C0003E4A0C0013401CE7002C1ED1002B2FD1002A66D013000D0013E7012277E7002C1FD1002B5AD0C94300290BD0FF2E50D01B295FDC1F002024CF40611A8B40591E27
:403300008B413B439B18340062E7002B1CD1002A4AD013000D00FF24F3E6130034000D00EFE6FF2E35D08024E40449422343DFE7002A00D1E5E68027981AFF04074000D1C3
:4033400052E7D31A0D00DCE6FF24002A00D1D8E68020DB08C003034204D0D208024201D113000D00DB00FF24CBE61300FF240D00C7E6002B0DD0FF24002A00D1C1E6802100
:40338000DB08C9030B42EDD0D2080A42EAD11300E8E71300FF24B4E6012372E713003400AFE60027002022E780270020FF03F1E61300A6E60123A5E7FFFFFF7DFFFFFFFBB7
:4033C000F0B5564644465F464D46F0B444024600C70F83B08846650A360EBA463DD0FF2E22D00023EC00802599469B46ED0425437F3E43465C025800DB0F640A000E9846D7
:4034000036D0FF2830D080230021E400DB041C437F38301A0190484642460843724E800030587A4013008746002D44D108239946063B9B46DDE70122FF2000241A406402CC
:40344000C305640AD2071C431443200003B03CBC90469946A246AB46F0BD002D20D104239946033B9B46C4E7002C17D1022102E0002C0AD10121321A01924A4643460A430C
:403480005A48920082587B409746200000F0A4FC431F76309C4040420021BAE70321B8E7280000F099FC431F9D4000237630464299469B469DE70C239946093B9B4698E798
:4034C00080240022E403FF20B9E70024C2468B465A465346022AAED0032A7DD0012A31D1012200201A400024A9E70122101A1B2856DD1A4000200024A1E78023DB031D42BF
:403500004BD18023DB032B435C02640A3A00FF2095E76D016001854230D2019A0024013A01921B220127290064006D00002901DBA84201D82D1A3C43013A002AF3D16A1E1C
:4035400095412C4301987F300028CEDD620704D00F222240042A00D00434220103D5244A019814408030FE2800DD64E70122A401640AC0B21A4062E72C00A9E72D1A1A2207
:403580000124CFE76B02BCD500248023DB031C436402640A4246FF2051E71C42B3D1F4E721002022C140101A8440621E94410C43620704D00F222240042A00D0043462015F
:4035C00004D5012201201A40002438E70122A401640A1A40002032E78023DB031C436402640A5246FF202AE774410000B4410000FFFFFFF7430270B542004C005D0AC30FFD
:403600004802120E460A240EC90FFF2A0FD0FF2C11D00120A24200D070BDB542FCD18B420DD0002AF8D12800431E9841F4E70120002DF1D1EBE70120002EEDD1E9E7002033
:40364000EAE7C0464302F0B542005D0AC30F4802440A4800120E000EC90FFF2A1FD0FF2822D0002A09D16E426E4100280FD1002C0DD10020002D09D005E0002801D1002C51
:4036800001D08B4213D0584201231843F0BD002EF7D048424141012049420843F6E7002DDDD002204042F1E7002CDAD0F9E78242E9DC04DBA542E6D80020A542E6D258427C
:4036C000434101205B421843E0E7C0464302F0B542004C005E0AC30F4802120E450A240EC90FFF2A17D0FF2C19D0002A0BD170427041002C17D0002807D04842414101201F
:4037000049420843F0BD002C13D08B4214D0584201231843F6E70220002EF3D1E3E70220002DEFD1E1E7002DE5D10020002EE9D0EDE7002DE9D1EAE7A242E8DC04DBAE42AE
:40374000E5D80020AE42DDD25842434101205B421843D7E7F0B557464E4645464300E0B446028846760A1F0EC40F002F47D0FF2F25D0002380259A469946F600ED042E43C2
:403780007F3F434642465D02D20F5B006D0A1B0E904640D0FF2B39D080220020ED00D20415437F3BFB1842465746591C62408C4607430F2F5CD86F49BF00C9598F46002ED6
:4037C00045D108239A46063B9946DAE7424602282DD0032800D1C3E0012800D0A2E0002500260240D4B27602ED05760A2E43E407264330001CBC90469946A246F0BD002EBC
:403800001AD104239A46033B9946BAE72A00511E8A41901CC6E70120002DC3D0280000F0DBFA431F76309D4043420020BAE70124FF2514400026D6E7300000F0CDFA431F59
:403840009E400023763047429A46994699E70C239A46093B994694E780260024F603FF25C1E735004846B2E7350022004846AEE72904090C0800370C3604360C2C0C7943CA
:40388000704367437443060C64183619B14203D980214902884647440004000C310409188D01681E8541890E2943350CED19AD010D43290104D5012369081D4063460D438D
:4038C00019007F31002925DD680704D00F202840042800D00435280103D5274980330D401900FE29A3DC0124AD016E0A1440CDB279E78020C003064207D0054205D128430D
:403900004602760A4446FF256DE706437602760AFF2568E70124611A1B2905DD14400025002660E76346CBE72E002023CE40591A8D406B1E9D412E43730704D00F23334078
:40394000042B00D00436730104D5012401251440002648E70124B601760A1440002542E780260124F6032E437602760A1440FF2539E7C046F4410000FFFFFFF7F8B54A02E2
:403980004E0043024400240EC50F9B09360EC90F9209FF2E00D183E001204140A01BA9425CD0002800DC95E0002E1CD1002A00D081E05A0704D00F221A40042A00D0043316
:4039C0005A013BD50134FF2C00D191E001209B015B0AE4B205405B02E4055B0AED0723432B431800F8BDFF2CE3D08021C9040A431B2800DD90E016002021C640081A824013
:403A0000511E8A4132439B1A5A0115D59B019E09300000F0E1F90538864084426CDC041B330020200134E340041BA640721E964100243343BDE70D005A07BCD1DF080123F5
:403A40001D40FF2C33D1002F00D190E08022D20313003B435B025B0AFF24BCE700284FDD002E2ED0FF2CA4D08025ED042A431B2800DD97E016002025C640281A8240501E2E
:403A8000824132439B185A01D5D50134FF2C6DD001227B481A405B08034013430D0088E7002A00D07AE777E7031EC5D100257B025B0AE4B28FE701380028A4D0FF2C97D1D6
:403AC00077E7002A00D174E701380028DAD0FF2CCDD16EE7002821D1601CC0B2012858DD80279E1AFF0437402FD0D61A0D008FE701231D4000236EE7624B241A334058E7A2
:403B0000002851D1601CC6B2012E33DDFF282DD09B185B0804004CE7012274E7002C1AD0FF2E1FD08024E404404223431B2800DD96E01D002024C540201A8340581E834140
:403B40002B43D31A34000D005EE7002E00D05FE700250024ABE7002B44D0C0430028F0D0FF2EE3D11300FF240D0022E70D00FF24002330E7002C5DD1002B7DD0002A00D1B7
:403B800017E79B185A0100D456E73E4A040013400FE7002C1ED1002B2FD1002A65D013000D0006E701226DE7002C1FD1002B59D0C04300280BD0FF2E4FD01B285EDC1D008E
:403BC0002024C540201A8340581E83412B439B18340058E7002B1CD1002A49D013000D00FF24E6E6130034000D00E2E6FF2E34D08024E40440422343DFE7002A00D1D8E607
:403C00008027981AFF04074000D14DE7D31A0D00CFE6FF24002A00D1CBE68020DB08C003034204D0D208024201D113000D00DB00FF24BEE6002B10D0FF24002A00D1B8E686
:403C40008020DB08C003034203D0D208024200D11300DB000D00FF24ABE61300FF24A8E601236EE713003400A3E6002700251EE780270025FF03E9E613009AE60123A6E709
:403C8000FFFFFF7DFFFFFFFB4302590A4300C20F1B0E00207E2B0EDD9D2B0DDC802000040143952B0BDC9620C31AD9400B005842002A00D118007047034BD018FBE7963BB5
:403CC00099400B00F3E7C046FFFFFF7F70B5002830D0C317C5185D40C40F280000F07CF89E231B1A962B0DDC9622D21A95406A02520AD8B25202C005520AE407024322430F
:403D0000100070BD992B19DC9922D21A9540124A2A40690704D00F210D40042D00D00432510103D50C4B1A409F231B1A9201520AD8B2DFE7002400200022DBE705222E00C5
:403D4000121AB921D6402A00C91A8A40551EAA4135001543DBE7C046FFFFFFFB70B5041E28D000F039F89E231B1A962B0ADC9622D21A94406202520AD8B25202520AC00571
:403D8000104370BD992B18DC9922D21A9440114A2240610704D00F210C40042C00D00432510103D50B4B1A409F231B1A9201520AD8B2E2E700200022DFE705222500121A12
:403DC000B921D5402200C91A8A40541EA2412C001443DCE7FFFFFFFB1C2101231B04984201D3000C10391B0A984201D3000A08391B09984201D30009043902A2105C401851
:403E00007047C04604030202010101010000000000000000014B18687047C046400100200E4B70B500251E000D4CE41AA410A54204D0AB00F35898470135F8E700F0FCF976
:403E4000084B00251E00084CE41AA410A54204D0AB00F35898470135F8E770BD4442000044420000444200004C420000002310B59A4203D0CC5CC4540133F9E710BD0300F9
:403E80008218934202D019700133FAE7704700000000000050494400436F6D6D756E69636174696F6E730000526561642043757272656E740000000049444C450000000029
:403EC00000300F40000280320F40800100400F400004000000320F40C440000080000000826F0455055506AA07AA0D960F691096126913FF153317CC180F190F1AF01BF045
:403F000025FF28332ACC32FF37FF3F404010410349FF4AFF4BFF4DA04F015018580459045A045F016040628064406540668068406A806C406D206E80820886048A188B02EE
:403F40008E108F0498019A229C029E019F01AB04B018B104B203B302B420B501B604BE04C040C103C9FFCAFFCBFFCDAFCE07CF01D018D287D804D904DA04DB04DF01E0404B
:403F8000E280E440E540E680E840EA80EC40ED20EE800004044005100680072009200B800D200E02132019081C541D0A1E021F40200123022520260A276029082F0430027A
:403FC00031203208374038043B803C403E104011450847026C016D046E207402C0F4C2CAC402CA22CC17CE3AD0CA9601B601D808DF01040207590A100D020E200F061408C2
:404000001504168218011E5A27192E823508361037403D043F02450847024D084F06569A5E4A5F2066187A028280832088088C019002910496109B02A10AA212AA80AF0419
:40404000B510C0F0C2F4C4F0CA90CC70CEC0D0C0D6F0D860DE08E080E840EC4001480420050207040E086E08C0F0C280DA8089089908AB04AD02B410B540E880EC105010B1
:4040800056026102D404D604D8028D02A502B410B602E408E802EC020101100101000F4058300F402C310F4004320F4035330F4009400F4008410F4006420F4007430F40C1
:4040C00002600F400618110320070008800000001F00000000004000010012400001201218060311001080040700080000004000100004201F0040402020801F0000000082
:4041000000005100400300000053C24E3FFFFFFF00AF0701180000000F000000040404040000000140008000404080004000800040208000000000000000000000000000FD
:4041400000000000030405060708090A0B0C0E0F101112131415161718191B1C1D1E1F2021222325262728292A2B2E2F30313233343500001235000036340000F434000076
:40418000CC340000F4340000C0340000F4340000CC3400003634000036340000C0340000CC340000783500007835000078350000FA3400003634000036340000E0340000D6
:4041C000CA340000E0340000C0340000E0340000CA3400003634000036340000C0340000CA3400007835000078350000783500008435000070380000CE370000CE3700006F
:40420000CC370000623800006238000058380000CC370000623800005838000062380000CC370000683800006838000068380000F238000043000000F8B5C046F8BC08BC75
:404240009E4670476D020000AD1C0000F8B5C046F8BC08BC9E4670474502000070420000C000002088000000580A0000000000000000000005000000AAAAAAAA0100000034
:404280000000C05D80BB000030000000006CDC02000000000000000000000000000000000000000000000000000000000000000034420000000000000000000000000000B6
:4042C000000000000000000000000000000000000000000000000000000000000000000000000000000000000000000000000000E0000020000000000000000000000000BE
:40430000000000000000000000000000000000000000000000000000000000000000000000000000000000000000000000000000000000000000000000000000000000007D
:40434000000000000000000000000000000000000000000000000000000000000000000000000000000000000000000000000000000000000000000000000000000000003D
:4043800000000000000000000000000000000000000000000000000000000000000000000000000000000000000000000000000000000000000000000000000000000000FD
:4043C00000000000000000000000000000000000000000000000000000000000000000000000000000000000000000000000000000000000000000000000000000000000BD
:0200000490303A
:0200000052921A
:0200000490402A
:200000000000000000000000000000000000000000000000000000000000000000000000E0
:0200000490501A
:0C000000000204FB11931101051164259E
:0200000490600A
:0100000001FE
:00000001FF