:4000000000100020110000009D1D00009D1D000010B501F0CBFEC04670B5144C23688025ED022B432360302002F0F2FA104A114B1A603022104B1A60203A104B1A602023FA
:400040000F4A13600F4A136080231B060E4A136025600E4A13600E4A0E4B1A600E4A0F4B1A6000220E4B1A6070BDC04600010B400600008004010B40080202400C020240CC
:40008000280202403002024008010B400000024001000080400002401D000080800002400C020B4010B572B60122394B1A7000240FE038486200131959000B004118898802
:4000C0001A5AC31858880004104301F061FE0134E4B2012CEDD92F490C312F48703001F03DFE2E4A2E4B1A6008222E4B1A602E4A2E4B1A60EE2212022D4B1A60EE222D4BE3
:400100001A6099231B042C4A13602C4A13602C4A13602C492C4A11602C4A136002232C4A13602C4A13602C490B783C22934314221343DBB20B70294A117816230B43DBB2A3
:4001400013702C22264B1A60264A274B1A602022264B1A601F3A264B1A60264A264B1A601C22264B1A60264A264B1A6080229201254B1A60D8221201244B1A600322244B6E
:400180001A602132234B1A60FFF746FF10BDC0461C700F4038410000B84300000000FFFF000001400400014000330300080001400C0001401000014000500F4010500F403E
:4001C00020500F400000350128500F4030500F402000004000800F4001700F4000700F400000044089142700080004400C000440000104400600D80008010440000204406C
:40020000806D0400080204400C02044008030440000404400804044010B5064C2378002B07D1054B002B02D0044800E000BF0123237010BD48010020000000000841000023
:40024000084B10B5002B03D00749084800E000BF07480368002B00D110BD064B002BFBD09847F9E7000000004C01002008410000C00000200000000010B502F039FD02F02B
:40028000FBFC002002F080FC002002F0DFFD10BD10B502F063FD02F095FA002002F074FC10BDC04610B502F0A5FD02F09BFD00281CD000F0D5FF0E4B18600E4B1B78012B6D
:4002C00014D11E2200210C4803F015FF002404E002F0AEFA094B185501341D2CF8D902F0C1FA02F02DFB0022024B1A7010BDC046980A0020000B0020AC0A00200C0B00201E
:4003000010B506490B2002F019F905490E2002F015F904490F2002F011F910BD9D0D0000410E0000850E0000002803D10022044B1A7003E0024B1A78104318707047C046DC
:40034000840A002000B583B0002001F05BF9304B18600A220021402001F0B4FE0190019B002B0FD10A21052001F03AFF0A21202001F036FF0A21002001F032FF0A2001F074
:4003800003FF05E00022234B1A800820FFF7CCFF0A220021402001F095FE0190019B002B20D10A21042001F01BFF0A2001F0ECFE012305221849402001F098FF0190019BA9
:4003C000002B08D1144A13781B0252789B181BB26A4653800CE000226B465A800820FFF7A3FF05E000226B465A800820FFF79CFF6B4602331B881BB2064A1380FA204000EF
:4004000001F012F8002001F0FDF8014B1860A0E72C0B00209C0A0020E00A0020002803D10022044B1A7003E0024A1378834313707047C046840A002070B5051C0C4B1C68C3
:40044000211C02F057FF002808D10A4B1C68211C281C02F03BFF002800D12C1C8321C905201C03F0B3FA02F059FF01F0D3FF70BDA40A0020680A002010B502F08DFB0B4BB2
:4004800018601A680A4B9A4206D9084A136809498C466344536002E0044B1A685A60034B5968054A1160586810BDC04664010020FFFFEF00010000FF740A002010B5002023
:4004C00001F0A0F8954B1860954B1B68DB0700D51BE1944B1B78002B00D016E1924B1868042101F091FB012800D00EE18F4B58789C781E2800D91E200022002305E08B49A1
:40050000C95C5218D2B20133DBB29842F7D8002A09D0874B5C7115221A71864A138801339BB213809BE0631EDBB2022B00D996E0012C02D0022C60D091E07C4B1A7959795C
:40054000090211439A7912040A431100DA7912060A4379490A601A7A597A090211439A7A12040A431100DA7A12060A4373490A601A7B597B090211439A7B12040A43110033
:40058000DA7B12060A436E490A60997C6D4A117000216D4A1170187C642800D9642003F019FD041C694B1860604B587C642800D9642003F00FFD664B18606649201C03F07A
:4005C0003BF8654903F002FA041C644B1860624902F0BCFE624B1860211C5F4803F00AFB604B18600222604B1A70504BDA785F4B1A700020FFF712FF31E04C48C3785A1E70
:4006000093415B4A13700379427912021A4383791B0413431A00C3791B061343554A1268934217D0FFF728FF534C20603F480379427912021A4383791B0413431A00C379D1
:400640001B0613434B4A136022684C4B1A60002002F0FCFB354B08229A563B4B1A70FFF70BFF47490860324B00221A705A709A700532DA7010321A71133A5A713A4A127844
:400680009A71404A1278DA712A4A128892B25A72120A9A72354A12781A720A685A73100A9873100CD873120E1A74374A12685A74100A9874100CD874120E1A75334A12885F
:4006C000DA72120A1A730022002305E01849C95C5218D2B20133DBB2142BF7D91448524202701E2102F020F901220E4B1A700F4B5B7A002B02D00020FFF790FE0A4B186840
:4007000000230022002101F0C3F9012000F08CFE002000F077FF014B1860D5E67C0A002024000740000B0020900A00200C0B0020AC0A0020FA0A0020D80A0020040B0020AE
:40074000880A00208C0A0020F80A0020800A0020D00A00200000C84200004842780A0020A40A0020680A0020340B0020080B0020640A00206C0A0020380B0020F40A00207E
:40078000740A0020840A0020DC0A00209C0A002010B5FFF771FE064B18601A68054B1A601A68054B1A600022044B1A6010BDC046740A0020380B0020F40A0020FC0A002093
:4007C000F8B50E1C151C1C1C002812D003F002FC084902F031FF071C074B1E60291C03F0F5F8064B1860391C201C02F025FF044B1860F8BD00007A44300B0020CC0A002038
:40080000700A0020F8B504000D003D4B1B7A002B74D0FFF731FE3B4B18603B4B1868201A3A4B1B68984266D3394B1B68394A126839490968FFF7C4FF324B1868281A03F074
:4008400081FB071C354B196803F0C0F8344D296802F07CFD061C2860324B1D68291C02F049FD002802D02E4B1D600BE080231B069C466544291C301C02F028FD002801D0BC
:40088000274B1D601F4B1B68274A15685D1B274B1968381C03F09AF8214B196802F056FD061C280003F04EFB214B196803F08EF8011C301C03F09EF9061C1E4B18601E4BAD
:4008C0001D68291C02F016FD002802D0194B1D600BE080231B069C466544291C301C02F0F5FC002801D0134B1D60064B1A680E4B1A60054B1C600F4B186800E00020F8BDCB
:4009000064010020740A0020D40A0020C4000020880A0020040B0020D80A0020CC0A0020FC0A0020D00A0020380B0020300B0020700A0020A00A0020800A002010B5441EC6
:4009400063425C41E4B2012805D1044B1B7A002B01D1FFF71DFF014B1C7210BD6401002010B5054902F0F2FCFC21890503F02EF8FFF762FD10BDC0460000C842F8B50020CB
:4009800000F040FE734B1860734D00242C60734E3460734F3C60FFF7FBFE3B68326829680520FFF70DFF0020FFF7C8FF6D4B6E4A13606E4A13606E496E4A11606E4A1360D6
:4009C0006E4B1C6000236E4A13606E4A136019216D4A11706D4A13706D4A1370012002F013FA8020000101F0C5FE00F039FC0400684B1B68FA2292009A18904201D89842AA
:400A000008D25B48FFF718FD0023614A1370624A137092E0614B1B78022B00D08DE0062001F0C4FE062001F0B5FE594B1B78002B3BD1594B1A7852B2594B1B785BB29A4228
:400A40000FD0554B1B78002B0BD0534B1B785BB2534A1370FFF710FD524B1860002002F0F5F94D4D287840B2323003F06BFAFFF7E3FC2B78002B18D0FFF7FEFC494B1B6870
:400A8000C01AC317C5185D4002F0E6F9061E05D1454B9D4202DD0420FFF746FC002E04D0012D02DC0220FFF73FFC384B1B78002B07D1374A1278002A03D00120FFF73EFFBD
:400AC00008E0334A1278002A04D1002B02D00020FFF734FF2E4B1B782C4A1370002B29D0294B1B78002B04D1254B1A68254B1A6016E0244A1168224A10680A1AD51752197A
:400B00006A405D00AA4202DC1E4B186008E0814203DACB181B4A136002E0CB1A194A1360184B19682000FFF76DFE204B1860FFF717FF02E000221D4B1A60002002F064F97A
:400B4000052000F071FC002000F05CFD014B186044E7C046A80A0020D80A0020040B0020880A00200000C842800A0020D00A002000004842780A0020A40A0020680A0020A6
:400B80006C0A0020F40A00208C0A0020850A0020640A0020980A0020F80A0020340B0020940A0020380B0020204E0000DC0A002030B583B0FFF7A4FB012001F0F7FD0120E2
:400BC00001F0E8FD0024019403230093002340223549364800F0E2FA019402230093002364223349334800F0D9FA019401230093002340223049314800F0D0FA012000F022
:400C0000F7FF2F4B186000280BD1013463425C41E4B2200002F0A8F8FA20800001F0D6FCF4E7284802F08CF8274802F053F8274802F0CAF8032002F067F8022002F02CF870
:400C4000032002F0A3F862B601F00AF9642001F0BDFC01F0DDFD01F02FFCC820C00001F0D1FB1B48FFF7E8FB00241A4B1C7001F0F3FF194D280001F087FF184B1D6002F033
:400C80003DF9002002F0E2F800F0EAFA144B18600122144B1A70144B1C70144B1C8000F0ADFA012003B030BD0C4100007D09000010410000BD04000020410000450300008F
:400CC000900A00209102000079020000A502000000004842F80A0020FFFFFF00380B0020980A0020340B0020080B0020FA0A002082B000230193064B1B68013301D072B617
:400D0000FEE772B6019B002BFCD002B07047C046C80000200000000000000000000000000B4A13681868203080F30988022080F31488BFF36F8F3FBCAE4608BC04BC62B6AC
:400D40001847C046C046C046C046C046C046C046200A0020054B00221A6005490A600549054A116007221A607047C04610E000E018E000E07FBB000014E000E010B5031FF1
:400D8000802464041C60043B1960043B02491960143B1A60403810BDF10C00007047C04610B50C4B1A68FF2109040A431A601A68FF2109060A431A60FFF7CCFF0022064BEA
:400DC0001A60FFF7ADFF00F049FBFFF791FF002010BDC04620ED00E0C800002080225205034B1A60BFF34F8FBFF36F8F7047C04604ED00E072B6044A136801331360BFF37C
:400E00004F8FBFF36F8F7047C8000020064B1B68002B01D172B6FEE7013B034A1360002B00D162B67047C046C8000020EFF3108072B6704780F310887047C04600000000D9
:400E4000EFF309800E4B1A6820381060F0C044464D4656465F46F0C008B572B600F0FEFA62B60CBC116808681030F0C8A046A946B246BB4680F309882038F0C81847C046D1
:400E8000200A002010B5FFF7D1FF040000F0EEF9002803D080225205024B1A602000FFF7C9FF10BD04ED00E070B50400430702D007239C43083400F0CBF90F4B1B68002B05
:400EC00005D10D4A13000C3307218B4313600B4B5B6DE4180A4A944207D8A34207D2064A1568ED18054B5C6502E0002500E0002500F030FA280070BD70010020F008002022
:400F0000C7070000002801D072B6FEE77047C046002301E0013001330278A52AFAD09B0898B270470A4B9B6A1B68002B01D1013300E00023002B04D001225242044BDA62AE
:400F400005E0034B9A6AD268D2685268DA6270474809002010B50400006BFFF7D3FF2000FFF7D0FF10BDC046F0B583B000900D0017000193089C0A9E9200A521306B03F0A2
:400F8000BAF8234BFB189B00326B94466344072293431F00002308E0E9180878F218343210700A78002A02D001330F2BF4D900224323F254042C00D90424F46274640023A2
:400FC000B364301D00F022FC3000183000F01EFC366105231C1BB4617662002206E0130012339B00F318002159600132042AF6D9002333666422B354019A00993800FFF75F
:40100000BDFE3060099B002B00D01E6003B0F0BDFFFFFF3FF8B5002408E0A2001219930010483030C01800F0E5FB0134042CF4D90D4C27001437380000F0DCFB26002836B3
:40104000300000F0D7FB074D2800143000F0D2FB20003C3000F0CEFB280000F0CBFBAF622665F8BD48090020C809002010B50400FFF7C0FE1E4B5A6D01325A659B6D002B59
:4010800007D11B4B9C655B6D012B0ED1FFF7C2FF0BE0174BDB6D002B07D1154B9B6DDB6AE26A934201D8124B9C65114A136E01331366E36A526E934201D90D4A5366211D37
:4010C0009A00D3189A000B483030801800F0A2FBFFF79CFE064BDB6D002B07D0044B9B6DDA6AE36A9A4201D2FFF778FE10BDC046C80900204809002070B512E0FFF77AFE11
:401100000A4CA36CDD68281D00F0A8FB636D013B6365A36E013BA366FFF778FE2800FFF719FF024B9B6E002BE8D170BDC809002010B5FFF7E1FFFCE770B504000D00154BF5
:40114000DE6E986D043000F089FB631C08D1002D06D0104B996D04310F4800F05BFB18E034190C4B9B6D5C60A64206D9094B186D996D043100F05AFB0BE0074DA86A054BC7
:40118000996D043100F052FBEB6A9C4201D2024BDC6270BDC809002048090020F0B587B00490059114001F009000FFF77DFE061E0AD06820FFF778FE051E01D0066304E02A
:4011C0003000FFF79FFE00E00025002D11D00023039302950D9B01930C9B00933B00220005990498FFF7C0FE2800FFF73FFF012001E00120404207B0F0BDC04600B583B0B5
:401200000F4B743301930023009380220D490E48FFF7C4FF01280CD172B6012252420B4BDA62074B0232DA650022DA66FFF7B8FD03E0431C01D172B6FEE703B000BDC0467C
:40124000C8090020304100003111000048090020024A136F013313677047C046C8090020014BD86E7047C046C8090020F8B5364B1B6F002B5BD1344BDC6E0134DC66002C74
:4012800011D1324B9B6A1B68002B01D072B6FEE72E4A916A2C4B186D906219659A6F01329A67FFF73FFE294BDB6A9C4203D2002742E0012700E00027244B9B6A1B68002BE9
:4012C00001D1013300E00023002B04D0012252421E4BDA6230E01D4B9B6ADB68DE6873689C4202D2194AD36226E0351D280000F0B5FAB36A002B03D03000183000F0AEFA15
:40130000F36A114A526E934201D90F4A53669A00D3189A000D4830308018290000F07AFAF26A094B9B6DDB6A9A42C2D2C4E7064AD36F0133D3670027054B1B68002B00D06E
:4013400001273800F8BDC046C809002048090020480A002070B5314B1B6F002B01D172B6FEE7FFF747FD2D4B1A6F013A1A671B6F002B4CD1294B5B6D002B26D1002449E0D5
:40138000274B1B6ADC682000183000F067FA251D280000F063FAE36A204A526E934201D91E4A53669A00D3189A001D4830308018290000F02FFA194B9B6DDB6AE26A9A42A4
:4013C00004D30122174B1A6000E00024144B5B69002BD5D1002C01D0FFF7A4FD0F4BDC6F002C0CD0FFF742FF002802D001220D4B1A60013C002CF5D10022084BDA67094B7F
:401400001B68002B05D0FFF7E9FC012402E0002400E00024FFF7FAFC200070BDC809002048090020480A002010B5041E0ED00A4B1B6F002B01D072B6FEE7FFF709FF002146
:401440002000FFF779FEFFF785FF00E00020002801D1FFF7C3FC10BDC809002010B51E4B1B6F002B03D001221C4B1A6033E000221A4B1A60184B5B6E04E0002B01D172B6F5
:40148000FEE7013B9900C9188A0015498A18126B002AF2D00A009900CC18A0001018446B6468446330321000C9188A0008328218944206D160689900C9188A0008498A1810
:4014C00050639900C9188A0005498A18526BD168014A9165536610BDC8090020480A00204809002010B50C00002801D172B6FEE7044B996D183100F099F901212000FFF784
:401500001BFE10BDC809002070B5C368DC68002C01D172B6FEE725001835280000F09EF9154B1B6F002B14D1251D280000F096F9E36A114A526E934201D90F4A53669A006E
:40154000D3189A000D4830308018290000F062F904E029000948143000F05CF9E26A064B9B6DDB6A9A4204D90122054B1A60012000E0002070BDC046C809002048090020F8
:40158000480A0020024B9A6F0260DB6E43607047C8090020F8B505000C00002801D172B6FEE7002901D172B6FEE7FFF723FC114BD86E6968421A23685E1C13D00D4EB66F54
:4015C0002F68B74201D088420ED29A4206D29B1A23602800FFF7D6FF002406E000232360012402E0002400E00124FFF70FFC2000F8BDC046C80900200122014B1A607047B4
:40160000480A002010B5002801D1034B986D006BFFF77EFC10BDC046C8090020064BDB6D002B05D0044B1B6F002B03D1022002E0012000E000207047C809002070B5041E02
:4016400042D0C36A224A926DD26A934234D28269002A05DB1E4A926DD16A0522521A82619A00D3189A001B4B30339A186369934201D1012300E00023002B17D0251D2800EC
:4016800000F0ECF8124A936DDB6AE362526E934201D90F4A53669A00D3189A000D4830308018290000F0B6F8012010E0084B9B6DDB6AE36201200AE0426C054B9B6DDB6A70
:4016C0009A4203D3002002E0002000E0012070BDC80900204809002070B5041E2CD0194B9B6D984201D072B6FEE7836C002B01D172B6FEE7013B8364C26A416C8A421DD071
:40170000002B1DD1051D280000F0A8F8636CE3620522D21AA2610B4A526E934201D9094A53669A00D3189A00074830308018290000F070F8012004E0002002E0002000E0CE
:40174000002070BDC80900204809002070B5041E3CD0806C002801D172B6FEE7626C8A4200D20A00E36A9A4230D001282ED11849896D8C4201D172B6FEE7E262A169002932
:4017800002DB05218A1AA2619A00D3189A00114B30339A186369934201D1012300E00023002B13D0251D280000F058F8E36A084A526E934201D9064A53669A00D3189A0067
:4017C000044830308018290000F024F870BDC046C809002048090020054B9B6D002B04D0034B9A6D936C01339364014B986D7047C809002003000833436001225242826092
:40180000C3600361002303607047C046002303617047C04643684B609A688A609A68516099600861036801330360704730B50C68631C01D1026907E00200083200E01A0058
:4018400053681D68AC42FAD253684B6099608A605160086103680133036030BD03694268816891608268416851605A68904201D182685A60002202611A68013A1A601868A2
:401880007047C046436A002B04D0036B18680523181A00E00020704710B50400FFF7AAFAA26BE36B9A4201D1012400E00024FFF7ADFA200010BDC04610B50400FFF79AFA48
:4018C000A36B002B01D1012400E00024FFF79EFA200010BD70B504001600856B026C002A08D10368002B2CD14068FFF7F5FE002363602DE0002E0ED1806802F0F3FBA368A2
:40190000226C94466344A360626893421BD32368A36000201CE0C06802F0E4FB236C5B42E268D218E26021688A4203D2626894466344E360022E08D1002D08D0013D00209F
:4019400006E0002004E0002002E0002000E000200135A56370BDC04670B50500FFF74AFA4523EC5C64B20CE06B6A002B0BD028002430FFF7C9FD002801D0FFF73DFE013C5A
:4019800064B2002CF0DCFF224523EA54FFF73EFAFFF730FA4423EC5C64B20CE02B69002B0BD028001030FFF7AFFD002801D0FFF723FE013C64B2002CF0DCFF224423EA548E
:4019C000FFF724FA70BDC04670B504000D00002801D172B6FEE7FFF70DFA2268E36B206C01005943511861600021A163A260013B4343D318E360FF234422A3540132A3547B
:401A0000002D0BD12369002B10D020001030FFF77BFD00280AD0FFF7E1F907E020001030FFF7E8FE20002430FFF7E4FEFFF7EEF9012070BD10B5029B002901D11B6000E014
:401A40001A60D863196401211800FFF7BDFF10BDF0B583B006000F001500002801D172B6FEE7002902D00800704300E000204830FFF71AFA041E07D00200483200902B000A
:401A800039003000FFF7D6FF200003B0F0BDC046F0B585B004000E0001921D00002801D172B6FEE7002904D1036C002B03D1013302E0012300E00023002B01D172B6FEE716
:401AC000022D03D1E36B012B02D102E0012300E00023002B01D172B6FEE7FFF79FFD002804D1019B002B03D1013302E0012300E00023002B01D172B6FEE70027FFF77AF982
:401B0000A36BE26B934201D3022D18D12A0031002000FFF7DFFE636A002B08D020002430FFF7F2FC002806D0FFF758F903E0002801D0FFF753F9FFF769F901204AE0019B71
:401B4000002B03D1FFF762F9002043E0002F03D102A8FFF717FD0137FFF758F9FFF778FBFFF748F94423E35C5BB2013302D100224423E2544523E35C5BB2013302D10022A6
:401B80004523E254FFF742F901A902A8FFF702FD002819D12000FFF77FFE00280ED0200010300199FFF79EFC2000FFF7D5FEFFF7D1FB0028A2D1FFF711F99FE72000FFF7F6
:401BC000CBFEFFF7C7FB99E72000FFF7C5FEFFF7C1FB002005B0F0BD10B5002807D0002343600360C36000220021FFF751FF10BD10B5020000210120FFF72AFF0400FFF74F
:401C0000EBFF200010BDC04670B584B0041E019101D172B6FEE7036C002B01D072B6FEE7FFF7FCFC002804D1019B002B03D1013302E0012300E00023002B01D172B6FEE796
:401C400000250026FFF7D6F8A36B002B16D0013BA3632368002B02D1FFF7BEFD60602369002B07D020001030FFF74EFC002801D0FFF7B4F8FFF7CAF801206DE0019B002B44
:401C800007D1002D01D072B6FEE7FFF7BFF8002062E0002E03D102A8FFF774FC0136FFF7B5F8FFF7D5FAFFF7A5F84423E35C5BB2013302D100224423E2544523E35C5BB2C1
:401CC000013302D100224523E254FFF79FF801A902A8FFF75FFC002824D12000FFF7ECFD002819D02368002B07D1FFF783F86068FFF7A4FC0500FFF789F8200024300199D7
:401D0000FFF7F0FB2000FFF727FEFFF723FB002898D1FFF763F895E72000FFF71DFEFFF719FB8FE72000FFF717FEFFF713FB2000FFF7C2FD002885D0002D0CD0FFF75AF892
:401D40002000FFF79FFD01006068FFF7FFFCFFF75DF8002000E0002004B070BDF0B50025002711E0BB00C658F3B2FF22964308E06A008A181478A419527822700135013B46
:401D8000DBB2002BF4D10137092FEBD9F0BDC04610B50A00002102F0AEF910BD10B502F075F903680C2B00D1FEE7FEE770B50F4E0F4D13E029686B68AC68002202E001C9F0
:401DC00001C30432A242FAD1E868002202E0002102C304328242FAD11035013E002EE9D102F05AF9FEF7E4FEFEE7C046010000006845000010B500230AE0032B03D89A00A5
:401E00000949505800E009489900094A885001332F2BF2D9FEF746F98022D205116801230B43136010BDC046000000009D1D00000000002010B50A2000F06AFB10BDC0468B
:401E400010B500F01DF810BD10B5044A1368802109060B431360FFF7EDFF10BD0000064010B5064B1B78002B04D1FFF7E9FF0122024B1A70FFF7E8FF10BDC0464C0A002030
:401E800010B51B4A11680C230B4313600024194B1C60194A194B1A60194B1A4A13601A4A14601A4A14601A4A13601A4B1C600A2000F038FB03210A2000F062FB16490A2036
:401EC00000F04CFB154B1C60154B1C60154B1C60154B1C60154B1C60154B1C601022154B1A70154B1C80154B1C60154B1C6010BD7000064000000640770800806000064045
:401F0000070100800003064004030640100306400002064004020640452F0000C80E0640880E0640480F0640080F0640C80F0640880F06403C0B00204C0B00205C0B0020D1
:401F4000440B002010B5144A13685B005B081360002312490B6012490B601248046812492140016011490B6011490B601149124B19601249124B19601249134B1960134918
:401F8000134B19601021134B19701368802109060B43136010BDC04600000640680006406C00064060000640FF5CFFFF880F0640C80F0640F3070000800F0640ED0F000009
:401FC000C00F0640FF0F0000400F064017030000000F06403C0B002010B504000368002B09D0012000F00AFB2368013B2360002B03D0002003E0002001E08020000610BD46
:4020000010B5002839DBC023034208D00022284B1A601032274B1A70002310243DE0C3070FD5244B1B781B072BD5234B1B685B0001D5002300E0012310211E4A1170012484
:402040002BE0C30520D4830722D4C30605D51022184B1A70002300241FE0164B1B781B0719D5144B1B78DB0701D5252200E02422104B1A70002300240FE0012380242406E9
:402080000BE00123012408E001238024640004E00023022401E000230024012B02D1FFF751FF02E0054A064B1A60200010BDC046680006403C0B002060000640170300007A
:4020C000000F064070B582B004000D001600244B1B78102B40D10A2000F024FA214B1B68DB0734D4FA239B005E43019600221E4B1A601E4A1E4B1A601E4A1F4B1A606400BE
:40210000FF231C40002D03D12422154B1A7004E02522134B1A7001231C43184B1C600222174B1A60124B1C680823FF3320001840144B1B68C02423401843040001A8FFF79E
:402140004BFF2043EED0FFF75BFF040000E008240A2000F0DDF900E00424200002B070BD3C0B002064000640080F064017030000000F0640ED0F0000C00F06404002064027
:4021800068000640400F064010B582B0104B1B789B061AD5FA239B00584301900D4B1B689B0601D5182200E010220B4B1A600B4B18681223FF331840040001A8FFF70CFFD2
:4021C0002043F4D0FFF71CFF00E0042002B010BD3C0B00206400064068000640000F064010B582B00D4B1B789B0613D5FA239B00594301910A4B18600A4B18680823FF33C0
:402200001840040001A8FFF7E7FE2043F4D0FFF7F7FE00E0042002B010BDC0463C0B002040020640000F064070B52B4B1B6820251D402A4C03E0012000F0E0F9013C00F0AF
:402240004BF9002801D1002CF5D1002C43D0002000F04AF9224A13680F218B431360214A13685B005B081360002D18D0002000F03BF90A2000F0C2F9012000F035F90A2096
:4022800000F0BCF9154C03E0012000F0B7F9013C00F036F9002803D1002CF5D100E00F4C002C08D0002000F01FF90A2000F0A6F901220D4B1A600B4A1368802109060B4347
:4022C000136007490B680F229343013A13430B60012000F009F970BD64000640204E0000100001400000064068000640F0B583B001900C0017001D00002917D02F4B1B7842
:40230000102B08D10A2000F00DF92D4B1B68DB070ED508260FE0294B1B78602B0AD1294A138808218B431380002604E0042602E0002600E00426002E39D129221F4B1A70CA
:402340000022214B1A60214A1760214B1C60EBB220490B70019B5C00FF231C400120044318490B8883430B801B491C4B19601421FF311B4B19601368072B03D80422194B4D
:402380001A6008E0184A1368802149000B4313600822144B1A60EB0704D5FFF745FF134B1C6004E0114B1C600222114B1A600A2000F0AEF8300003B0F0BDC0463C0B0020DE
:4023C000640006404C0B00205C0B0020580B0020500B0020540B002017030000000F0640080F0640C80F06406000064040020640680006400004000C014B18607047C04662
:40240000880105400004000C014B18607047C046940105400004000C014B18607047C0468C01054070B504000D0000F083FDAC40024B1C6000F082FD70BDC04608000540B6
:4024400010B500F077FD064A116804230B43136000F074FD18210420FFF7E4FF10BDC04600000540014B18607047C046B801054010B50E4C8023DB04236023682360002002
:40248000FFF7B8FF236823600C22094B1A600120FFF7E8FF3122074B1A60C820C000FFF7B1FFC8208000FFF7B5FF10BD80010540A4010540A801054010B5064B1B78002BA9
:4024C00004D1FFF7D5FF0122024B1A70FFF7B8FF10BDC046540A0020024B1868400801231840704704040440044A1368DBB201218B430840184310607047C0460004044053
:40250000024B1B68012018407047C046040404401F2318401E3B8340014A13607047C04600E100E01F2318401E3B8340014A13607047C04680E100E001BE704770B5040046
:402540000D000F2802D90020FFF7F6FFA40080239B059C4664442068256070BD70B504000D001F2802D90020FFF7E6FF1034A40080239B059C4664442068256070BDC0463E
:4025800070B504000E00032902D90020FFF7D4FF1F2C02D90020FFF7CFFF03252540ED00063500F0C7FCA408A400074B9C46644421680323AB4099430B003100A94019435F
:4025C000216000F0BBFC70BD00E400E010B5040006E0084B586800F0A3FC074B9C46644480231B029C42F4D8024B9868604300F097FC10BDCC0000200080FFFF10B5034B6E
:402600001B7B584300F08CFC10BDC046CC000020F0B557464E46C0B483B0040000F08AFC0190E71E2D2F74D83F4B1B78DBB29C4208D83E4B1B78DBB29A463D4B1B78DBB264
:40264000994631E03B4B1B78DBB29C4208D83A4B1B78DBB29A46394B1B78DBB2994623E0374B1B78DBB29C4208D8364B1B78DBB29A46354B1B78DBB2994615E0334B1B7895
:40268000DBB29C4208D8324B1B78DBB29A46314B1B78DBB2994607E02F4B1B78DBB29A462E4B1B78DBB299462D4BDE5D2F2E09D92A2C07D919222B4B1A60052000F030FC6A
:4026C000192503E0274B1D683F231D40B54206D9234BDA5D234B1A60052000F021FC1F4B9C4664442378DBB21F4A13601F4B52461A601F4B4A461A600520FFF77FFFB542F6
:402700000AD2174BDA5D174B1A60052000F008FC02E00020FFF710FF019800F00FFC03B00CBC91469A46F0BDC0F1FF0FC1F1FF0FC2F1FF0FC3F1FF0FC4F1FF0FC5F1FF0F2C
:40274000C6F1FF0FC7F1FF0FC8F1FF0FC9F1FF0FCAF1FF0FCBF1FF0FCCF1FF0FCDF1FF0F504400002CFF0B4028FF0B401CFF0B4020FF0B40054A1168054B1840084310609E
:40278000024B1A68024B1A42FAD1704710020B4008080800034A1168034B0B40400218431060704708020440FFF1FFFF034A1168034B0B408001184310607047080204409B
:4027C0003FFEFFFF034A10680423184010608008C0B270471000044010B50B20FFF798FE10BDC04610B500F03DF910BD10B500F0D3F810BD10B5054A1368802109060B4304
:402800001360FFF7E9FFFFF7EDFF10BD0000074010B5064B1B78002B04D1FFF7E7FF0122024B1A70FFF7E6FF10BDC046580A0020094B1A68094B1B689A420BD0074B1B6869
:402840000133212B00D10023054AD05CC0B2034A136000E000207047740B0020700B0020780B002010B50B20FFF75CFE0B4B1A680B4B1A6000220B4B1A700B4B1A68802140
:4028800049020A431A601968084A0A401A60084A084B1A600B20FFF73BFE10BD700B0020740B0020680B002004030740FFFFFEFFED0F0000C00F0740144B1A68144B1B683E
:4028C0009A4208D1134B1B680F221340082B02D0114B186019E00D4B1A680132202A00D100220B4B1B689A42FBD002230B490B60C0B20B49885405490A600A4A12681342C1
:4029000003D1084A11680B43136070476C0B0020640B00200802074040020740800F07409C0B0020880F074070B506000D00002403E0305DFFF7C0FF0134AC42F9D370BD68
:4029400010B50B20FFF7EEFD0C4B1A680C4B1A600C4A136802218B4313600B4B1A68802149020A431A601968084A0A401A60084A084B1A600B20FFF7CBFD10BD640B002021
:402980006C0B0020880F074004020740FFFFFEFFF3070000800F074010B51C4A1C4B1A6009221C4B1A601C4A1C4B1A6007221C4B1A601C4A1C4B1A6004241C4B1C600B20A4
:4029C000FFF7B0FD03210B20FFF7DAFD18490B20FFF7C4FD0023174A1360174A1360174A1360174A1360174A1460174A13601168164A1180164A1360164A1360164A1370C6
:402A0000164A1360164A136010BDC0460F0000010000074020000740070300800003074004030740070100800002074004020740792A0000880E0740C80E0740480F0740E4
:402A4000080F0740C80F0740880F0740600A0020740B0020700B0020680B00206C0B0020640B0020024B1A88024B1A607047C046600A0020880F074010B5274B1B68002BBF
:402A800000D09847254B1B685B071DD5244B1B680133212B00D10023224A1268934205D1214B1B682022214B1A7006E01E4A1268D2B21F49CA541A4A13601E4B1B681B074B
:402AC000E4D104221C4B1A601C4B1B689B0721D51B4B1A681B4B1B689A4213D0194B1B680133202B00D10023174AD25CD2B217490A60144A1360164B1B680F221340082B65
:402B0000E6D104E0134A136802218B4313600222114B1A6010BDC0465C0A0020CC0F0740740B0020700B002040030740680B0020780B002008030740C00F07408C0F074005
:402B40006C0B0020640B00209C0B00204002074008020740880F0740800F0740034A117880235B420B43DBB21370704770000F40014B18707047C04681000F40014B1878B3
:402B8000C0B2704761000F4010B50100014800F077FB10BD00000F4010B5034B1B78034800F078FB10BDC04600000F4040000F4010B5024800F06EFB10BDC04640000F40E0
:402BC00010B50100014800F05BFB10BD20000F4010B50100014800F053FB10BD30000F4010B501E0FFF7E4FFFFF7C8FF4306F9D410BDC04610B514490B78072293430522BB
:402C00001343DBB20B700B78032293430B70FFF7E7FF0E4C2000FFF7D3FF2000FFF7B4FF0020FFF7A5FFFFF7A9FF0948FFF7D0FF00F080F9074A117810230B43DBB2137014
:402C400000F07CF910BDC04670000F40FEFFFF00FFFFFF0091000F4010B5064B1B78002B04D1FFF7C7FF0122024B1A70FFF776FF10BDC046620A0020034A106840231840DB
:402C800010608009C0B2704710020440014B98647047C0460000002010B5040000F04AF9044A1168044B0B40A4051C43146000F045F910BD00E400E0FFFF3FFF0422014B31
:402CC0001A60704700E100E00422014B1A60704780E100E010B50400FFF7F6FF2000FFF7D5FF0320FFF7D8FFFFF7E8FF10BDC0460422014B1A60704780E200E0014B186413
:402D00007047C0460000002010B5040000F012F9044A1368C0218B43A4011C43146000F00DF910BD00E400E00122014B1A60704700E100E00122014B1A60704780E100E039
:402D400010B50400FFF7F6FF2000FFF7D7FF0320FFF7DAFFFFF7E8FF10BDC0460122014B1A60704780E200E004490A68D2B240239A4380011840104308607047000104401C
:402D8000014B58647047C0460000002010B5040000F0D0F8044A1168044B0B40A4031C43146000F0CBF810BD00E400E0FF3FFFFF0222014B1A60704700E100E00222014B80
:402DC0001A60704780E100E010B50400FFF7F6FF2000FFF7D5FF0320FFF7D8FFFFF7E8FF10BDC046024B1868C00901231840704704000440034B1868C0B27F2290431860E6
:402E0000C00970471000044004490A687F231A40C301D8B2104308607047C04600010440034A117880235B420B43DBB21370704772000F40014B18707047C04680000F40AC
:402E4000014B1878C0B2704760000F40014B18707047C04603000F40024B1B78024B1878C0B2704703000F4043000F40014B1878C0B2704743000F40014B18707047C046C9
:402E800023000F40014B18707047C04633000F4010B501E0FFF7EAFFFFF7D2FF4306F9D410BDC04610B513490B780722934301221343DBB20B700B78032293430B70FFF745
:402EC000E7FFFE20FFF7D8FF0020FFF7BFFF0020FFF7B0FFFFF7B4FF8020FFF7D3FF00F029F8054A117810230B43DBB2137000F025F810BD72000F4090000F4010B5064B4D
:402F00001B78002B04D1FFF7CDFF0122024B1A70FFF786FF10BDC046630A0020000000000230800804D0C0460138FDD1C046C046C0467047EFF3108072B6704780F31088A7
:402F40007047C04610B5AD4B1B68002B00D09847AB4B1B68DB0702D50022AA4B1A60AA4B1B789B0628D5A94B1B68DB0507D5A84A1188C0239B000B431380012300E000234D
:402F8000A24A1268D20706D5A14A118890239B000B4313800123002B0FD09B4A1278D20701D5012200E002229949088802430A800021954A117000E00023934A127892060D
:402FC00000D414E1914A1268D20611D51022914B1A608D4B1B78DB0701D5012300E002238B4A11880B4313801022874B1A7004E1854A1278120720D5844A126892070AD538
:403000000222844B1A60824A118888239B000B431380012311E07C4A1278D20703D52521794A117009E02421774A11707A4A1268002A02D01439794A1160734A127852072C
:4030400000D4ABE0704A1278D20749D5744A1268120727D5734A1268734909680F240C40724909686418141B082C09D8002C16D16F4A11686F4B0B401360012308340EE08F
:4030800008240CE0694A11686B48006841186B480068C0B20870116801311160013C002CF0D119E05E4A1268520715D55F4A116861480068411861480068C0B208701168AF
:4030C000013111601168574A1268914203D204215B4A116000E001235A495B4A11605DE04A4A1268920726D502224A4B1A6057490B680D321A40096880231B020B4000D0EF
:4031000001239B18524A1168CB1A13601268514B1A603F4A118884239B000B4313804E4B1A68802149020A431A6019684B4A0A401A60012332E04A4A1268D20612D424E0C8
:40314000434A1168344A1268914211D2404A11684448006841180978C9B243480160116801311160394A12680F210A40082AE7D1374A1168284A1268914202D14021274A88
:4031800011603A493A4A116008E0354A1268520604D52F4B1A682F4B1A600123002B2CD0234A1168234B0B4013600023314A13601A4A1360304B1B789B070ED5124B1B785C
:4031C000DB0701D5092300E00A23114A11880B43138060220C4B1A700FE0284B1B689B0601D5182200E01022154B1A6005E0064B1B78DB0601D4FEF7A5FE10BD500A0020C6
:403200008C0E0640880E06403C0B00200C0F06404C0B0020000F0640480B0020880F0640CC0F0640580B0020080306405C0B002060000640FFFEFFFF500B002040030640CD
:4032400068000640ED0F0000C00F064008020640400B0020440B002004020640FFFFFEFF8C0F0640600B002040020640F3070000800F0640C80F0640540B00206400064015
:40328000CBB203700B0ADBB24370090CC9B281707047C0460378427812021A4383781B041A4310007047C0468446081C6146FFE71FB500F047FB002801D40021C8421FBD1C
:4032C00010B500F0D3FA4042013010BD10B500F039FB002801DB002010BD012010BDC04610B500F02FFB002801DD002010BD012010BDC04610B500F0E1FA002801DC002083
:4033000010BD012010BDC04610B500F0D7FA002801DA002010BD012010BDC0469E2110B5C905041CFFF7F0FF002803D1201C00F0E7FD10BD9E21201CC90500F05BFC00F032
:40334000DFFD80231B069C466044F2E7F8B54A02430244004E00C50F240E28009B09360EC90F92098D4259D0A01B002800DC8DE0002E1AD1002A00D079E05A0704D00F22FF
:403380001A40042A00D004335A0138D50134FF2C00D189E028009B015B0AE4B25B02E4055B0A2343C0071843F8BDFF2CE5D08021C9040A431B2800DD89E016002021C64054
:4033C000081A8240511E8A4132439B1A5A0114D59B019E09300000F03BFE05388640844265DC041B330020200134E340041BA640721E964100243343BFE75A07BFD1DF082D
:403400002800FF2C2FD1002F00D187E08022D20313003B435B025B0AFF24BFE7A11B002949DD002E29D0FF2CA7D08026F60432431B2900DD8DE017002026CF40711A8A4007
:40344000511E8A413A439B185A01D6D50134FF2C64D0012276491A405B080B4013438CE7031ECAD100207B025B0AE4B296E701380028AAD0FF2C9DD17FE7002A00D17CE78C
:4034800001390029DFD0FF2CD2D176E7002820D1601CC0B2012853DD80279E1AFF0437402FD0D61A0D0095E72800002376E7614B241A334061E700294DD1611CCEB2012E5E
:4034C0002FDDFF292AD09B185B080C0055E701227BE7002C1BD1002B5BD0C04300280CD0FF2E7ED01B2800DD92E01D002024C540201A8340581E83412B43D31A34000D0000
:4035000064E7002E00D065E700200024ABE7FF2E67D08024E40440422343E3E7FF2400233CE7002C61D1002B7ED0002A00D124E79B185A0100D460E73E4A0C0013401CE725
:40354000002C1ED1002B2FD1002A66D013000D0013E7012277E7002C1FD1002B5AD0C94300290BD0FF2E50D01B295FDC1F002024CF40611A8B40591E8B413B439B1834005D
:4035800062E7002B1CD1002A4AD013000D00FF24F3E6130034000D00EFE6FF2E35D08024E40449422343DFE7002A00D1E5E68027981AFF04074000D152E7D31A0D00DCE67D
:4035C000FF24002A00D1D8E68020DB08C003034204D0D208024201D113000D00DB00FF24CBE61300FF240D00C7E6002B0DD0FF24002A00D1C1E68021DB08C9030B42EDD0BA
:40360000D2080A42EAD11300E8E71300FF24B4E6012372E713003400AFE60027002022E780270020FF03F1E61300A6E60123A5E7FFFFFF7DFFFFFFFBF0B5564644465F467D
:403640004D46F0B444024600C70F83B08846650A360EBA463DD0FF2E22D00023EC00802599469B46ED0425437F3E43465C025800DB0F640A000E984636D0FF2830D08023F4
:403680000021E400DB041C437F38301A0190484642460843724E800030587A4013008746002D44D108239946063B9B46DDE70122FF2000241A406402C305640AD2071C43AC
:4036C0001443200003B03CBC90469946A246AB46F0BD002D20D104239946033B9B46C4E7002C17D1022102E0002C0AD10121321A01924A4643460A435A48920082587B402F
:403700009746200000F0A4FC431F76309C4040420021BAE70321B8E7280000F099FC431F9D4000237630464299469B469DE70C239946093B9B4698E780240022E403FF2012
:40374000B9E70024C2468B465A465346022AAED0032A7DD0012A31D1012200201A400024A9E70122101A1B2856DD1A4000200024A1E78023DB031D424BD18023DB032B43FD
:403780005C02640A3A00FF2095E76D016001854230D2019A0024013A01921B220127290064006D00002901DBA84201D82D1A3C43013A002AF3D16A1E95412C4301987F3018
:4037C0000028CEDD620704D00F222240042A00D00434220103D5244A019814408030FE2800DD64E70122A401640AC0B21A4062E72C00A9E72D1A1A220124CFE76B02BCD539
:4038000000248023DB031C436402640A4246FF2051E71C42B3D1F4E721002022C140101A8440621E94410C43620704D00F222240042A00D00434620104D5012201201A403E
:40384000002438E70122A401640A1A40002032E78023DB031C436402640A5246FF202AE780440000C0440000FFFFFFF7430270B542004C005D0AC30F4802120E460A240EE7
:40388000C90FFF2A0FD0FF2C11D00120A24200D070BDB542FCD18B420DD0002AF8D12800431E9841F4E70120002DF1D1EBE70120002EEDD1E9E70020EAE7C0464302F0B5DC
:4038C00042005D0AC30F4802440A4800120E000EC90FFF2A1FD0FF2822D0002A09D16E426E4100280FD1002C0DD10020002D09D005E0002801D1002C01D08B4213D0584275
:4039000001231843F0BD002EF7D048424141012049420843F6E7002DDDD002204042F1E7002CDAD0F9E78242E9DC04DBA542E6D80020A542E6D25842434101205B42184377
:40394000E0E7C0464302F0B542004C005E0AC30F4802120E450A240EC90FFF2A17D0FF2C19D0002A0BD170427041002C17D0002807D048424141012049420843F0BD002C8A
:4039800013D08B4214D0584201231843F6E70220002EF3D1E3E70220002DEFD1E1E7002DE5D10020002EE9D0EDE7002DE9D1EAE7A242E8DC04DBAE42E5D80020AE42DDD25F
:4039C0005842434101205B421843D7E7F0B557464E4645464300E0B446028846760A1F0EC40F002F47D0FF2F25D0002380259A469946F600ED042E437F3F434642465D028E
:403A0000D20F5B006D0A1B0E904640D0FF2B39D080220020ED00D20415437F3BFB1842465746591C62408C4607430F2F5CD86F49BF00C9598F46002E45D108239A46063B1F
:403A40009946DAE7424602282DD0032800D1C3E0012800D0A2E0002500260240D4B27602ED05760A2E43E407264330001CBC90469946A246F0BD002E1AD104239A46033B6B
:403A80009946BAE72A00511E8A41901CC6E70120002DC3D0280000F0DBFA431F76309D4043420020BAE70124FF2514400026D6E7300000F0CDFA431F9E40002376304742D7
:403AC0009A46994699E70C239A46093B994694E780260024F603FF25C1E735004846B2E7350022004846AEE72904090C0800370C3604360C2C0C7943704367437443060C52
:403B000064183619B14203D980214902884647440004000C310409188D01681E8541890E2943350CED19AD010D43290104D5012369081D4063460D4319007F31002925DD3C
:403B4000680704D00F202840042800D00435280103D5274980330D401900FE29A3DC0124AD016E0A1440CDB279E78020C003064207D0054205D128434602760A4446FF2508
:403B80006DE706437602760AFF2568E70124611A1B2905DD14400025002660E76346CBE72E002023CE40591A8D406B1E9D412E43730704D00F233340042B00D004367301BF
:403BC00004D5012401251440002648E70124B601760A1440002542E780260124F6032E437602760A1440FF2539E7C04600450000FFFFFFF7F8B54A024E0043024400240EF4
:403C0000C50F9B09360EC90F9209FF2E00D183E001204140A01BA9425CD0002800DC95E0002E1CD1002A00D081E05A0704D00F221A40042A00D004335A013BD50134FF2CD1
:403C400000D191E001209B015B0AE4B205405B02E4055B0AED0723432B431800F8BDFF2CE3D08021C9040A431B2800DD90E016002021C640081A8240511E8A4132439B1AF7
:403C80005A0115D59B019E09300000F0E1F90538864084426CDC041B330020200134E340041BA640721E964100243343BDE70D005A07BCD1DF0801231D40FF2C33D1002F1C
:403CC00000D190E08022D20313003B435B025B0AFF24BCE700284FDD002E2ED0FF2CA4D08025ED042A431B2800DD97E016002025C640281A8240501E824132439B185A0121
:403D0000D5D50134FF2C6DD001227B481A405B08034013430D0088E7002A00D07AE777E7031EC5D100257B025B0AE4B28FE701380028A4D0FF2C97D177E7002A00D174E7E5
:403D400001380028DAD0FF2CCDD16EE7002821D1601CC0B2012858DD80279E1AFF0437402FD0D61A0D008FE701231D4000236EE7624B241A334058E7002851D1601CC6B295
:403D8000012E33DDFF282DD09B185B0804004CE7012274E7002C1AD0FF2E1FD08024E404404223431B2800DD96E01D002024C540201A8340581E83412B43D31A34000D0060
:403DC0005EE7002E00D05FE700250024ABE7002B44D0C0430028F0D0FF2EE3D11300FF240D0022E70D00FF24002330E7002C5DD1002B7DD0002A00D117E79B185A0100D4F1
:403E000056E73E4A040013400FE7002C1ED1002B2FD1002A65D013000D0006E701226DE7002C1FD1002B59D0C04300280BD0FF2E4FD01B285EDC1D002024C540201A8340A5
:403E4000581E83412B439B18340058E7002B1CD1002A49D013000D00FF24E6E6130034000D00E2E6FF2E34D08024E40440422343DFE7002A00D1D8E68027981AFF04074027
:403E800000D14DE7D31A0D00CFE6FF24002A00D1CBE68020DB08C003034204D0D208024201D113000D00DB00FF24BEE6002B10D0FF24002A00D1B8E68020DB08C00303421C
:403EC00003D0D208024200D11300DB000D00FF24ABE61300FF24A8E601236EE713003400A3E6002700251EE780270025FF03E9E613009AE60123A6E7FFFFFF7DFFFFFFFBA0
:403F00004302590A4300C20F1B0E00207E2B0EDD9D2B0DDC802000040143952B0BDC9620C31AD9400B005842002A00D118007047034BD018FBE7963B99400B00F3E7C046E0
:403F4000FFFFFF7F70B5002830D0C317C5185D40C40F280000F07CF89E231B1A962B0DDC9622D21A95406A02520AD8B25202C005520AE40702432243100070BD992B19DC5A
:403F80009922D21A9540124A2A40690704D00F210D40042D00D00432510103D50C4B1A409F231B1A9201520AD8B2DFE7002400200022DBE705222E00121AB921D6402A00F3
:403FC000C91A8A40551EAA4135001543DBE7C046FFFFFFFB70B5041E28D000F039F89E231B1A962B0ADC9622D21A94406202520AD8B25202520AC005104370BD992B18DCFD
:404000009922D21A9440114A2240610704D00F210C40042C00D00432510103D50B4B1A409F231B1A9201520AD8B2E2E700200022DFE705222500121AB921D5402200C91AD3
:404040008A40541EA2412C001443DCE7FFFFFFFB1C2101231B04984201D3000C10391B0A984201D3000A08391B09984201D30009043902A2105C40187047C04604030202FA
:40408000010101010000000000000000014B18687047C046400100200E4B70B500251E000D4CE41AA410A54204D0AB00F35898470135F8E700F046FA084B00251E00084C87
:4040C000E41AA410A54204D0AB00F35898470135F8E770BD50450000504500005045000058450000002310B59A4203D0CC5CC4540133F9E710BD03008218934202D019705B
:404100000133FAE7704700000000000050494400436F6D6D756E69636174696F6E730000526561642043757272656E740000000049444C450000000000300F4000040040AD
:404140000F4000048067816F011003040608072009010B120D060F11151F19071B081C021E011FC02001211822122303260427802B403010311F3204338034033540360888
:4041800037203E103F014040410249FF4AFF4BFF4DA04F01501852875407580459045A045B045F016040628064406540668068406A806C406D206E80805582AA89338BCC4F
:4041C0008C968E69915592FF93AA943396CC9D0F9FF0A00FA196A2F0A369A4FFB0FFB5FFB902BE01BF01C040C106C9FFCAFFCBFFCDAFCE07CF01D018D40FD804D904DA0425
:40420000DB04DF01E040E280E440E540E680E840EA80EC40ED20EE80010805420A020E100F4012201302170A1804194A1A1A1B801C401D022008210422A023822602270850
:404240002A202B602F803020318032083502368039583A013E10404445024E04581059045A805E065FA06108621066046704682069506B017340840187208A20C094C2312C
:40428000C43CCA87CC9ECE2FD085D220D6FED866E002E4800302060C0B0C0C021308140419021E032F07300132083302340235013604370C3E503F0440404106453C4625B9
:4042C000474E483F49FF4AFF4BFF4DAF4E074F0150185280580459045A045B045F016040628064406540668068406A806C406D206E8080028340860189028B248E048F0184
:40430000910C9322990E9B109C04A130A202A306AD20AF08B004B140B202B33EB401B701BE05C031C105C552C6C0C70EC81FC9FFCAFFCBFFCDA0CF01D018D80AD904DA04F0
:40434000DF01E040E280E440E540E680E840EA50EBA8EC40ED20EE50EFA8008802800440062007200A020E200F011080180819041A801C401E26228924102580262027024A
:404380002B412C01302033013620370239903B023C023D20401041404502484049084A024B024E044F055080514852105625574164106508740179088004911892089684EA
:4043C000970498019B019C109D049E159F20A024A112A202A588A609A740A910C0ADC2A1C408CA19CCA5CEADD08AD228DE02E401E8010242050807010E086E088508870130
:404400008A40C0F0C280DA80E040E410AA02E88051105C025F808510D404D60580029C02AB8001011001000002000F4068300F403E310F4063320F404C330F400D400F40B6
:4044400002410F4006420F4003430F4002600F40030405060708090A0B0C0E0F101112131415161718191B1C1D1E1F2021222325262728292A2B2E2F3031323334350000DD
:404480008A370000AE3600006C370000443700006C370000383700006C37000044370000AE360000AE3600003837000044370000F0370000F0370000F03700007237000039
:4044C000AE360000AE360000583700004237000058370000383700005837000042370000AE360000AE3600003837000042370000F0370000F0370000F0370000FC3700008E
:40450000E83A0000463A0000463A0000443A0000DA3A0000DA3A0000D03A0000443A0000DA3A0000D03A0000DA3A0000443A0000E03A0000E03A0000E03A00006A3B000088
:4045400043000000F8B5C046F8BC08BC9E46704741020000F51D0000F8B5C046F8BC08BC9E4670471902000078450000C000002088000000780A0000000000000500000050
:40458000AAAAAAAA010000000000C05D80BB000030000000006CDC0200000000000000000000000000000000000000000000000000000000000000004045000000000000FB
:4045C0000000000000000000000000000000000000000000000000000000000000000000000000000000000000000000000000000000000000000000E000002000000000BB
:40460000000000000000000000000000000000000000000000000000000000000000000000000000000000000000000000000000000000000000000000000000000000007A
:40464000000000000000000000000000000000000000000000000000000000000000000000000000000000000000000000000000000000000000000000000000000000003A
:4046800000000000000000000000000000000000000000000000000000000000000000000000000000000000000000000000000000000000000000000000000000000000FA
:4046C00000000000000000000000000000000000000000000000000000000000000000000000000000000000000000000000000000000000000000000000000000000000BA
:0200000490303A
:020000007D91F0
:0200000490402A
:200000000000000000000000000000000000000000000000000000000000000000000000E0
:0200000490501A
:0C000000000204FB1193110105128F2473
:0200000490600A
:0100000001FE
:00000001FF