:400000000010002011000000450A0000450A000010B500F01FFDC04670B5174C23688025ED022B432360302000F00CFF134A144B1A603022134B1A60203A134B1A60013262
:40004000124B1A602023124A1360124A136080231B06114A13602560104A1360104A114B1A60114A114B1A60114A124B1A600022114B1A6070BDC04600010B400600008054
:4000800004010B40080202400C02024020020240280202403002024008010B400000024001000080400002401D000080800002407F250080040002400C020B4010B572B668
:4000C0000122394B1A7000240FE038486200131959000B00411889881A5AC31858880004104300F0A9FC0134E4B2012CEDD92F490C312F48603000F085FC2E4A2E4B1A606F
:4001000008222E4B1A602E4A2E4B1A60EE2212022D4B1A60EE222D4B1A6099231B042C4A13602C4A13602C4A13602C492C4A11602C4A136002232C4A13602C4A13602C49D8
:400140000B783C22934314221343DBB20B70294A117816230B43DBB213702C22264B1A60264A274B1A602022264B1A601F3A264B1A60264A264B1A601C22264B1A60264AA7
:40018000264B1A6080229201254B1A60D8221201244B1A600322244B1A602132234B1A60FFF73AFF10BDC0461C700F402C1E0000AC2000000000FFFF00000140040001407F
:4001C00000330300080001400C0001401000014000500F4010500F4020500F400000350128500F4030500F402000004000800F4001700F4000700F40000004408914270053
:40020000080004400C000440000104400600D8000801044000020440806D0400080204400C02044008030440000404400804044010B5064C2378002B07D1054B002B02D0F2
:40024000044800E000BF0123237010BD5001002000000000281E0000084B10B5002B03D00749084800E000BF07480368002B00D110BD064B002BFBD09847F9E7000000007A
:4002800054010020281E0000C00000200000000010B501F037F901F0F9F8002001F07EF8002001F0DDF90122014B1A7010BDC046C400002010B501F05BF900F08DFE002018
:4002C00001F06CF80022014B1A7010BDC400002010B501F099F901F08FF900281DD00F4B1A685B680E4B1A600E4B1B78012B14D11E2200210C4801F08FFD002404E000F091
:40030000A1FE0A4B185501341D2CF8D900F0B4FE00F020FF0022034B1A7010BD70010020F00100204C0200200002002050020020002803D10022044B1A7003E0024A137840
:40034000834313707047C046EC01002010B5C8239B00181A00F0A4FC10BDC04610B501F025F80B4B98609A680A4B9A4206D9084A936809498C466344D36002E0044B9A68D9
:40038000DA60034BD968054A1160D86810BDC04670010020FFFFEF00010000FFE001002010B57C4B1B68DB0700D5F2E07A4B1B78002B00D0EDE0794B58789C781E2800D9A3
:4003C0001E200022002305E07449C95C5218D2B20133DBB29842F7D8002A09D0704B5C7115221A716F4A138801339BB2138082E0631EDBB2022B7ED8022C2DD0032C5ED02B
:40040000012C78D1FFF7AAFF674B18601968674A11601A68664B1A600023664A1370664A1370664B1868642101F0DEFB32235843634A106001003231624A1160181A624BB7
:4004400018600222614B1A70544BDA78604B1A700020FFF76DFF4EE05048C3785A1E9341554A13700379427912021A4383791B0413431A00C3791B0613434C4A12689342C8
:4004800017D0FFF76BFF484C206044480379427912021A4383791B0413431A00C3791B061343424A13602268414B1A60002001F0D7F83A4B08229A56464B1A701BE0374CC8
:4004C000217963791B020B431A00A079000403001343E0790006184300F060FF2379627912021A43A3791B0413431A00E3791B0613432D4A1360FFF731FF37490860284BB1
:4005000000221A705A7002209870DA7015321A7158712E4A12789A71304A1278DA71214A128892B25A72120A9A72294A12781A720A685A73100A9873100CD873120E1A749B
:40054000274A12685A74100A9874100CD874120E1A75244A1288DA72120A1A730022002305E00F49C95C5218D2B20133DBB2142BF7D90B48524202701E2100F0DFFD01229C
:40058000054B1A70054B5B7A002B02D00020FFF7CFFE10BD240007404C02002050020020000200204602002074020020DC01002040020020F4010020D4010020E8010020B2
:4005C000E4010020FC010020D8010020700200204D02002044020020E0010020EC010020280200206E02002010B5FFF7B7FE064B18601A68054B1A601A68054B1A6000229E
:40060000044B1A6010BDC046E001002074020020400200204802002010B5441E63425C41E4B2012805D1044B1B7C002B01D1FFF7DBFF014B1C7410BD7001002010B5374B89
:400640001B6801330024364A10685168002903D1A1420AD1984208D90020FFF777FE0023304A1370304A137057E0304B1B78022B53D1062000F0A4FC062000F095FC2C4B66
:400680001B78002B07D1274A1278002A03D00120FFF7C2FF08E0234A1278002A04D1002B02D00020FFF7B8FF1E4B1B78204A1370002B2FD01F4B1B78002B04D11E4B1A6831
:4006C0001E4B1A6016E01D4A11681B4A10680A1AD417121962405C00A24202DC174B186008E0814203DACB18144A136002E0CB1A124A1360FFF732FE114B186019680F4BE9
:40070000186800F029F90F4B18600F4B1860FFF71DFE02E000220C4B1A6010BDF001002070010020D40100204402002070020020F4010020F5010020DC01002040020020B7
:40074000E0010020F80100202802002070B5022001F04AF8012000F061FF2A4B9C69DD69C820002124184D419C61DD611C6A5D6A0019694118625962196A5A6A002A04D1D1
:4007800016D1FA239B00994212D91E4B00200021186259629C6ADD6A0120002124184D419C62DD621C6B5D6B0019694118635963144B196B5A6B002A04D110D1FA239B00D6
:4007C00099420CD90F4B00200021186359631C685D68012000210019694118605960094A936B01339363DA0702D5FFF727FF05E09A0703D45B0701D5FFF7D2FD002000F02F
:400800000DFF70BD7001002070B5012000F0D8FB012000F0C9FB00F0D7FF394801F010F8022000F0EDFF374800F094FE032000F075FE354800F058FE032000F037FE3348C5
:4008400000F0CCFE032000F0ABFE62B600F05CF9642000F0D5FA00F0E5FB00F073FAC820C00000F015FA0020FFF770FD0024284B1C70284B1C7000F0F9FD274D280000F077
:400880008DFD264B1D6000F039FF002000F0E8FE0122234B1A70234B1C70234B1C80FFF7A3FE0020FFF7B8FE6423204A1360204A136032211F4A11601F4A13601F4B1C60F0
:4008C0001F4B1C601F4B1C60FA221F4B1A701F4B00221A701E4B1A700020FFF737FD1D4B1A685B680123134203D0012000F046FE02E0002000F042FE0A2000F081FAEEE7DF
:400900004D070000B502000091020000D102000044020020C4000020FFFFFF0074020020700200204D02002046020020E801002020020020E4010020FC010020D80100209A
:40094000DC01002040020020F5010020F4010020D40100207001002010B588B00C00FA235B0106936423059300230493224B0393224B0293401A0790059B079A5343204A3C
:4009800011688C4663441360039A934203DD039A1B4B1A6007E0039A5242934203DA039B5B42174A136016494B68E31A0193069B079A534309685A18049B01994B43D31A18
:4009C0000093009A029B9A4202DD029B009307E0029B5B42009A934202DD029B5B4200930098FA21890001F0FFF80090044B5C60009808B010BDC04690D0030000350C0080
:400A0000B0010020F0B50025002711E0BB00C658F3B2FF22964308E06A008A181478A419527822700135013BDBB2002BF4D10137092FEBD9F0BDC04610B50A00002101F03B
:400A4000EBF910BD10B501F0BBF903680C2B00D1FEE7FEE770B50F4E0F4D13E029686B68AC68002202E001C901C30432A242FAD1E868002202E0002102C304328242FAD15F
:400A80001035013E002EE9D101F0A0F9FFF7BCFEFEE7C046010000008821000010B500230AE0032B03D89A000949505800E009489900094A885001332F2BF2D9FFF7FEFA50
:400AC0008022D205116801230B43136010BDC04600000000450A00000000002010B50A2000F040F910BDC04610B500F01DF810BD10B5044A1368802109060B431360FFF766
:400B0000EDFF10BD0000064010B5064B1B78002B04D1FFF7E9FF0122024B1A70FFF7E8FF10BDC046B801002010B51B4A11680C230B4313600024194B1C60194A194B1A60D4
:400B4000194B1A4A13601A4A14601A4A14601A4A13601A4B1C600A2000F00EF903210A2000F028F916490A2000F012F9154B1C60154B1C60154B1C60154B1C60154B1C6082
:400B8000154B1C601022154B1A70154B1C80154B1C60154B1C6010BD7000064000000640770800806000064007010080000306400403064010030640000206400402064010
:400BC00085180000C80E0640880E0640480F0640080F0640C80F0640880F06407802002088020020980200208002002010B5144A13685B005B081360002312490B601249B9
:400C00000B601248046812492140016011490B6011490B601149124B19601249124B19601249134B19601349134B19601021134B19701368802109060B43136010BDC0463F
:400C400000000640680006406C00064060000640FF5CFFFF880F0640C80F0640F3070000800F0640ED0F0000C00F0640FF0F0000400F064017030000000F06407802002049
:400C80000004000C014B18607047C046880105400004000C014B18607047C046940105400004000C014B18607047C0468C01054070B504000D0000F0DDFDAC40024B1C6052
:400CC00000F0DCFD70BDC0460800054010B500F0D1FD064A116804230B43136000F0CEFD18210420FFF7E4FF10BDC04600000540014B18607047C046B801054010B50E4CD0
:400D00008023DB042360236823600020FFF7B8FF236823600C22094B1A600120FFF7E8FF3122074B1A60C820C000FFF7B1FFC8208000FFF7B5FF10BD80010540A4010540CF
:400D4000A801054010B5064B1B78002B04D1FFF7D5FF0122024B1A70FFF7B8FF10BDC046C00100201F2318401E3B8340014A13607047C04600E100E01F2318401E3B83400F
:400D8000014A13607047C04680E100E001BE704770B504000D001F2802D90020FFF7F6FF1034A40080239B059C4664442068256070BDC04670B504000E00032902D900204B
:400DC000FFF7E4FF1F2C02D90020FFF7DFFF03252540ED00063500F04DFDA408A400074B9C46644421680323AB4099430B003100A9401943216000F041FD70BD00E400E04E
:400E000010B5040006E0084B586800F029FD074B9C46644480231B029C42F4D8024B9868604300F01DFD10BDD40000200080FFFF10B5034B1B7B584300F012FD10BDC04645
:400E4000D4000020F0B557464E46C0B483B0040000F010FD0190E71E2D2F74D83F4B1B78DBB29C4208D83E4B1B78DBB29A463D4B1B78DBB2994631E03B4B1B78DBB29C42B5
:400E800008D83A4B1B78DBB29A46394B1B78DBB2994623E0374B1B78DBB29C4208D8364B1B78DBB29A46354B1B78DBB2994615E0334B1B78DBB29C4208D8324B1B78DBB2F9
:400EC0009A46314B1B78DBB2994607E02F4B1B78DBB29A462E4B1B78DBB299462D4BDE5D2F2E09D92A2C07D919222B4B1A60052000F0B6FC192503E0274B1D683F231D40CD
:400F0000B54206D9234BDA5D234B1A60052000F0A7FC1F4B9C4664442378DBB21F4A13601F4B52461A601F4B4A461A600520FFF77FFFB5420AD2174BDA5D174B1A600520A8
:400F400000F08EFC02E00020FFF720FF019800F095FC03B00CBC91469A46F0BDC0F1FF0FC1F1FF0FC2F1FF0FC3F1FF0FC4F1FF0FC5F1FF0FC6F1FF0FC7F1FF0FC8F1FF0F0C
:400F8000C9F1FF0FCAF1FF0FCBF1FF0FCCF1FF0FCDF1FF0F342100002CFF0B4028FF0B401CFF0B4020FF0B40034A1168034B0B40400218431060704708020440FFF1FFFFD3
:400FC000034A1168034B0B408001184310607047080204403FFEFFFF034A10680423184010608008C0B270471000044010B50B20FFF7B8FE10BDC04610B500F03DF910BD26
:4010000010B500F0D3F810BD10B5054A1368802109060B431360FFF7E9FFFFF7EDFF10BD0000074010B5064B1B78002B04D1FFF7E7FF0122024B1A70FFF7E6FF10BDC04662
:40104000C4010020094B1A68094B1B689A420BD0074B1B680133212B00D10023054AD05CC0B2034A136000E000207047B0020020AC020020B402002010B50B20FFF77CFEA4
:401080000B4B1A680B4B1A6000220B4B1A700B4B1A68802149020A431A601968084A0A401A60084A084B1A600B20FFF75BFE10BDAC020020B0020020A4020020040307404A
:4010C000FFFFFEFFED0F0000C00F0740144B1A68144B1B689A4208D1134B1B680F221340082B02D0114B186019E00D4B1A680132202A00D100220B4B1B689A42FBD0022345
:401100000B490B60C0B20B49885405490A600A4A1268134203D1084A11680B4313607047A8020020A00200200802074040020740800F0740D8020020880F074070B506001D
:401140000D00002403E0305DFFF7C0FF0134AC42F9D370BD10B50B20FFF70EFE0C4B1A680C4B1A600C4A136802218B4313600B4B1A68802149020A431A601968084A0A4084
:401180001A60084A084B1A600B20FFF7EBFD10BDA0020020A8020020880F074004020740FFFFFEFFF3070000800F074010B51C4A1C4B1A6009221C4B1A601C4A1C4B1A60DF
:4011C00007221C4B1A601C4A1C4B1A6004241C4B1C600B20FFF7D0FD03210B20FFF7EAFD18490B20FFF7D4FD0023174A1360174A1360174A1360174A1360174A1460174A7D
:4012000013601168164A1180164A1360164A1360164A1370164A1360164A136010BDC0460F000001000007402000074007030080000307400403074007010080000207401E
:40124000040207408D120000880E0740C80E0740480F0740080F0740C80F0740880F0740CC010020B0020020AC020020A4020020A8020020A0020020024B1A88024B1A60FB
:401280007047C046CC010020880F074010B5274B1B68002B00D09847254B1B685B071DD5244B1B680133212B00D10023224A1268934205D1214B1B682022214B1A7006E0C7
:4012C0001E4A1268D2B21F49CA541A4A13601E4B1B681B07E4D104221C4B1A601C4B1B689B0721D51B4B1A681B4B1B689A4213D0194B1B680133202B00D10023174AD25C66
:40130000D2B217490A60144A1360164B1B680F221340082BE6D104E0134A136802218B4313600222114B1A6010BDC046C8010020CC0F0740B0020020AC020020400307401A
:40134000A4020020B402002008030740C00F07408C0F0740A8020020A0020020D80200204002074008020740880F0740800F0740034A117880235B420B43DBB21370704748
:4013800070000F40014B18707047C04681000F40014B1878C0B2704761000F4010B50100014800F00DFC10BD00000F4010B5034B1B78034800F00EFC10BDC04600000F4027
:4013C00040000F4010B5024800F004FC10BDC04640000F4010B50100014800F0F1FB10BD20000F4010B50100014800F0E9FB10BD30000F4010B501E0FFF7E4FFFFF7C8FF6B
:401400004306F9D410BDC04610B514490B780722934305221343DBB20B700B78032293430B70FFF7E7FF0E4C2000FFF7D3FF2000FFF7B4FF0020FFF7A5FFFFF7A9FF094811
:40144000FFF7D0FF00F016FA074A117810230B43DBB2137000F012FA10BDC04670000F40FEFFFF00FFFFFF0091000F4010B5064B1B78002B04D1FFF7C7FF0122024B1A7076
:40148000FFF776FF10BDC046CE010020034A10684023184010608009C0B2704710020440014B98647047C0460000002010B5040000F0E0F9044A1168044B0B40A4051C43E7
:4014C000146000F0DBF910BD00E400E0FFFF3FFF0422014B1A60704700E100E00422014B1A60704780E100E010B50400FFF7F6FF2000FFF7D5FF0320FFF7D8FFFFF7E8FF34
:4015000010BDC0460422014B1A60704780E200E0014B18647047C0460000002010B5040000F0A8F9044A1368C0218B43A4011C43146000F0A3F910BD00E400E00122014B78
:401540001A60704700E100E00122014B1A60704780E100E010B50400FFF7F6FF2000FFF7D7FF0320FFF7DAFFFFF7E8FF10BDC0460122014B1A60704780E200E004490A68B5
:40158000D2B240239A438001184010430860704700010440014B58647047C0460000002010B5040000F066F9044A1168044B0B40A4031C43146000F061F910BD00E400E024
:4015C000FF3FFFFF0222014B1A60704700E100E00222014B1A60704780E100E010B50400FFF7F6FF2000FFF7D5FF0320FFF7D8FFFFF7E8FF10BDC046024B1868C009012373
:401600001840704704000440034B1868C0B27F2290431860C00970471000044004490A687F231A40C301D8B2104308607047C04600010440034A117880235B420B43DBB29C
:401640001370704772000F40014B18707047C04680000F40014B1878C0B2704760000F40014B18707047C04603000F40014B1878C0B2704743000F40014B18707047C04650
:4016800023000F40014B18707047C04633000F4010B501E0FFF7EAFFFFF7DCFF4306F9D410BDC04610B513490B780722934301221343DBB20B700B78032293430B70FFF753
:4016C000E7FFFE20FFF7D8FF0020FFF7C9FF0020FFF7BAFFFFF7BEFF8020FFF7D3FF00F0C9F8054A117810230B43DBB2137000F0C5F810BD72000F4090000F4010B5064B07
:401700001B78002B04D1FFF7CDFF0122024B1A70FFF790FF10BDC046CF0100200004000C014B18607047C046080105400004000C014B18607047C046140105400004000C38
:40174000014B18607047C0460C01054070B504000D0000F08FF8AC40024B1C6000F08EF870BDC0460800054010B500F083F8064A116801230B43136000F080F8182101209E
:40178000FFF7E4FF10BDC04600000540014B18607047C0463801054010B50022084B1A600432084B1A600220FFF7F0FF0120FFF7BDFF0020FFF7C2FF0020FFF7AFFF10BD40
:4017C000000105402401054010B5064B1B78002B04D1FFF7E1FF0122024B1A70FFF7C4FF10BDC046D0010020014B18607047C046300105408023014AD05070470000002067
:4018000010B5040000F036F8044A1368C0218B43A4011C43146000F031F810BD10E400E080225202014B1A607047C04600E100E080225202014B1A607047C04680E100E023
:4018400010B50400FFF7F4FF2000FFF7D3FF0320FFF7D6FFFFF7E4FF10BDC046000000000230800804D0C0460138FDD1C046C046C0467047EFF3108072B6704780F3108874
:401880007047C04610B5AD4B1B68002B00D09847AB4B1B68DB0702D50022AA4B1A60AA4B1B789B0628D5A94B1B68DB0507D5A84A1188C0239B000B431380012300E0002324
:4018C000A24A1268D20706D5A14A118890239B000B4313800123002B0FD09B4A1278D20701D5012200E002229949088802430A800021954A117000E00023934A12789206E4
:4019000000D414E1914A1268D20611D51022914B1A608D4B1B78DB0701D5012300E002238B4A11880B4313801022874B1A7004E1854A1278120720D5844A126892070AD50E
:401940000222844B1A60824A118888239B000B431380012311E07C4A1278D20703D52521794A117009E02421774A11707A4A1268002A02D01439794A1160734A1278520703
:4019800000D4ABE0704A1278D20749D5744A1268120727D5734A1268734909680F240C40724909686418141B082C09D8002C16D16F4A11686F4B0B401360012308340EE066
:4019C00008240CE0694A11686B48006841186B480068C0B20870116801311160013C002CF0D119E05E4A1268520715D55F4A116861480068411861480068C0B20870116886
:401A0000013111601168574A1268914203D204215B4A116000E001235A495B4A11605DE04A4A1268920726D502224A4B1A6057490B680D321A40096880231B020B4000D0C5
:401A400001239B18524A1168CB1A13601268514B1A603F4A118884239B000B4313804E4B1A68802149020A431A6019684B4A0A401A60012332E04A4A1268D20612D424E09F
:401A8000434A1168344A1268914211D2404A11684448006841180978C9B243480160116801311160394A12680F210A40082AE7D1374A1168284A1268914202D14021274A5F
:401AC00011603A493A4A116008E0354A1268520604D52F4B1A682F4B1A600123002B2CD0234A1168234B0B4013600023314A13601A4A1360304B1B789B070ED5124B1B7833
:401B0000DB0701D5092300E00A23114A11880B43138060220C4B1A700FE0284B1B689B0601D5182200E01022154B1A6005E0064B1B78DB0601D4FFF759F810BDBC0100208A
:401B40008C0E0640880E0640780200200C0F064088020020000F064084020020880F0640CC0F064094020020080306409802002060000640FFFEFFFF8C0200204003064072
:401B800068000640ED0F0000C00F0640080206407C0200208002002004020640FFFFFEFF8C0F06409C02002040020640F3070000800F0640C80F0640900200206400064020
:401BC000CBB203700B0ADBB24370090CC9B281707047C0460378427812021A4383781B041A4310007047C04603460B437FD4002243088B4274D303098B425FD3030A8B4228
:401C000044D3030B8B4228D3030C8B420DD3FF22090212BA030C8B4202D31212090265D0030B8B4219D300E0090AC30B8B4201D3CB03C01A5241830B8B4201D38B03C01AF3
:401C40005241430B8B4201D34B03C01A5241030B8B4201D30B03C01A5241C30A8B4201D3CB02C01A5241830A8B4201D38B02C01A5241430A8B4201D34B02C01A5241030A78
:401C80008B4201D30B02C01A5241CDD2C3098B4201D3CB01C01A524183098B4201D38B01C01A524143098B4201D34B01C01A524103098B4201D30B01C01A5241C3088B423A
:401CC00001D3CB00C01A524183088B4201D38B00C01A524143088B4201D34B00C01A5241411A00D201465241104670475DE0CA0F00D04942031000D34042534000229C468C
:401D000003098B422DD3030A8B4212D3FC22890112BA030A8B420CD3890192118B4208D3890192118B4204D389013AD0921100E08909C3098B4201D3CB01C01A524183095D
:401D40008B4201D38B01C01A524143098B4201D34B01C01A524103098B4201D30B01C01A5241C3088B4201D3CB00C01A524183088B4201D38B00C01A5241D9D243088B4272
:401D800001D34B00C01A5241411A00D20146634652415B10104601D34042002B00D54942704763465B1000D3404201B5002000F005F802BD0029F8D016E770477047C04641
:401DC000014B18687047C046480100200E4B70B500251E000D4CE41AA410A54204D0AB00F35898470135F8E700F0BCF9084B00251E00084CE41AA410A54204D0AB00F3588E
:401E000098470135F8E770BD7021000070210000702100007821000003008218934202D019700133FAE770470000000000300F40000400400F4000048067816F0110030497
:401E4000040205070601070809010B120D060F11151F1B401C011E121FA021182204230327802A082B203010311F3204338034033520360837403E103F014040410249FF49
:401E80004AFF4BFF4DA04F01501852875407580459045A045B045F016040628064406540668068406A806C406D206E80805582AA8C0F8EF0915593AA9496959696699769E5
:401EC0009D339FCCA033A10FA2CCA3F0A4FFAEFFB0FFB5FFB902BE01BF01C040C106C9FFCAFFCBFFCDAFCE07CF01D018D40FD804D904DA04DB04DF01E040E280E440E54007
:401F0000E680E840EA80EC40ED20EE80010805420A020E101312178A1804194A1A1A1B801C401D0220082104229023522602270828282B402F8031803218350A3680399407
:401F40003A01404445024E04581059045A805E065F60610862106604670469946B01738084018C20C094C221C4BACA87CCDECE0FD085D220D6FED866E0420308060C0B06D4
:401F80000C021304140419081E032F0B30013208330834023501360437063E503F0440404106453C4625474E483F49FF4AFF4BFF4DAF4E074F0150185280580459045A0472
:401FC0005B045F016040628064406540668068406A806C406D206E8080028340850E8601871089028B248E048F01910C93229C04A130A202A306AD20AF08B004B140B20279
:40200000B33EB401B701BE05C031C105C552C6C0C70EC81FC9FFCAFFCBFFCDA0CF01D018D80AD904DA04DF01E040E280E440E540E680E840EA50EBA8EC40ED20EE50EFA83E
:40204000008802800440062007200A020E200F011080180819041A801C401E26228924102580262027022B412C0133013620370239943B023C023D204010414045024840E0
:4020800049084A024B024E044F055080514852105625574164106508740179088004911C92089684970498019B019C109D049E159F20A004A112A202A588A609A740A910F0
:4020C000B408C0ADC2A1C408CA19CCA1CEAFD08AD228DE02E401E84102020380050207010E086E0887018D02C0F0C280DA80E040AA02B780E88051105C025F808510D4047E
:40210000D60580029C02AB800101100102000F4068300F4037310F4063320F404C330F400C400F4003410F4006420F4003430F4002600F40030405060708090A0B0C0E0F52
:40214000101112131415161718191B1C1D1E1F2021222325262728292A2B2E2F3031323334354300F8B5C046F8BC08BC9E467047590200009D0A0000F8B5C046F8BC08BCA1
:402180009E4670473102000098210000C000002090000000A801000000000000010000000A0000001400000005000000010000000000C05D80BB000030000000006CDC0288
:4021C000000000000000000000000000000000000000000000000000000000000000000062210000000000000000000000000000000000000000000000000000000000005C
:402200000000000000000000000000000000000000000000000000000000000000000000E80000200000000000000000000000000000000000000000000000000000000096
:40224000000000000000000000000000000000000000000000000000000000000000000000000000000000000000000000000000000000000000000000000000000000005E
:40228000000000000000000000000000000000000000000000000000000000000000000000000000000000000000000000000000000000000000000000000000000000001E
:4022C00000000000000000000000000000000000000000000000000000000000000000000000000000000000000000000000000000000000000000000000000000000000DE
:40230000000000000000000000000000000000000000000000000000000000000000000000000000000000000000000000000000000000000000000000000000000000009D
:0200000490303A
:02000000CC50E2
:0200000490402A
:200000000000000000000000000000000000000000000000000000000000000000000000E0
:0200000490501A
:0C000000000204FB119311010505DDE373
:0200000490600A
:0100000001FE
:00000001FF