:400000000010002011000000290B0000290B000010B500F091FDC04670B5174C23688025ED022B432360302000F07EFF134A144B1A603022134B1A60203A134B1A600132B4
:40004000124B1A602023124A1360124A136080231B06114A13602560104A1360104A114B1A60114A114B1A60114A124B1A600022114B1A6070BDC04600010B400600008054
:4000800004010B40080202400C02024020020240280202403002024008010B400000024001000080400002401D000080800002407F250080040002400C020B4010B572B668
:4000C0000122394B1A7000240FE038486200131959000B00411889881A5AC31858880004104300F01BFD0134E4B2012CEDD92F490C312F48643000F0F7FC2E4A2E4B1A6086
:4001000008222E4B1A602E4A2E4B1A60EE2212022D4B1A60EE222D4B1A6099231B042C4A13602C4A13602C4A13602C492C4A11602C4A136002232C4A13602C4A13602C49D8
:400140000B783C22934314221343DBB20B70294A117816230B43DBB213702C22264B1A60264A274B1A602022264B1A601F3A264B1A60264A264B1A601C22264B1A60264AA7
:40018000264B1A6080229201254B1A60D8221201244B1A600322244B1A602132234B1A60FFF73AFF10BDC0461C700F401C1F00009C2100000000FFFF00000140040001409D
:4001C00000330300080001400C0001401000014000500F4010500F4020500F400000350128500F4030500F402000004000800F4001700F4000700F40000004408914270053
:40020000080004400C000440000104400600D8000801044000020440806D0400080204400C02044008030440000404400804044010B5064C2378002B07D1054B002B02D0F2
:40024000044800E000BF0123237010BD4001002000000000181F0000084B10B5002B03D00749084800E000BF07480368002B00D110BD064B002BFBD09847F9E70000000099
:4002800044010020181F0000C00000200000000010B501F0A9F901F06BF9002001F0F0F8002001F04FFA0122014B1A7010BDC046C400002010B501F0CDF900F0FFFE002089
:4002C00001F0DEF80022014B1A7010BDC400002010B501F00BFA01F001FA00281DD00F4B1A685B680E4B1A600E4B1B78012B14D11F2200210C4801F007FE002404E000F0BF
:4003000013FF0A4B185501341E2CF8D900F026FF00F092FF0022034B1A7010BD60010020DC0100202A020020E80100202C020020002803D10022044B1A7003E0024A13786A
:40034000834313707047C046D801002010B5C8239B009C46604400F015FD10BD10B501F097F80B4B98609A680A4B9A4206D9084A936809498C466344D36002E0044B9A68BB
:40038000DA60034BD968054A1160D86810BDC04660010020FFFFEF00010000FFD401002070B59B4B1B68DB0700D52FE1994B1B78002B00D02AE1984B58789C781F2800D985
:4003C0001F200022002305E09349C95C5218D2B20133DBB29842F7D8002A09D08F4B5C711F221A718E4A138801339BB21380A1E0631EDBB2022B00D99CE0022C2CD0032CD4
:400400007CD0012C00D095E0FFF7A8FF854B18601968854A11601A68844B1A600023844A1370844A1370844A13707B4B197C5A7C12020A4381490A80997CDA7C12020A43C5
:400440007F490A8002217F4A1170DA787E4B1A700020FFF76DFF6DE06F48C3785A1E9341744A13700379427912021A4383791B0413431A00C3791B0613436B4A12689342E0
:4004800036D0724B01221A749869D9691862FFF765FF644C206060480379427912021A4383791B0413431A00C3791B0613435E4D2B6022685D4B1A60002001F043F92B6831
:4004C00022689B1A00D55B42322B0BDDDA170F210A40D3181B110D33FA22920053435C4A136002E000225A4B1A600022594B1A60494B08229A56504B1A701BE0464C21798A
:4005000063791B020B431A00A079000403001343E0790006184300F0B3FF2379627912021A43A3791B0413431A00E3791B0613433C4A1360FFF712FF47490860374B002286
:400540001A705A7002329A700120D8701E3018715A713C4A12789A71404A1278DA71304A128892B25A72120A9A72374A12781A720A685A73100A9873100CD873120E1A7408
:40058000374A126892B25A74120A9A74314A1078D8745078187590785875D2789A75314A1288DA72120A1A73284A2420105CD8752520105C18762620105C58762720125C45
:4005C0009A76234A19001078D87653780B7793784B77D3788B770022002305E00F49C95C5218D2B20133DBB21E2BF7D90B48524202701F2100F014FE0122064B1A70064BCF
:400600005B7A002B02D00020FFF792FE70BDC046240007402A0200202C020020E80100202602002054020020D001002020020020E0010020CC010020240200204E0200206C
:4006400028020020500200202B020020600100205C02002058020020D4010020D8010020E40100204C02002010B5FFF777FE064B18601A68054B1A601A68054B1A600022E4
:40068000044B1A6010BDC046D401002054020020200200205802002010B5441E63425C41E4B2012806D12823044AD35C002B01D1FFF7DAFF2823014AD45410BD60010020D8
:4006C00010B54D4B1B68013300244C4A10685168002903D1A1420AD1984208D90020FFF735FE0023464A1370464A137083E0464B1B78022B7CD1062000F0D4FC062000F0F6
:40070000C5FC424B1B78002B07D13D4A1278002A03D00120FFF7C0FF08E0394A1278002A04D1002B02D00020FFF7B6FF344B1B78364A1370002B51D0354B1B78002B04D1C1
:40074000344B1A68344B1A6016E0334A1168314A10680A1AD417121962405C00A24202DC2D4B186008E0814203DACB182A4A136002E0CB1A284A1360FFF7F0FD274B1860EB
:400780001968254B186800F04BF9254B18601868FFF7DCFD194B1B7C002B2CD01F4B1A681C4B1B689A4215D1144B5B8D1E2B07D1124BDA6A196A521A5A6200221A741AE045
:4007C00001339BB20D4A5385012B14D19069D169D06210E00022094B5A850CE0094B1B785BB2DB000E4A13601068FFF7AFFD02E00020FFF7ABFD10BDDC0100206001002003
:40080000CC0100202402002050020020E0010020E1010020D001002020020020D4010020E401002070B5022001F050F8012000F067FF2A4B9C69DD69C820002124184D4159
:400840009C61DD611C6B5D6B0019694118635963196B5A6B002A04D116D1FA239B00994212D91E4B00200021186359639C6BDD6B0120002124184D419C63DD631C6C5D6C7B
:400880000019694118645964144B196C5A6C002A04D110D1FA239B0099420CD90F4B00200021186459641C685D68012000210019694118605960094A936C01339364DA0789
:4008C00002D5FFF7FDFE05E09A0703D45B0701D5FFF766FD002000F013FF70BD6001002070B5012000F0DEFB012000F0CFFB00F0DDFF384801F016F8022000F0F3FF3648BB
:4009000000F09AFE032000F07BFE344800F05EFE032000F03DFE324800F0D2FE032000F0B1FE62B600F062F9642000F0DBFA00F0EBFB00F079FAC820C00000F01BFA0020DF
:40094000FFF704FD0024274B1C70274B1C7000F0FFFD264D280000F093FD254B1D6000F03FFF002000F0EEFE0122224B1A70224B1C70224B1C80FFF777FE0020FFF78CFE1B
:40098000C8239B001E4A13801E4A13801E4B1C601E4B1C60FA221E4B1A701E4B00221A701D4B1A700020FFF7D1FC012000F0C8FF1A4B1A685B680123134203D0012000F019
:4009C0004FFE02E0002000F04BFE0A2000F08AFAEEE7C04625080000B502000091020000D102000024020020C4000020FFFFFF0054020020500200202B0200202602002008
:400A00004E02002028020020D001002020020020E1010020E0010020CC0100206001002010B586B00C002A4B03932A4B0293401A0590294B1B68002B07DD913BFF3B264AD1
:400A400013600022254B1A6007E0059A64235343224A11688C4663441360204B1B68039A934203DD039A1D4B1A6007E0039A5242934203DA039B5B42184A1360184B1B6804
:400A8000E31A0193059A174B5343144A12689B18059A049A0093009A029B9A4202DD029B009307E0029B5B42009A934202DD029B5B4200930098FA21890001F00DF9009092
:400AC000074B1C60059B0493009806B010BDC04690D00300801A06005C02002058020020AC01002010270000F0B50025002711E0BB00C658F3B2FF22964308E06A008A1883
:400B00001478A419527822700135013BDBB2002BF4D10137092FEBD9F0BDC04610B50A00002101F0F1F910BD10B501F0C1F903680C2B00D1FEE7FEE770B50F4E0F4D13E024
:400B400029686B68AC68002202E001C901C30432A242FAD1E868002202E0002102C304328242FAD11035013E002EE9D101F0A6F9FFF7B6FEFEE7C046010000007C22000057
:400B800010B500230AE0032B03D89A000949505800E009489900094A885001332F2BF2D9FFF78CFA8022D205116801230B43136010BDC04600000000290B000000000020FE
:400BC00010B50A2000F040F910BDC04610B500F01DF810BD10B5044A1368802109060B431360FFF7EDFF10BD0000064010B5064B1B78002B04D1FFF7E9FF0122024B1A70FE
:400C0000FFF7E8FF10BDC046B001002010B51B4A11680C230B4313600024194B1C60194A194B1A60194B1A4A13601A4A14601A4A14601A4A13601A4B1C600A2000F00EF997
:400C400003210A2000F028F916490A2000F012F9154B1C60154B1C60154B1C60154B1C60154B1C60154B1C601022154B1A70154B1C80154B1C60154B1C6010BD7000064016
:400C800000000640770800806000064007010080000306400403064010030640000206400402064075190000C80E0640880E0640480F0640080F0640C80F0640880F0640C4
:400CC0006002002070020020800200206802002010B5144A13685B005B081360002312490B6012490B601248046812492140016011490B6011490B601149124B196012493E
:400D0000124B19601249134B19601349134B19601021134B19701368802109060B43136010BDC04600000640680006406C00064060000640FF5CFFFF880F0640C80F064002
:400D4000F3070000800F0640ED0F0000C00F0640FF0F0000400F064017030000000F0640600200200004000C014B18607047C046880105400004000C014B18607047C0460F
:400D8000940105400004000C014B18607047C0468C01054070B504000D0000F0E3FDAC40024B1C6000F0E2FD70BDC0460800054010B500F0D7FD064A116804230B431360B2
:400DC00000F0D4FD18210420FFF7E4FF10BDC04600000540014B18607047C046B801054010B50E4C8023DB042360236823600020FFF7B8FF236823600C22094B1A6001203B
:400E0000FFF7E8FF3122074B1A60C820C000FFF7B1FFC8208000FFF7B5FF10BD80010540A4010540A801054010B5064B1B78002B04D1FFF7D5FF0122024B1A70FFF7B8FFD1
:400E400010BDC046B80100201F2318401E3B8340014A13607047C04600E100E01F2318401E3B8340014A13607047C04680E100E001BE704770B504000D001F2802D9002074
:400E8000FFF7F6FF1034A40080239B059C4664442068256070BDC04670B504000E00032902D90020FFF7E4FF1F2C02D90020FFF7DFFF03252540ED00063500F053FDA40860
:400EC000A400074B9C46644421680323AB4099430B003100A9401943216000F047FD70BD00E400E010B5040006E0084B586800F02FFD074B9C46644480231B029C42F4D8B1
:400F0000024B9868604300F023FD10BDC80000200080FFFF10B5034B1B7B584300F018FD10BDC046C8000020F0B557464E46C0B483B0040000F016FD0190E71E2D2F74D8B8
:400F40003F4B1B78DBB29C4208D83E4B1B78DBB29A463D4B1B78DBB2994631E03B4B1B78DBB29C4208D83A4B1B78DBB29A46394B1B78DBB2994623E0374B1B78DBB29C42F9
:400F800008D8364B1B78DBB29A46354B1B78DBB2994615E0334B1B78DBB29C4208D8324B1B78DBB29A46314B1B78DBB2994607E02F4B1B78DBB29A462E4B1B78DBB299462F
:400FC0002D4BDE5D2F2E09D92A2C07D919222B4B1A60052000F0BCFC192503E0274B1D683F231D40B54206D9234BDA5D234B1A60052000F0ADFC1F4B9C4664442378DBB2BD
:401000001F4A13601F4B52461A601F4B4A461A600520FFF77FFFB5420AD2174BDA5D174B1A60052000F094FC02E00020FFF720FF019800F09BFC03B00CBC91469A46F0BD48
:40104000C0F1FF0FC1F1FF0FC2F1FF0FC3F1FF0FC4F1FF0FC5F1FF0FC6F1FF0FC7F1FF0FC8F1FF0FC9F1FF0FCAF1FF0FCBF1FF0FCCF1FF0FCDF1FF0F282200002CFF0B40E3
:4010800028FF0B401CFF0B4020FF0B40034A1168034B0B40400218431060704708020440FFF1FFFF034A1168034B0B408001184310607047080204403FFEFFFF034A1068DF
:4010C0000423184010608008C0B270471000044010B50B20FFF7B8FE10BDC04610B500F03DF910BD10B500F0D3F810BD10B5054A1368802109060B431360FFF7E9FFFFF7B4
:40110000EDFF10BD0000074010B5064B1B78002B04D1FFF7E7FF0122024B1A70FFF7E6FF10BDC046BC010020094B1A68094B1B689A420BD0074B1B680133212B00D10023F8
:40114000054AD05CC0B2034A136000E00020704798020020940200209C02002010B50B20FFF77CFE0B4B1A680B4B1A6000220B4B1A700B4B1A68802149020A431A601968C7
:40118000084A0A401A60084A084B1A600B20FFF75BFE10BD94020020980200208C02002004030740FFFFFEFFED0F0000C00F0740144B1A68144B1B689A4208D1134B1B68E1
:4011C0000F221340082B02D0114B186019E00D4B1A680132202A00D100220B4B1B689A42FBD002230B490B60C0B20B49885405490A600A4A1268134203D1084A11680B4381
:401200001360704790020020880200200802074040020740800F0740C0020020880F074070B506000D00002403E0305DFFF7C0FF0134AC42F9D370BD10B50B20FFF70EFE29
:401240000C4B1A680C4B1A600C4A136802218B4313600B4B1A68802149020A431A601968084A0A401A60084A084B1A600B20FFF7EBFD10BD8802002090020020880F07403E
:4012800004020740FFFFFEFFF3070000800F074010B51C4A1C4B1A6009221C4B1A601C4A1C4B1A6007221C4B1A601C4A1C4B1A6004241C4B1C600B20FFF7D0FD03210B201E
:4012C000FFF7EAFD18490B20FFF7D4FD0023174A1360174A1360174A1360174A1360174A1460174A13601168164A1180164A1360164A1360164A1370164A1360164A136009
:4013000010BDC0460F000001000007402000074007030080000307400403074007010080000207400402074071130000880E0740C80E0740480F0740080F0740C80F074044
:40134000880F0740C401002098020020940200208C0200209002002088020020024B1A88024B1A607047C046C4010020880F074010B5274B1B68002B00D09847254B1B6873
:401380005B071DD5244B1B680133212B00D10023224A1268934205D1214B1B682022214B1A7006E01E4A1268D2B21F49CA541A4A13601E4B1B681B07E4D104221C4B1A6048
:4013C0001C4B1B689B0721D51B4B1A681B4B1B689A4213D0194B1B680133202B00D10023174AD25CD2B217490A60144A1360164B1B680F221340082BE6D104E0134A1368C5
:4014000002218B4313600222114B1A6010BDC046C0010020CC0F07409802002094020020400307408C0200209C02002008030740C00F07408C0F074090020020880200206C
:40144000C00200204002074008020740880F0740800F0740034A117880235B420B43DBB21370704770000F40014B18707047C04681000F40014B1878C0B2704761000F40FC
:4014800010B50100014800F013FC10BD00000F4010B5034B1B78034800F014FC10BDC04600000F4040000F4010B5024800F00AFC10BDC04640000F4010B50100014800F0FA
:4014C000F7FB10BD20000F4010B50100014800F0EFFB10BD30000F4010B501E0FFF7E4FFFFF7C8FF4306F9D410BDC04610B514490B780722934305221343DBB20B700B78B8
:40150000032293430B70FFF7E7FF0E4C2000FFF7D3FF2000FFF7B4FF0020FFF7A5FFFFF7A9FF0948FFF7D0FF00F01CFA074A117810230B43DBB2137000F018FA10BDC0469A
:4015400070000F40FEFFFF00FFFFFF0091000F4010B5064B1B78002B04D1FFF7C7FF0122024B1A70FFF776FF10BDC046C6010020034A10684023184010608009C0B27047AD
:4015800010020440014B98647047C0460000002010B5040000F0E6F9044A1168044B0B40A4051C43146000F0E1F910BD00E400E0FFFF3FFF0422014B1A60704700E100E040
:4015C0000422014B1A60704780E100E010B50400FFF7F6FF2000FFF7D5FF0320FFF7D8FFFFF7E8FF10BDC0460422014B1A60704780E200E0014B18647047C046000000203F
:4016000010B5040000F0AEF9044A1368C0218B43A4011C43146000F0A9F910BD00E400E00122014B1A60704700E100E00122014B1A60704780E100E010B50400FFF7F6FF41
:401640002000FFF7D7FF0320FFF7DAFFFFF7E8FF10BDC0460122014B1A60704780E200E004490A68D2B240239A438001184010430860704700010440014B58647047C04622
:401680000000002010B5040000F06CF9044A1168044B0B40A4031C43146000F067F910BD00E400E0FF3FFFFF0222014B1A60704700E100E00222014B1A60704780E100E0B0
:4016C00010B50400FFF7F6FF2000FFF7D5FF0320FFF7D8FFFFF7E8FF10BDC046024B1868C00901231840704704000440034B1868C0B27F2290431860C0097047100004409B
:4017000004490A687F231A40C301D8B2104308607047C04600010440034A117880235B420B43DBB21370704772000F40014B18707047C04683000F40014B1878C0B270478F
:4017400063000F40014B18707047C04603000F40014B1878C0B2704743000F40014B18707047C04623000F40014B18707047C04633000F4010B501E0FFF7EAFFFFF7DCFFD1
:401780004306F9D410BDC04610B513490B780722934301221343DBB20B700B78032293430B70FFF7E7FFFE20FFF7D8FF0020FFF7C9FF0020FFF7BAFFFFF7BEFF8020FFF766
:4017C000D3FF00F0CFF8054A117810230B43DBB2137000F0CBF810BD72000F4093000F4010B5064B1B78002B04D1FFF7CDFF0122024B1A70FFF790FF10BDC046C70100202F
:401800000004000C014B18607047C046080105400004000C014B18607047C046140105400004000C014B18607047C0460C01054070B504000D0000F095F8AC40024B1C6093
:4018400000F094F870BDC0460800054010B500F089F8064A116801230B43136000F086F818210120FFF7E4FF10BDC04600000540014B18607047C0463801054010B50022E9
:40188000084B1A600432084B1A600220FFF7F0FF0120FFF7BDFF0020FFF7C2FF0020FFF7AFFF10BD000105402401054010B5064B1B78002B04D1FFF7E1FF0122024B1A70ED
:4018C000FFF7C4FF10BDC046C8010020014B18607047C046300105408023014AD05070470000002010B5040000F03CF8044A1368C0218B43A4011C43146000F037F810BDCE
:4019000010E400E080225202014B1A607047C04600E100E080225202014B1A607047C04680E100E010B50400FFF7F4FF2000FFF7D3FF0320FFF7D6FFFFF7E4FF10BDC046AB
:40194000014B18707047C04671000F40000000000230800804D0C0460138FDD1C046C046C0467047EFF3108072B6704780F310887047C04610B5AD4B1B68002B00D098477F
:40198000AB4B1B68DB0702D50022AA4B1A60AA4B1B789B0628D5A94B1B68DB0507D5A84A1188C0239B000B431380012300E00023A24A1268D20706D5A14A118890239B000E
:4019C0000B4313800123002B0FD09B4A1278D20701D5012200E002229949088802430A800021954A117000E00023934A1278920600D414E1914A1268D20611D51022914BE5
:401A00001A608D4B1B78DB0701D5012300E002238B4A11880B4313801022874B1A7004E1854A1278120720D5844A126892070AD50222844B1A60824A118888239B000B4391
:401A40001380012311E07C4A1278D20703D52521794A117009E02421774A11707A4A1268002A02D01439794A1160734A1278520700D4ABE0704A1278D20749D5744A126896
:401A8000120727D5734A1268734909680F240C40724909686418141B082C09D8002C16D16F4A11686F4B0B401360012308340EE008240CE0694A11686B48006841186B48CC
:401AC0000068C0B20870116801311160013C002CF0D119E05E4A1268520715D55F4A116861480068411861480068C0B208701168013111601168574A1268914203D20421EC
:401B00005B4A116000E001235A495B4A11605DE04A4A1268920726D502224A4B1A6057490B680D321A40096880231B020B4000D001239B18524A1168CB1A13601268514B6E
:401B40001A603F4A118884239B000B4313804E4B1A68802149020A431A6019684B4A0A401A60012332E04A4A1268D20612D424E0434A1168344A1268914211D2404A116841
:401B80004448006841180978C9B243480160116801311160394A12680F210A40082AE7D1374A1168284A1268914202D14021274A11603A493A4A116008E0354A12685206F3
:401BC00004D52F4B1A682F4B1A600123002B2CD0234A1168234B0B4013600023314A13601A4A1360304B1B789B070ED5124B1B78DB0701D5092300E00A23114A11880B4321
:401C0000138060220C4B1A700FE0284B1B689B0601D5182200E01022154B1A6005E0064B1B78DB0601D4FFF753F810BDB40100208C0E0640880E0640600200200C0F06402B
:401C400070020020000F06406C020020880F0640CC0F06407C020020080306408002002060000640FFFEFFFF740200204003064068000640ED0F0000C00F06400802064091
:401C8000640200206802002004020640FFFFFEFF8C0F06408402002040020640F3070000800F0640C80F06407802002064000640CBB203700B0ADBB24370090CC9B28170C8
:401CC0007047C0460378427812021A4383781B041A4310007047C04603460B437FD4002243088B4274D303098B425FD3030A8B4244D3030B8B4228D3030C8B420DD3FF2223
:401D0000090212BA030C8B4202D31212090265D0030B8B4219D300E0090AC30B8B4201D3CB03C01A5241830B8B4201D38B03C01A5241430B8B4201D34B03C01A5241030B71
:401D40008B4201D30B03C01A5241C30A8B4201D3CB02C01A5241830A8B4201D38B02C01A5241430A8B4201D34B02C01A5241030A8B4201D30B02C01A5241CDD2C3098B426F
:401D800001D3CB01C01A524183098B4201D38B01C01A524143098B4201D34B01C01A524103098B4201D30B01C01A5241C3088B4201D3CB00C01A524183088B4201D38B00C9
:401DC000C01A524143088B4201D34B00C01A5241411A00D201465241104670475DE0CA0F00D04942031000D34042534000229C4603098B422DD3030A8B4212D3FC2289010E
:401E000012BA030A8B420CD3890192118B4208D3890192118B4204D389013AD0921100E08909C3098B4201D3CB01C01A524183098B4201D38B01C01A524143098B4201D315
:401E40004B01C01A524103098B4201D30B01C01A5241C3088B4201D3CB00C01A524183088B4201D38B00C01A5241D9D243088B4201D34B00C01A5241411A00D2014663464F
:401E800052415B10104601D34042002B00D54942704763465B1000D3404201B5002000F005F802BD0029F8D016E770477047C046014B18687047C0463C0100200E4B70B585
:401EC00000251E000D4CE41AA410A54204D0AB00F35898470135F8E700F0BEF9084B00251E00084CE41AA410A54204D0AB00F35898470135F8E770BD6422000064220000CE
:401F0000642200006C22000003008218934202D019700133FAE770470000000000300F40000400400F400004816F836703FF0A200C180E03101F15961680176919551BAA80
:401F40001DFF1E402010220424072608280129332A122BCC2C062D0F2E112FF0301F32203480364037FF39023E013F414010410549FF4AFF4BFF4DA04F015018528758046E
:401F800059045A045B045F016040628064406540668068406A806C406D206E808405860A8E6095969620976999339A409BCC9C039D0F9E1C9FF0A555A7AAAC06AE09B02030
:401FC000B240B410B60FB7FFBE40C040C101C9FFCAFFCBFFCDAFCE07CF01D018D201D40FD610D804D904DA04DB04DF01E040E280E440E540E680E840EA80EC40ED20EE8030
:402000000120020104800504090A0B020E050F20102A1240154019641A411C021D981F23200121012302268029602F20311432803564380240014580470248015E4A5F2050
:4020400066086704682A69046B016D4070018401C0A3C2EDC48FCA4CCC7ECE01D098D208D6F0D860E0020302060C0C0213081404170319081E032F0D3001310332083308F9
:402080003402350436043E503F0440404101453C4624475E483F49FF4AFF4BFF4DAF4E074F0150185280580459045A045B045F016040628064406540668068406A806C4052
:4020C0006D206E808301851C87208F029002911893449504960197489E04A160A202A30CA804AD40AF10B004B17CB202B301B401B702BE05C031C104C552C6C0C70EC81F10
:40210000C9FFCAFFCBFFCDA0CF01D018D407D808D904DA04DB04DF01E040E280E440E540E680E840EA50EBA8EC40ED20EE50EFA804400620072009080A800B010E200F023F
:4021400010801208180819041A401C401E2A210222482490250126202A412C013008330134083501362039843B013D02401041414580470249084B014F0650805140521430
:402180005669581059045A4062146410650875017B02800491069480970498099B039E499F20A008A188A302A502A605AB10AE04B408C0A0C2ADC40ACA19CCE3CE8BD09B24
:4021C000D60ED806DE08E401E8400140021007410E086E088701C0F0C280DA80E040AB40AE10B540E840EC80511056025C028510D404D60580029C02B602E80201011001A9
:4022000002000F406A300F4033310F4065320F404D330F400A400F4005410F4006420F4004430F4002600F40030405060708090A0B0C0E0F101112131415161718191B1C84
:402240001D1E1F2021222325262728292A2B2E2F3031323334354300F8B5C046F8BC08BC9E46704759020000810B0000F8B5C046F8BC08BC9E46704731020000902200003F
:40228000C000002080000000A0010000000000000000000001000000010000000000C05D80BB000030000000006CDC02000000000000000000000000000000000000000049
:4022C0000000000000000000000000005622000000000000000000000000000000000000000000000000000000000000000000000000000000000000000000000000000066
:40230000000000000000000000000000DC000020000000000000000000000000000000000000000000000000000000000000000000000000000000000000000000000000A1
:40234000000000000000000000000000000000000000000000000000000000000000000000000000000000000000000000000000000000000000000000000000000000005D
:40238000000000000000000000000000000000000000000000000000000000000000000000000000000000000000000000000000000000000000000000000000000000001D
:4023C00000000000000000000000000000000000000000000000000000000000000000000000000000000000000000000000000000000000000000000000000000000000DD
:40240000000000000000000000000000000000000000000000000000000000000000000000000000000000000000000000000000000000000000000000000000000000009C
:0200000490303A
:020000001ECC14
:0200000490402A
:200000000000000000000000000000000000000000000000000000000000000000000000E0
:0200000490501A
:0C000000000204FB119311010506305FA3
:0200000490600A
:0100000001FE
:00000001FF