:400000000010002011000000110C0000110C000010B500F005FEC04670B5174C23688025ED022B432360302001F088F9134A144B1A603022134B1A60203A134B1A60013268
:40004000124B1A602023124A1360124A136080231B06114A13602560104A1360104A114B1A60114A114B1A60114A124B1A600022114B1A6070BDC04600010B400600008054
:4000800004010B40080202400C02024020020240280202403002024008010B400000024001000080400002401D000080800002407F250080040002400C020B4010B572B668
:4000C0000122394B1A7000240FE038486200131959000B00411889881A5AC31858880004104300F08FFD0134E4B2012CEDD92F490C312F48643000F06BFD2E4A2E4B1A609D
:4001000008222E4B1A602E4A2E4B1A60EE2212022D4B1A60EE222D4B1A6099231B042C4A13602C4A13602C4A13602C492C4A11602C4A136002232C4A13602C4A13602C49D8
:400140000B783C22934314221343DBB20B70294A117816230B43DBB213702C22264B1A60264A274B1A602022264B1A601F3A264B1A60264A264B1A601C22264B1A60264AA7
:40018000264B1A6080229201254B1A60D8221201244B1A600322244B1A602132234B1A60FFF73AFF10BDC0461C700F402C230000AC2500000000FFFF000001400400014075
:4001C00000330300080001400C0001401000014000500F4010500F4020500F400000350128500F4030500F402000004000800F4001700F4000700F40000004408914270053
:40020000080004400C000440000104400600D8000801044000020440806D0400080204400C02044008030440000404400804044010B5064C2378002B07D1054B002B02D0F2
:40024000044800E000BF0123237010BD500100200000000028230000084B10B5002B03D00749084800E000BF07480368002B00D110BD064B002BFBD09847F9E70000000075
:400280005401002028230000C00000200000000010B501F0B3FB01F075FB002001F0FAFA002001F059FC0122014B1A7010BDC046C400002010B501F0D7FB01F009F9002023
:4002C00001F0E8FA0022014B1A7010BDC400002010B501F015FC01F00BFC00281DD00F4B1A685B680E4B1A600E4B1B78012B14D11F2200210C4802F00FF8002404E001F097
:400300001DF90A4B185501341E2CF8D901F030F901F09CF90022034B1A7010BD70010020F8010020460200200402002048020020002803D10022044B1A7003E0024A1378DB
:40034000834313707047C046F401002010B5402000F0C4FB014B188010BDC0466802002010B5C8239B009C46604400F0F9FE10BD10B501F097FA0B4B98609A680A4B9A4200
:4003800006D9084A936809498C466344D36002E0044B9A68DA60034BD968054A1160D86810BDC04670010020FFFFEF00010000FFF001002070B59A4B1B68DB0700D52EE162
:4003C000984B1B78002B00D029E1974B58789C781F2800D91F200022002305E09249C95C5218D2B20133DBB29842F7D8002A09D08E4B5C711F221A718D4A138801339BB273
:400400001380A1E0631EDBB2022B00D99CE0022C2CD0032C7CD0012C00D095E0FFF7A8FF844B18601968844A11601A68834B1A600023834A1370834A1370834A13707A4BBB
:40044000197C5A7C12020A4380490A80997CDA7C12020A437E490A8002217E4A1170DA787D4B1A700020FFF763FF6DE06E48C3785A1E9341734A13700379427912021A4346
:4004800083791B0413431A00C3791B0613436A4A1268934236D0714B01221A749869D9691862FFF765FF634C20605F480379427912021A4383791B0413431A00C3791B060B
:4004C00013435D4D2B6022685C4B1A60002001F043FB2B6822689B1A00D55B42322B0BDDDA170F210A40D3181B110D33FA22920053435B4A136002E00022594B1A6000228C
:40050000584B1A60484B08229A564F4B1A701BE0454C217963791B020B431A00A079000403001343E0790006184301F0B3F92379627912021A43A3791B0413431A00E3798A
:400540001B0613433B4A1360FFF712FF46490860364B00221A705A7002329A70DA701F2018715A713B4A12789A71404A1278DA712F4A128892B25A72120A9A72364A12782E
:400580001A720A685A73100A9873100CD873120E1A74374A126892B25A74120A9A74314A1078D8745078187590785875D2789A75304A1288DA72120A1A73284A2420105C02
:4005C000D8752520105C18762620105C58762720125C9A76224A19001078D87653780B7793784B77D3788B770022002305E00F49C95C5218D2B20133DBB21E2BF7D90B48A6
:40060000524202701F2101F015F80122054B1A70054B5B7A002B02D00020FFF789FE70BD240007404602002048020020040200204202002070020020EC0100203C020020C9
:40064000FC010020E8010020400200206A020020440200206C02002047020020700100207802002074020020F0010020F4010020000200206802002010B5FFF779FE064BF3
:4006800018601A68054B1A601A68054B1A600022044B1A6010BDC046F0010020700200203C0200207402002010B5441E63425C41E4B2012806D12823044AD35C002B01D111
:4006C000FFF7DAFF2823014AD45410BD7001002010B54D4B1B68013300244C4A10685168002903D1A1420AD1984208D90020FFF737FE0023464A1370464A137083E0464B12
:400700001B78022B7CD1062000F0D6FE062000F0C7FE424B1B78002B07D13D4A1278002A03D00120FFF7C0FF08E0394A1278002A04D1002B02D00020FFF7B6FF344B1B7812
:40074000364A1370002B51D0354B1B78002B04D1344B1A68344B1A6016E0334A1168314A10680A1AD417121962405C00A24202DC2D4B186008E0814203DACB182A4A136002
:4007800002E0CB1A284A1360FFF7F2FD274B18601968254B186800F0C1F9254B18601868FFF7DEFD194B1B7C002B2CD01F4B1A681C4B1B689A4215D1144B5B8D1E2B07D148
:4007C000124BDA6A196A521A5A6200221A741AE001339BB20D4A5385012B14D19069D169D06210E00022094B5A850CE0094B1B785BB2DB000E4A13601068FFF7B1FD02E014
:400800000020FFF7ADFD10BDF801002070010020E8010020400200206C020020FC010020FD010020EC0100203C020020F00100200002002070B5022001F052FA012001F019
:4008400069F92A4B9C69DD69C820002124184D419C61DD611C6B5D6B0019694118635963196B5A6B002A04D116D1FA239B00994212D91E4B00200021186359639C6BDD6B22
:400880000120002124184D419C63DD631C6C5D6C0019694118645964144B196C5A6C002A04D110D1FA239B0099420CD90F4B00200021186459641C685D6801200021001926
:4008C000694118605960094A936C01339364DA0702D5FFF7FDFE05E09A0703D45B0701D5FFF768FD002001F015F970BD7001002070B5012000F0E0FD012000F0D1FD01F047
:40090000DFF9394801F018FA022001F0F5F9374801F09CF8032001F07DF8354801F060F8032001F03FF8334801F0D4F8032001F0B3F862B600F0CEF9642000F0DDFC00F0B9
:40094000EDFD00F05FFCC820C00000F001FC0020FFF706FD0024284B1C70284B1C7001F001F8274D280000F095FF264B1D6001F041F9002001F0F0F80122234B1A70234BCD
:400980001C70234B1C80FFF777FE0020FFF78CFEC8239B001F4A13801F4A13801F4B1C601F4B1C60FA221F4B1A701F4B00221A701E4B1A700020FFF7D3FC002001F0CAF97A
:4009C000FFF7C4FC1A4B1A685B680123134203D0012001F04FF802E0002001F04BF80A2000F08AFCECE7C04635080000B502000091020000D102000040020020C4000020A3
:400A0000FFFFFF00700200206C02002047020020420200206A02002044020020EC0100203C020020FD010020FC010020E80100207001002010B50C4B18680C4904C90023B9
:400A400000F07EFA040000F001FA8307FBD5042C01D0082C03D1054B00221A715A710022024B1A60200010BDC8000020BC01002010B5044B187159719A7103221A60FFF752
:400A8000D9FF10BDBC01002010B50B4900230B714B71023308C1094B18680023022200F0CBFA040000F0D2F98307FBD50022024B1A60200010BDC046BC010020C8000020B8
:400AC00010B5054B187101221A60FFF7B3FF002801D1FFF7D9FF10BDBC01002010B50D4B18605A68110AC9B2D2B20520FFF7C0FF00280BD10430FFF7E3FF002808D1064BF4
:400B00001879000200B25B79184302E0002000E0002010BDC8000020BC01002000B587B0264B0393264B0293401A0590254B1B68002B07DD913BFF3B224A13600022224B4F
:400B40001A6007E0059A642353431F4A11688C46634413601C4B1B68039A934203DD039A194B1A6007E0039A5242934203DA039B5B42154A1360059A144B5343124A126892
:400B80009B18059A049A0193019A029B9A4202DD029B019307E0029B5B42019A934202DD029B5B4201930198FA21890001F09CFA0190059B0493019807B000BD90D0030053
:400BC000801A0600780200207402002010270000F0B50025002711E0BB00C658F3B2FF22964308E06A008A181478A419527822700135013BDBB2002BF4D10137092FEBD9D8
:400C0000F0BDC04610B50A00002101F085FB10BD10B501F055FB03680C2B00D1FEE7FEE770B50F4E0F4D13E029686B68AC68002202E001C901C30432A242FAD1E86800225E
:400C400002E0002102C304328242FAD11035013E002EE9D101F03AFBFFF74AFEFEE7C046010000008C26000010B500230AE0032B03D89A000949505800E009489900094AED
:400C8000885001332F2BF2D9FFF718FA8022D205116801230B43136010BDC04600000000110C00000000002010B50A2000F0D6FA10BDC04610B500F01DF810BD10B5044AE8
:400CC0001368802109060B431360FFF7EDFF10BD0000064010B5064B1B78002B04D1FFF7E9FF0122024B1A70FFF7E8FF10BDC046CC01002010B51B4A11680C230B43136062
:400D00000024194B1C60194A194B1A60194B1A4A13601A4A14601A4A14601A4A13601A4B1C600A2000F0A4FA03210A2000F0BEFA16490A2000F0A8FA154B1C60154B1C604A
:400D4000154B1C60154B1C60154B1C60154B1C601022154B1A70154B1C80154B1C60154B1C6010BD70000640000006407708008060000640070100800003064004030640A7
:400D8000100306400002064004020640851D0000C80E0640880E0640480F0640080F0640C80F0640880F06407C0200208C0200209C0200208402002010B5144A13685B000F
:400DC0005B081360002312490B6012490B601248046812492140016011490B6011490B601149124B19601249124B19601249134B19601349134B19601021134B19701368A8
:400E0000802109060B43136010BDC04600000640680006406C00064060000640FF5CFFFF880F0640C80F0640F3070000800F0640ED0F0000C00F0640FF0F0000400F06404C
:400E400017030000000F06407C02002010B50A2000F00EFA074B1C88A2B21400064B1B789B0602D504231A4394B20A2000F0F6F9200010BD8C0200207C02002070B52B4B1D
:400E80001B6820251D402A4C03E0012000F04CFA013C00F0C7F9002801D1002CF5D1002C43D0002000F0C6F9224A13680F218B431360214A13685B005B081360002D18D0F2
:400EC000002000F0B7F90A2000F02EFA012000F0B1F90A2000F028FA154C03E0012000F023FA013C00F0B2F9002803D1002CF5D100E00F4C002C08D0002000F09BF90A20B4
:400F000000F012FA01220D4B1A600B4A1368802109060B43136007490B680F229343013A13430B60012000F085F970BD64000640204E0000100001400000064068000640A0
:400F4000F0B583B001900C0017001D00002917D02A4B1B78102B08D10A2000F089F9284B1B68DB070ED508260FE0244B1B78602B0AD1244A138808218B431380002604E023
:400F8000042602E0002600E00426002E2FD128221A4B1A7000231C4A13601C4A13601C4B1F601C4B1C60EAB21B4B1A70019B5C00FF231C40134A138802218B43138040230F
:400FC000164A13601649174A11601421FF31164A1160164A1360EB0704D5FFF74FFF144B1C6004E0124B1C600222124B1A600A2000F034F9300003B0F0BDC0467C020020C7
:40100000640006408C020020800200208402002088020020A002002094020020800F064017030000000F0640080F0640880F06404002064068000640F0B583B001900C00C5
:4010400017001D00002917D02F4B1B78102B08D10A2000F00DF92D4B1B68DB070ED508260FE0294B1B78602B0AD1294A138808218B431380002604E0042602E0002600E0ED
:401080000426002E39D129221F4B1A700022214B1A60214A1760214B1C60EBB220490B70019B5C00FF231C400120044318490B8883430B801B491C4B19601421FF311B4B0A
:4010C00019601368072B03D80422194B1A6008E0184A1368802149000B4313600822144B1A60EB0704D5FFF7C9FE134B1C6004E0114B1C600222114B1A600A2000F0AEF8A0
:40110000300003B0F0BDC0467C020020640006408C0200209C02002098020020900200209402002017030000000F0640080F0640C80F06406000064040020640680006407E
:401140000004000C014B18607047C046880105400004000C014B18607047C046940105400004000C014B18607047C0468C01054070B504000D0000F0FDFDAC40024B1C606D
:4011800000F0FCFD70BDC0460800054010B500F0F1FD064A116804230B43136000F0EEFD18210420FFF7E4FF10BDC04600000540014B18607047C046B801054010B50E4CAB
:4011C0008023DB042360236823600020FFF7B8FF236823600C22094B1A600120FFF7E8FF3122074B1A60C820C000FFF7B1FFC8208000FFF7B5FF10BD80010540A40105400B
:40120000A801054010B5064B1B78002B04D1FFF7D5FF0122024B1A70FFF7B8FF10BDC046D4010020024B1868400801231840704704040440044A1368DBB201218B430840BC
:40124000184310607047C04600040440024B1B68012018407047C046040404401F2318401E3B8340014A13607047C04600E100E01F2318401E3B8340014A13607047C04629
:4012800080E100E001BE704770B504000D001F2802D90020FFF7F6FF1034A40080239B059C4664442068256070BDC04670B504000E00032902D90020FFF7E4FF1F2C02D9C2
:4012C0000020FFF7DFFF03252540ED00063500F051FDA408A400074B9C46644421680323AB4099430B003100A9401943216000F045FD70BD00E400E010B5040006E0084B3E
:40130000586800F02DFD074B9C46644480231B029C42F4D8024B9868604300F021FD10BDD40000200080FFFF10B5034B1B7B584300F016FD10BDC046D4000020F0B5574600
:401340004E46C0B483B0040000F014FD0190E71E2D2F74D83F4B1B78DBB29C4208D83E4B1B78DBB29A463D4B1B78DBB2994631E03B4B1B78DBB29C4208D83A4B1B78DBB25D
:401380009A46394B1B78DBB2994623E0374B1B78DBB29C4208D8364B1B78DBB29A46354B1B78DBB2994615E0334B1B78DBB29C4208D8324B1B78DBB29A46314B1B78DBB2FD
:4013C000994607E02F4B1B78DBB29A462E4B1B78DBB299462D4BDE5D2F2E09D92A2C07D919222B4B1A60052000F0BAFC192503E0274B1D683F231D40B54206D9234BDA5DC5
:40140000234B1A60052000F0ABFC1F4B9C4664442378DBB21F4A13601F4B52461A601F4B4A461A600520FFF77FFFB5420AD2174BDA5D174B1A60052000F092FC02E000209A
:40144000FFF720FF019800F099FC03B00CBC91469A46F0BDC0F1FF0FC1F1FF0FC2F1FF0FC3F1FF0FC4F1FF0FC5F1FF0FC6F1FF0FC7F1FF0FC8F1FF0FC9F1FF0FCAF1FF0FEE
:40148000CBF1FF0FCCF1FF0FCDF1FF0F382600002CFF0B4028FF0B401CFF0B4020FF0B40034A1168034B0B40400218431060704708020440FFF1FFFF034A1168034B0B40F7
:4014C0008001184310607047080204403FFEFFFF034A10680423184010608008C0B270471000044010B50B20FFF7B8FE10BDC04610B500F03DF910BD10B500F0D3F810BD33
:4015000010B5054A1368802109060B431360FFF7E9FFFFF7EDFF10BD0000074010B5064B1B78002B04D1FFF7E7FF0122024B1A70FFF7E6FF10BDC046D8010020094B1A68DB
:40154000094B1B689A420BD0074B1B680133212B00D10023054AD05CC0B2034A136000E000207047B4020020B0020020B802002010B50B20FFF77CFE0B4B1A680B4B1A60A6
:4015800000220B4B1A700B4B1A68802149020A431A601968084A0A401A60084A084B1A600B20FFF75BFE10BDB0020020B4020020A802002004030740FFFFFEFFED0F0000EA
:4015C000C00F0740144B1A68144B1B689A4208D1134B1B680F221340082B02D0114B186019E00D4B1A680132202A00D100220B4B1B689A42FBD002230B490B60C0B20B49B2
:40160000885405490A600A4A1268134203D1084A11680B4313607047AC020020A40200200802074040020740800F0740DC020020880F074070B506000D00002403E0305DF0
:40164000FFF7C0FF0134AC42F9D370BD10B50B20FFF70EFE0C4B1A680C4B1A600C4A136802218B4313600B4B1A68802149020A431A601968084A0A401A60084A084B1A6087
:401680000B20FFF7EBFD10BDA4020020AC020020880F074004020740FFFFFEFFF3070000800F074010B51C4A1C4B1A6009221C4B1A601C4A1C4B1A6007221C4B1A601C4AFB
:4016C0001C4B1A6004241C4B1C600B20FFF7D0FD03210B20FFF7EAFD18490B20FFF7D4FD0023174A1360174A1360174A1360174A1360174A1460174A13601168164A11800B
:40170000164A1360164A1360164A1370164A1360164A136010BDC0460F0000010000074020000740070300800003074004030740070100800002074004020740851700000D
:40174000880E0740C80E0740480F0740080F0740C80F0740880F0740E0010020B4020020B0020020A8020020AC020020A4020020024B1A88024B1A607047C046E0010020FC
:40178000880F074010B5274B1B68002B00D09847254B1B685B071DD5244B1B680133212B00D10023224A1268934205D1214B1B682022214B1A7006E01E4A1268D2B21F499E
:4017C000CA541A4A13601E4B1B681B07E4D104221C4B1A601C4B1B689B0721D51B4B1A681B4B1B689A4213D0194B1B680133202B00D10023174AD25CD2B217490A60144A83
:401800001360164B1B680F221340082BE6D104E0134A136802218B4313600222114B1A6010BDC046DC010020CC0F0740B4020020B002002040030740A8020020B802002001
:4018400008030740C00F07408C0F0740AC020020A4020020DC0200204002074008020740880F0740800F0740034A117880235B420B43DBB21370704770000F40014B187040
:401880007047C04681000F40014B1878C0B2704761000F4010B50100014800F011FC10BD00000F4010B5034B1B78034800F012FC10BDC04600000F4040000F4010B502480F
:4018C00000F008FC10BDC04640000F4010B50100014800F0F5FB10BD20000F4010B50100014800F0EDFB10BD30000F4010B501E0FFF7E4FFFFF7C8FF4306F9D410BDC0460F
:4019000010B514490B780722934305221343DBB20B700B78032293430B70FFF7E7FF0E4C2000FFF7D3FF2000FFF7B4FF0020FFF7A5FFFFF7A9FF0948FFF7D0FF00F01AFA2C
:40194000074A117810230B43DBB2137000F016FA10BDC04670000F40FEFFFF00FFFFFF0091000F4010B5064B1B78002B04D1FFF7C7FF0122024B1A70FFF776FF10BDC046F4
:40198000E2010020034A10684023184010608009C0B2704710020440014B98647047C0460000002010B5040000F0E4F9044A1168044B0B40A4051C43146000F0DFF910BDFF
:4019C00000E400E0FFFF3FFF0422014B1A60704700E100E00422014B1A60704780E100E010B50400FFF7F6FF2000FFF7D5FF0320FFF7D8FFFFF7E8FF10BDC0460422014BEF
:401A00001A60704780E200E0014B18647047C0460000002010B5040000F0ACF9044A1368C0218B43A4011C43146000F0A7F910BD00E400E00122014B1A60704700E100E0BE
:401A40000122014B1A60704780E100E010B50400FFF7F6FF2000FFF7D7FF0320FFF7DAFFFFF7E8FF10BDC0460122014B1A60704780E200E004490A68D2B240239A4380015D
:401A8000184010430860704700010440014B58647047C0460000002010B5040000F06AF9044A1168044B0B40A4031C43146000F065F910BD00E400E0FF3FFFFF0222014BB0
:401AC0001A60704700E100E00222014B1A60704780E100E010B50400FFF7F6FF2000FFF7D5FF0320FFF7D8FFFFF7E8FF10BDC046024B1868C00901231840704704000440C3
:401B0000034B1868C0B27F2290431860C00970471000044004490A687F231A40C301D8B2104308607047C04600010440034A117880235B420B43DBB21370704772000F40F3
:401B4000014B18707047C04683000F40014B1878C0B2704763000F40014B18707047C04603000F40014B1878C0B2704743000F40014B18707047C04623000F40014B1870FA
:401B80007047C04633000F4010B501E0FFF7EAFFFFF7DCFF4306F9D410BDC04610B513490B780722934301221343DBB20B700B78032293430B70FFF7E7FFFE20FFF7D8FFC3
:401BC0000020FFF7C9FF0020FFF7BAFFFFF7BEFF8020FFF7D3FF00F0CDF8054A117810230B43DBB2137000F0C9F810BD72000F4093000F4010B5064B1B78002B04D1FFF73F
:401C0000CDFF0122024B1A70FFF790FF10BDC046E30100200004000C014B18607047C046080105400004000C014B18607047C046140105400004000C014B18607047C04627
:401C40000C01054070B504000D0000F093F8AC40024B1C6000F092F870BDC0460800054010B500F087F8064A116801230B43136000F084F818210120FFF7E4FF10BDC0465E
:401C800000000540014B18607047C0463801054010B50022084B1A600432084B1A600220FFF7F0FF0120FFF7BDFF0020FFF7C2FF0020FFF7AFFF10BD000105402401054037
:401CC00010B5064B1B78002B04D1FFF7E1FF0122024B1A70FFF7C4FF10BDC046E4010020014B18607047C046300105408023014AD05070470000002010B5040000F03AF813
:401D0000044A1368C0218B43A4011C43146000F035F810BD10E400E080225202014B1A607047C04600E100E080225202014B1A607047C04680E100E010B50400FFF7F4FF4F
:401D40002000FFF7D3FF0320FFF7D6FFFFF7E4FF10BDC046014B18707047C04671000F400230800804D0C0460138FDD1C046C046C0467047EFF3108072B6704780F31088D0
:401D80007047C04610B5AD4B1B68002B00D09847AB4B1B68DB0702D50022AA4B1A60AA4B1B789B0628D5A94B1B68DB0507D5A84A1188C0239B000B431380012300E000231F
:401DC000A24A1268D20706D5A14A118890239B000B4313800123002B0FD09B4A1278D20701D5012200E002229949088802430A800021954A117000E00023934A12789206DF
:401E000000D414E1914A1268D20611D51022914B1A608D4B1B78DB0701D5012300E002238B4A11880B4313801022874B1A7004E1854A1278120720D5844A126892070AD509
:401E40000222844B1A60824A118888239B000B431380012311E07C4A1278D20703D52521794A117009E02421774A11707A4A1268002A02D01439794A1160734A12785207FE
:401E800000D4ABE0704A1278D20749D5744A1268120727D5734A1268734909680F240C40724909686418141B082C09D8002C16D16F4A11686F4B0B401360012308340EE061
:401EC00008240CE0694A11686B48006841186B480068C0B20870116801311160013C002CF0D119E05E4A1268520715D55F4A116861480068411861480068C0B20870116881
:401F0000013111601168574A1268914203D204215B4A116000E001235A495B4A11605DE04A4A1268920726D502224A4B1A6057490B680D321A40096880231B020B4000D0C0
:401F400001239B18524A1168CB1A13601268514B1A603F4A118884239B000B4313804E4B1A68802149020A431A6019684B4A0A401A60012332E04A4A1268D20612D424E09A
:401F8000434A1168344A1268914211D2404A11684448006841180978C9B243480160116801311160394A12680F210A40082AE7D1374A1168284A1268914202D14021274A5A
:401FC00011603A493A4A116008E0354A1268520604D52F4B1A682F4B1A600123002B2CD0234A1168234B0B4013600023314A13601A4A1360304B1B789B070ED5124B1B782E
:40200000DB0701D5092300E00A23114A11880B43138060220C4B1A700FE0284B1B689B0601D5182200E01022154B1A6005E0064B1B78DB0601D4FEF7BFFE10BDD001002006
:402040008C0E0640880E06407C0200200C0F06408C020020000F064088020020880F0640CC0F064098020020080306409C02002060000640FFFEFFFF900200204003064055
:4020800068000640ED0F0000C00F064008020640800200208402002004020640FFFFFEFF8C0F0640A002002040020640F3070000800F0640C80F064094020020640006400B
:4020C000CBB203700B0ADBB24370090CC9B281707047C0460378427812021A4383781B041A4310007047C04603460B437FD4002243088B4274D303098B425FD3030A8B4223
:4021000044D3030B8B4228D3030C8B420DD3FF22090212BA030C8B4202D31212090265D0030B8B4219D300E0090AC30B8B4201D3CB03C01A5241830B8B4201D38B03C01AEE
:402140005241430B8B4201D34B03C01A5241030B8B4201D30B03C01A5241C30A8B4201D3CB02C01A5241830A8B4201D38B02C01A5241430A8B4201D34B02C01A5241030A73
:402180008B4201D30B02C01A5241CDD2C3098B4201D3CB01C01A524183098B4201D38B01C01A524143098B4201D34B01C01A524103098B4201D30B01C01A5241C3088B4235
:4021C00001D3CB00C01A524183088B4201D38B00C01A524143088B4201D34B00C01A5241411A00D201465241104670475DE0CA0F00D04942031000D34042534000229C4687
:4022000003098B422DD3030A8B4212D3FC22890112BA030A8B420CD3890192118B4208D3890192118B4204D389013AD0921100E08909C3098B4201D3CB01C01A5241830958
:402240008B4201D38B01C01A524143098B4201D34B01C01A524103098B4201D30B01C01A5241C3088B4201D3CB00C01A524183088B4201D38B00C01A5241D9D243088B426D
:4022800001D34B00C01A5241411A00D20146634652415B10104601D34042002B00D54942704763465B1000D3404201B5002000F005F802BD0029F8D016E770477047C0463C
:4022C000014B18687047C046480100200E4B70B500251E000D4CE41AA410A54204D0AB00F35898470135F8E700F0BEF9084B00251E00084CE41AA410A54204D0AB00F35887
:4023000098470135F8E770BD7426000074260000742600007C26000003008218934202D019700133FAE770470000000000300F40000400400F400004816F836703FF0A2057
:402340000C180E03101F15961680176919551BAA1DFF1E402010220424072608280129332A122BCC2C062D0F2E112FF0301F32203480364037FF39023E013F4140104105C7
:4023800049FF4AFF4BFF4DA04F0150185287580459045A045B045F016040628064406540668068406A806C406D206E808405860A8E6095969620976999339A409BCC9C03F0
:4023C0009D0F9E1C9FF0A555A7AAAC06AE09B020B240B410B60FB7FFBE40C040C101C9FFCAFFCBFFCDAFCE07CF01D018D201D40FD610D804D904DA04DB04DF01E040E2809B
:40240000E440E540E680E840EA80EC40ED20EE800120020104800504090A0B020E050F20102A1240154019641A411C021D981F23200121012302268029602F2031143280F6
:402440003564380240014580470248015E4A5F2066086704682A69046B016D4070018401C0A3C2EDC48FCA4CCC7ECE01D098D208D6F0D860E0020302060C0C0213081404D5
:40248000170319081E032F0D30013103320833083402350436043E503F0440404101453C4624475E483F49FF4AFF4BFF4DAF4E074F0150185280580459045A045B045F01CB
:4024C0006040628064406540668068406A806C406D206E808301851C87208F029002911893449504960197489E04A160A202A30CA804AD40AF10B004B17CB202B301B401A8
:40250000B702BE05C031C104C552C6C0C70EC81FC9FFCAFFCBFFCDA0CF01D018D407D808D904DA04DB04DF01E040E280E440E540E680E840EA50EBA8EC40ED20EE50EFA827
:4025400004400620072009080A800B010E200F0210801208180819041A401C401E2A210222482490250126202A412C013008330134083501362039843B013D02401041417C
:402580004580470249084B014F065080514052145669581059045A4062146410650875017B02800491069480970498099B039E499F20A008A188A302A502A605AB10AE0408
:4025C000B408C0A0C2ADC40ACA19CCE3CE8BD09BD60ED806DE08E401E8400140021007410E086E088701C0F0C280DA80E040AB40AE10B540E840EC80511056025C0285107E
:40260000D404D60580029C02B602E8020101100102000F406A300F4033310F4065320F404D330F400A400F4005410F4006420F4004430F4002600F40030405060708090A30
:402640000B0C0E0F101112131415161718191B1C1D1E1F2021222325262728292A2B2E2F3031323334354300F8B5C046F8BC08BC9E46704759020000690C0000F8B5C04612
:40268000F8BC08BC9E46704731020000A0260000C000002090000000B00100000000000000000000010000004000000000A000000AD7233C010000000000C05D80BB000073
:4026C00030000000006CDC020000000000000000000000000000000000000000000000000000000000000000662600000000000000000000000000000000000000000000D4
:4027000000000000000000000000000000000000000000000000000000000000000000000000000000000000E8000020000000000000000000000000000000000000000091
:402740000000000000000000000000000000000000000000000000000000000000000000000000000000000000000000000000000000000000000000000000000000000059
:402780000000000000000000000000000000000000000000000000000000000000000000000000000000000000000000000000000000000000000000000000000000000019
:4027C00000000000000000000000000000000000000000000000000000000000000000000000000000000000000000000000000000000000000000000000000000000000D9
:402800000000000000000000000000000000000000000000000000000000000000000000000000000000000000000000000000000000000000000000000000000000000098
:0200000490303A
:020000005902A3
:0200000490402A
:200000000000000000000000000000000000000000000000000000000000000000000000E0
:0200000490501A
:0C000000000204FB1193110105076A9532
:0200000490600A
:0100000001FE
:00000001FF