:400000000010002011000000B50B0000B50B000010B500F0D7FDC04670B5174C23688025ED022B432360302000F0C4FF134A144B1A603022134B1A60203A134B1A60013210
:40004000124B1A602023124A1360124A136080231B06114A13602560104A1360104A114B1A60114A114B1A60114A124B1A600022114B1A6070BDC04600010B400600008054
:4000800004010B40080202400C02024020020240280202403002024008010B400000024001000080400002401D000080800002407F250080040002400C020B4010B572B668
:4000C0000122394B1A7000240FE038486200131959000B00411889881A5AC31858880004104300F061FD0134E4B2012CEDD92F490C312F48603000F03DFD2E4A2E4B1A60FD
:4001000008222E4B1A602E4A2E4B1A60EE2212022D4B1A60EE222D4B1A6099231B042C4A13602C4A13602C4A13602C492C4A11602C4A136002232C4A13602C4A13602C49D8
:400140000B783C22934314221343DBB20B70294A117816230B43DBB213702C22264B1A60264A274B1A602022264B1A601F3A264B1A60264A264B1A601C22264B1A60264AA7
:40018000264B1A6080229201254B1A60D8221201244B1A600322244B1A602132234B1A60FFF73AFF10BDC0461C700F40C02B0000402E00000000FFFF00000140040001403C
:4001C00000330300080001400C0001401000014000500F4010500F4020500F400000350128500F4030500F402000004000800F4001700F4000700F40000004408914270053
:40020000080004400C000440000104400600D8000801044000020440806D0400080204400C02044008030440000404400804044010B5064C2378002B07D1054B002B02D0F2
:40024000044800E000BF0123237010BD4801002000000000BC2B0000084B10B5002B03D00749084800E000BF07480368002B00D110BD064B002BFBD09847F9E700000000E1
:400280004C010020BC2B0000C00000200000000010B501F0FFF901F0C1F9002001F046F9002001F099FA0122014B1A7010BDC046C400002010B501F023FA00F055FF0020D6
:4002C00001F034F90022014B1A7010BDC400002010B501F061FA01F057FA00281DD00F4B1A685B680E4B1A600E4B1B78012B14D11E2200210C4802F059FC002404E000F06C
:4003000069FF0A4B185501341D2CF8D900F07CFF00F0E8FF0022034B1A7010BD68010020D001002034020020E401002038020020002803D10022044B1A7003E0024B1A7853
:40034000104318707047C046CC010020002803D10022044B1A7003E0024A1378834313707047C046CC01002070B5051C0C4B1C68211C01F023FD002808D10A4B1C68211CCE
:40038000281C01F007FD002800D12C1C8321C905201C02F07FF801F025FD00F039FD70BDE0010020B401002010B501F0C7F80B4BD860DA680A4B9A4206D9084AD36809493C
:4003C0008C466344136102E0044BDA681A61034B1969054A1160186910BDC04668010020FFFFEF00010000FFC001002010B5994B1B68DB0700D52CE1974B1B78002B00D087
:4004000027E1964B58789C781E2800D91E200022002305E09149C95C5218D2B20133DBB29842F7D8002A09D08D4B5C7115221A718C4A138801339BB21380BBE0631EDBB279
:40044000022B00D9B6E0022C65D0032C00D195E0012C00D0AEE0814B1A795979090211439A7912040A431100DA7912060A437E490A601A7A597A090211439A7A12040A4340
:400480001100DA7A12060A4378490A601A7B597B090211439A7B12040A431100DA7B12060A4373490A60997C724A11700021724A1170187C642800D9642002F0EFFA041CEE
:4004C0006E4B1860654B587C642800D9642002F0E5FA6B4B18606B49201C01F011FE6A4901F0D8FF041C694B1860674901F092FC674B1860211C644802F0E0F8654B186074
:400500000222654B1A70554BDA78644B1A700020FFF71CFF4EE05148C3785A1E9341604A13700379427912021A4383791B0413431A00C3791B0613435A4A1268934217D0C6
:40054000FFF732FF584C206044480379427912021A4383791B0413431A00C3791B061343504A13602268514B1A60002001F034F93A4B08229A56404B1A701BE0374C217907
:4005800063791B020B431A00A079000403001343E0790006184300F0C9FF2379627912021A43A3791B0413431A00E3791B0613433D4A1360FFF7F8FE3D490860284B002223
:4005C0001A705A7001209870DA7015321A71133A5A71314A12789A71364A1278DA71214A128892B25A72120A9A722C4A12781A720A685A73100A9873100CD873120E1A74A3
:400600002D4A12685A74100A9874100CD874120E1A752A4A1288DA72120A1A730022002305E00F49C95C5218D2B20133DBB2142BF7D90B48524202701E2100F047FE012266
:40064000054B1A70054B5B7A002B02D00020FFF77DFE10BD240007403402002038020020E40100202E0200205802002004020020BC010020D50100202C020020C801002006
:40068000080200200000C84200004842C4010020E0010020B40100205C02002035020020B0010020B80100206002002028020020C0010020CC01002010020020D80100207D
:4006C00010B5FFF771FE064B18601A68054B1A601A68054B1A600022044B1A6010BDC046C001002060020020280200203002002010B5441E63425C41E4B2012805D1044B65
:400700001B7D002B01D1FFF7DBFF014B1C7510BD6801002010B5054901F07CFBFC21890501F0B8FEFFF720FE10BDC0460000C84270B5A34B5B7D002B20D1FFF7C1FF002086
:40074000FFF7D6FF9F4BA04A1360A04A1360A049A04A1160A04A13600022A04B1A6000239F4A13609F4A136019219F4A11709F4A13709F4A13700122914B5A75802000011C
:4007800000F0CAFC9B4B1B68013300248C4A10685168002903D1A1420AD1984208D98C48FFF7E2FD0023924A1370934A137006E1924B1B78022B00D001E1062000F0C8FCAA
:4007C000062000F0B9FC8A4B1B78002B4FD18A4B1A7852B28A4B1B785BB29A420FD0864B1B78002B0BD0844B1B785BB2844A1370FFF7DAFD834B1860002000F0EDFF7E4CDD
:40080000207840B2323002F001F9FFF7ADFD2378002B2CD0FFF7C8FD7B4B18601B68794A12689B1ADA179B185340654CA36100F0D9FFE061754B1B78002B09D0002807D1C4
:400840005F4B9A69724B9A4202DD0420FFF770FD6E4B1B78002B0AD0594BDB69002B06D0574B9B69012B02DC0220FFF761FD5F4B1B78002B07D15E4A1278002A03D00120DC
:40088000FFF736FF08E05A4A1278002A04D1002B02D00020FFF72CFF554B1B78534A1370002B00D188E0504B1B78002B04D14C4B1A684C4B1A6016E04A4A1168484A10689E
:4008C0000A1AD417121962405C00A24202DC454B186008E0814203DACB18424A136002E0CB1A404A1360FFF75FFD474A10603D4B1B681068181A02F089F8051C454B19681B
:4009000001F0C8FD444C216801F084FA061C20602E4B1C68211C01F051FA002802D03E4B1C600BE080231B069C466444211C301C01F030FA002801D0374B1C60324B1B688E
:40094000304A14681C1B354B1968281C01F0A2FD314B196801F05EFA051C200002F056F82F4B196801F096FD011C281C01F0A6FE051C2C4B1860144B1C68211C01F01EFA00
:40098000002802D0274B1C600BE080231B069C466444211C281C01F0FDF9002801D0214B1C60194B1A68174B1A601E4B18681E4B1860FFF7AFFE02E000221B4B1A6070BD8D
:4009C000680100200000C842C80100200802002000004842C4010020E0010020B4010020B801002028020020D5010020D4010020B0010020D00100202C0200205C02002070
:400A0000D601002060020020C0010020C4000020204E0000040200203002002058020020BC010020DC0100201002002070B5022000F0A0FF012000F069FE184B1C6A5D6A0E
:400A4000C820002100196941186259621A6A5B6A13498A420ED1002B0CD1104B00200021186259621C685D68012000210019694118605960094A936A01339362DA0702D59C
:400A8000FFF756FE05E09A0703D45B0701D5FFF7ADFC002000F03AFE70BDC0466801002040420F0070B5012000F052FB012000F043FB00F04FFF234800F088FF022000F01F
:400AC00065FF214800F00EFE032000F0EFFD1F4800F0D2FD032000F0B1FD1D4800F046FE032000F025FE62B600F0C6F8642000F03FFA00F05FFB00F0DDF9C820C00000F05D
:400B00007FF91448FFF730FC0024134B1C70134B1C7000F073FD124D280000F007FD114B1D6000F0B1FE002000F056FE01220E4B1A700E4B1C700E4B1C80FA20800000F0A6
:400B400017FAFAE72D0A0000B502000091020000D1020000000048422C020020C4000020FFFFFF00600200205C020020350200202E020020F0B50025002711E0BB00C65814
:400B8000F3B2FF22964308E06A008A181478A419527822700135013BDBB2002BF4D10137092FEBD9F0BDC04610B50A00002101F0FDFF10BD10B501F0CDFF03680C2B00D188
:400BC000FEE7FEE770B50F4E0F4D13E029686B68AC68002202E001C901C30432A242FAD1E868002202E0002102C304328242FAD11035013E002EE9D101F0B2FFFFF752FF17
:400C0000FEE7C04601000000E02F000010B500230AE0032B03D89A000949505800E009489900094A885001332F2BF2D9FFF746FA8022D205116801230B43136010BDC0461C
:400C400000000000B50B00000000002010B50A2000F040F910BDC04610B500F01DF810BD10B5044A1368802109060B431360FFF7EDFF10BD0000064010B5064B1B78002B4A
:400C800004D1FFF7E9FF0122024B1A70FFF7E8FF10BDC0469401002010B51B4A11680C230B4313600024194B1C60194A194B1A60194B1A4A13601A4A14601A4A14601A4AFB
:400CC00013601A4B1C600A2000F00EF903210A2000F028F916490A2000F012F9154B1C60154B1C60154B1C60154B1C60154B1C60154B1C601022154B1A70154B1C80154BFC
:400D00001C60154B1C6010BD700006400000064077080080600006400701008000030640040306401003064000020640040206400D1A0000C80E0640880E0640480F064026
:400D4000080F0640C80F0640880F06406402002074020020840200206C02002010B5144A13685B005B081360002312490B6012490B601248046812492140016011490B60A6
:400D800011490B601149124B19601249124B19601249134B19601349134B19601021134B19701368802109060B43136010BDC04600000640680006406C0006406000064085
:400DC000FF5CFFFF880F0640C80F0640F3070000800F0640ED0F0000C00F0640FF0F0000400F064017030000000F0640640200200004000C014B18607047C04688010540C9
:400E00000004000C014B18607047C046940105400004000C014B18607047C0468C01054070B504000D0000F0E9FDAC40024B1C6000F0E8FD70BDC0460800054010B500F019
:400E4000DDFD064A116804230B43136000F0DAFD18210420FFF7E4FF10BDC04600000540014B18607047C046B801054010B50E4C8023DB042360236823600020FFF7B8FF54
:400E8000236823600C22094B1A600120FFF7E8FF3122074B1A60C820C000FFF7B1FFC8208000FFF7B5FF10BD80010540A4010540A801054010B5064B1B78002B04D1FFF7A1
:400EC000D5FF0122024B1A70FFF7B8FF10BDC0469C0100201F2318401E3B8340014A13607047C04600E100E01F2318401E3B8340014A13607047C04680E100E001BE70470D
:400F000070B504000D001F2802D90020FFF7F6FF1034A40080239B059C4664442068256070BDC04670B504000E00032902D90020FFF7E4FF1F2C02D90020FFF7DFFF0325E0
:400F40002540ED00063500F059FDA408A400074B9C46644421680323AB4099430B003100A9401943216000F04DFD70BD00E400E010B5040006E0084B586800F035FD074B99
:400F80009C46644480231B029C42F4D8024B9868604300F029FD10BDCC0000200080FFFF10B5034B1B7B584300F01EFD10BDC046CC000020F0B557464E46C0B483B0040071
:400FC00000F01CFD0190E71E2D2F74D83F4B1B78DBB29C4208D83E4B1B78DBB29A463D4B1B78DBB2994631E03B4B1B78DBB29C4208D83A4B1B78DBB29A46394B1B78DBB294
:40100000994623E0374B1B78DBB29C4208D8364B1B78DBB29A46354B1B78DBB2994615E0334B1B78DBB29C4208D8324B1B78DBB29A46314B1B78DBB2994607E02F4B1B7831
:40104000DBB29A462E4B1B78DBB299462D4BDE5D2F2E09D92A2C07D919222B4B1A60052000F0C2FC192503E0274B1D683F231D40B54206D9234BDA5D234B1A60052000F016
:40108000B3FC1F4B9C4664442378DBB21F4A13601F4B52461A601F4B4A461A600520FFF77FFFB5420AD2174BDA5D174B1A60052000F09AFC02E00020FFF720FF019800F06D
:4010C000A1FC03B00CBC91469A46F0BDC0F1FF0FC1F1FF0FC2F1FF0FC3F1FF0FC4F1FF0FC5F1FF0FC6F1FF0FC7F1FF0FC8F1FF0FC9F1FF0FCAF1FF0FCBF1FF0FCCF1FF0F73
:40110000CDF1FF0FC82E00002CFF0B4028FF0B401CFF0B4020FF0B40054A1168054B184008431060024B1A68024B1A42FAD1704710020B4008080800034A1168034B0B403C
:40114000400218431060704708020440FFF1FFFF034A1168034B0B408001184310607047080204403FFEFFFF034A10680423184010608008C0B270471000044010B50B20DB
:40118000FFF7A8FE10BDC04610B500F03DF910BD10B500F0D3F810BD10B5054A1368802109060B431360FFF7E9FFFFF7EDFF10BD0000074010B5064B1B78002B04D1FFF748
:4011C000E7FF0122024B1A70FFF7E6FF10BDC046A0010020094B1A68094B1B689A420BD0074B1B680133212B00D10023054AD05CC0B2034A136000E0002070479C020020D1
:4012000098020020A002002010B50B20FFF76CFE0B4B1A680B4B1A6000220B4B1A700B4B1A68802149020A431A601968084A0A401A60084A084B1A600B20FFF74BFE10BDC0
:40124000980200209C0200209002002004030740FFFFFEFFED0F0000C00F0740144B1A68144B1B689A4208D1134B1B680F221340082B02D0114B186019E00D4B1A6801322D
:40128000202A00D100220B4B1B689A42FBD002230B490B60C0B20B49885405490A600A4A1268134203D1084A11680B4313607047940200208C0200200802074040020740BB
:4012C000800F0740C4020020880F074070B506000D00002403E0305DFFF7C0FF0134AC42F9D370BD10B50B20FFF7FEFD0C4B1A680C4B1A600C4A136802218B4313600B4BA1
:401300001A68802149020A431A601968084A0A401A60084A084B1A600B20FFF7DBFD10BD8C02002094020020880F074004020740FFFFFEFFF3070000800F074010B51C4A77
:401340001C4B1A6009221C4B1A601C4A1C4B1A6007221C4B1A601C4A1C4B1A6004241C4B1C600B20FFF7C0FD03210B20FFF7DAFD18490B20FFF7C4FD0023174A1360174A48
:401380001360174A1360174A1360174A1460174A13601168164A1180164A1360164A1360164A1370164A1360164A136010BDC0460F000001000007402000074007030080B5
:4013C00000030740040307400701008000020740040207401D140000880E0740C80E0740480F0740080F0740C80F0740880F0740A80100209C020020980200209002002021
:40140000940200208C020020024B1A88024B1A607047C046A8010020880F074010B5274B1B68002B00D09847254B1B685B071DD5244B1B680133212B00D10023224A126807
:40144000934205D1214B1B682022214B1A7006E01E4A1268D2B21F49CA541A4A13601E4B1B681B07E4D104221C4B1A601C4B1B689B0721D51B4B1A681B4B1B689A4213D015
:40148000194B1B680133202B00D10023174AD25CD2B217490A60144A1360164B1B680F221340082BE6D104E0134A136802218B4313600222114B1A6010BDC046A401002020
:4014C000CC0F07409C020020980200204003074090020020A002002008030740C00F07408C0F0740940200208C020020C40200204002074008020740880F0740800F074032
:40150000034A117880235B420B43DBB21370704770000F40014B18707047C04681000F40014B1878C0B2704761000F4010B50100014800F009FC10BD00000F4010B5034B78
:401540001B78034800F00AFC10BDC04600000F4040000F4010B5024800F000FC10BDC04640000F4010B50100014800F0EDFB10BD20000F4010B50100014800F0E5FB10BDBA
:4015800030000F4010B501E0FFF7E4FFFFF7C8FF4306F9D410BDC04610B514490B780722934305221343DBB20B700B78032293430B70FFF7E7FF0E4C2000FFF7D3FF200027
:4015C000FFF7B4FF0020FFF7A5FFFFF7A9FF0948FFF7D0FF00F012FA074A117810230B43DBB2137000F00EFA10BDC04670000F40FEFFFF00FFFFFF0091000F4010B5064BF4
:401600001B78002B04D1FFF7C7FF0122024B1A70FFF776FF10BDC046AA010020034A10684023184010608009C0B2704710020440014B98647047C0460000002010B5040072
:4016400000F0DCF9044A1168044B0B40A4051C43146000F0D7F910BD00E400E0FFFF3FFF0422014B1A60704700E100E00422014B1A60704780E100E010B50400FFF7F6FF3F
:401680002000FFF7D5FF0320FFF7D8FFFFF7E8FF10BDC0460422014B1A60704780E200E0014B18647047C0460000002010B5040000F0A4F9044A1368C0218B43A4011C4344
:4016C000146000F09FF910BD00E400E00122014B1A60704700E100E00122014B1A60704780E100E010B50400FFF7F6FF2000FFF7D7FF0320FFF7DAFFFFF7E8FF10BDC046D9
:401700000122014B1A60704780E200E004490A68D2B240239A438001184010430860704700010440014B58647047C0460000002010B5040000F062F9044A1168044B0B405A
:40174000A4031C43146000F05DF910BD00E400E0FF3FFFFF0222014B1A60704700E100E00222014B1A60704780E100E010B50400FFF7F6FF2000FFF7D5FF0320FFF7D8FF0A
:40178000FFF7E8FF10BDC046024B1868C00901231840704704000440034B1868C0B27F2290431860C009704710000440034A117880235B420B43DBB21370704772000F407C
:4017C000014B18707047C04680000F40014B1878C0B2704760000F40014B18707047C04603000F40024B1B78024B1878C0B2704703000F4043000F40014B1878C0B2704723
:4018000043000F40014B18707047C04623000F40014B18707047C04633000F4010B501E0FFF7EAFFFFF7D2FF4306F9D410BDC04610B513490B780722934301221343DBB222
:401840000B700B78032293430B70FFF7E7FFFE20FFF7D8FF0020FFF7BFFF0020FFF7B0FFFFF7B4FF8020FFF7D3FF00F0C7F8054A117810230B43DBB2137000F0C3F810BDF3
:4018800072000F4090000F4010B5064B1B78002B04D1FFF7CDFF0122024B1A70FFF786FF10BDC046AB0100200004000C014B18607047C046080105400004000C014B186056
:4018C0007047C046140105400004000C014B18607047C0460C01054070B504000D0000F08DF8AC40024B1C6000F08CF870BDC0460800054010B500F081F8064A116801237F
:401900000B43136000F07EF818210120FFF7E4FF10BDC04600000540014B18607047C0463801054010B50022084B1A600432084B1A600220FFF7F0FF0120FFF7BDFF002085
:40194000FFF7C2FF0020FFF7AFFF10BD000105402401054010B5064B1B78002B04D1FFF7E1FF0122024B1A70FFF7C4FF10BDC046AC010020014B18607047C04630010540A6
:401980008023014AD05070470000002010B5040000F034F8044A1368C0218B43A4011C43146000F02FF810BD10E400E080225202014B1A607047C04600E100E08022520285
:4019C000014B1A607047C04680E100E010B50400FFF7F4FF2000FFF7D3FF0320FFF7D6FFFFF7E4FF10BDC0460230800804D0C0460138FDD1C046C046C0467047EFF3108019
:401A000072B6704780F310887047C04610B5AD4B1B68002B00D09847AB4B1B68DB0702D50022AA4B1A60AA4B1B789B0628D5A94B1B68DB0507D5A84A1188C0239B000B4372
:401A40001380012300E00023A24A1268D20706D5A14A118890239B000B4313800123002B0FD09B4A1278D20701D5012200E002229949088802430A800021954A117000E0CA
:401A80000023934A1278920600D414E1914A1268D20611D51022914B1A608D4B1B78DB0701D5012300E002238B4A11880B4313801022874B1A7004E1854A1278120720D52B
:401AC000844A126892070AD50222844B1A60824A118888239B000B431380012311E07C4A1278D20703D52521794A117009E02421774A11707A4A1268002A02D01439794AD3
:401B00001160734A1278520700D4ABE0704A1278D20749D5744A1268120727D5734A1268734909680F240C40724909686418141B082C09D8002C16D16F4A11686F4B0B4094
:401B40001360012308340EE008240CE0694A11686B48006841186B480068C0B20870116801311160013C002CF0D119E05E4A1268520715D55F4A116861480068411861480E
:401B80000068C0B208701168013111601168574A1268914203D204215B4A116000E001235A495B4A11605DE04A4A1268920726D502224A4B1A6057490B680D321A40096854
:401BC00080231B020B4000D001239B18524A1168CB1A13601268514B1A603F4A118884239B000B4313804E4B1A68802149020A431A6019684B4A0A401A60012332E04A4A7F
:401C00001268D20612D424E0434A1168344A1268914211D2404A11684448006841180978C9B243480160116801311160394A12680F210A40082AE7D1374A1168284A126819
:401C4000914202D14021274A11603A493A4A116008E0354A1268520604D52F4B1A682F4B1A600123002B2CD0234A1168234B0B4013600023314A13601A4A1360304B1B78AE
:401C80009B070ED5124B1B78DB0701D5092300E00A23114A11880B43138060220C4B1A700FE0284B1B689B0601D5182200E01022154B1A6005E0064B1B78DB0601D4FFF78F
:401CC0004DF810BD980100208C0E0640880E0640640200200C0F064074020020000F064070020020880F0640CC0F064080020020080306408402002060000640FFFEFFFFC1
:401D0000780200204003064068000640ED0F0000C00F064008020640680200206C02002004020640FFFFFEFF8C0F06408802002040020640F3070000800F0640C80F064013
:401D40007C02002064000640CBB203700B0ADBB24370090CC9B281707047C0460378427812021A4383781B041A4310007047C0468446081C6146FFE71FB500F047FB002805
:401D800001D40021C8421FBD10B500F0D3FA4042013010BD10B500F039FB002801DB002010BD012010BDC04610B500F02FFB002801DD002010BD012010BDC04610B500F0FC
:401DC000E1FA002801DC002010BD012010BDC04610B500F0D7FA002801DA002010BD012010BDC0469E2110B5C905041CFFF7F0FF002803D1201C00F0E7FD10BD9E21201C8D
:401E0000C90500F05BFC00F0DFFD80231B069C466044F2E7F8B54A02430244004E00C50F240E28009B09360EC90F92098D4259D0A01B002800DC8DE0002E1AD1002A00D00E
:401E400079E05A0704D00F221A40042A00D004335A0138D50134FF2C00D189E028009B015B0AE4B25B02E4055B0A2343C0071843F8BDFF2CE5D08021C9040A431B2800DDB0
:401E800089E016002021C640081A8240511E8A4132439B1A5A0114D59B019E09300000F03BFE05388640844265DC041B330020200134E340041BA640721E9641002433433A
:401EC000BFE75A07BFD1DF082800FF2C2FD1002F00D187E08022D20313003B435B025B0AFF24BFE7A11B002949DD002E29D0FF2CA7D08026F60432431B2900DD8DE0170089
:401F00002026CF40711A8A40511E8A413A439B185A01D6D50134FF2C64D0012276491A405B080B4013438CE7031ECAD100207B025B0AE4B296E701380028AAD0FF2C9DD1FB
:401F40007FE7002A00D17CE701390029DFD0FF2CD2D176E7002820D1601CC0B2012853DD80279E1AFF0437402FD0D61A0D0095E72800002376E7614B241A334061E7002939
:401F80004DD1611CCEB2012E2FDDFF292AD09B185B080C0055E701227BE7002C1BD1002B5BD0C04300280CD0FF2E7ED01B2800DD92E01D002024C540201A8340581E8341A7
:401FC0002B43D31A34000D0064E7002E00D065E700200024ABE7FF2E67D08024E40440422343E3E7FF2400233CE7002C61D1002B7ED0002A00D124E79B185A0100D460E7C9
:402000003E4A0C0013401CE7002C1ED1002B2FD1002A66D013000D0013E7012277E7002C1FD1002B5AD0C94300290BD0FF2E50D01B295FDC1F002024CF40611A8B40591EF9
:402040008B413B439B18340062E7002B1CD1002A4AD013000D00FF24F3E6130034000D00EFE6FF2E35D08024E40449422343DFE7002A00D1E5E68027981AFF04074000D196
:4020800052E7D31A0D00DCE6FF24002A00D1D8E68020DB08C003034204D0D208024201D113000D00DB00FF24CBE61300FF240D00C7E6002B0DD0FF24002A00D1C1E68021D3
:4020C000DB08C9030B42EDD0D2080A42EAD11300E8E71300FF24B4E6012372E713003400AFE60027002022E780270020FF03F1E61300A6E60123A5E7FFFFFF7DFFFFFFFB8A
:40210000F0B5564644465F464D46F0B444024600C70F83B08846650A360EBA463DD0FF2E22D00023EC00802599469B46ED0425437F3E43465C025800DB0F640A000E9846A9
:4021400036D0FF2830D080230021E400DB041C437F38301A0190484642460843724E800030587A4013008746002D44D108239946063B9B46DDE70122FF2000241A4064029F
:40218000C305640AD2071C431443200003B03CBC90469946A246AB46F0BD002D20D104239946033B9B46C4E7002C17D1022102E0002C0AD10121321A01924A4643460A43DF
:4021C0005A48920082587B409746200000F0A4FC431F76309C4040420021BAE70321B8E7280000F099FC431F9D4000237630464299469B469DE70C239946093B9B4698E76B
:4022000080240022E403FF20B9E70024C2468B465A465346022AAED0032A7DD0012A31D1012200201A400024A9E70122101A1B2856DD1A4000200024A1E78023DB031D4291
:402240004BD18023DB032B435C02640A3A00FF2095E76D016001854230D2019A0024013A01921B220127290064006D00002901DBA84201D82D1A3C43013A002AF3D16A1EEF
:4022800095412C4301987F300028CEDD620704D00F222240042A00D00434220103D5244A019814408030FE2800DD64E70122A401640AC0B21A4062E72C00A9E72D1A1A22DA
:4022C0000124CFE76B02BCD500248023DB031C436402640A4246FF2051E71C42B3D1F4E721002022C140101A8440621E94410C43620704D00F222240042A00D00434620132
:4023000004D5012201201A40002438E70122A401640A1A40002032E78023DB031C436402640A5246FF202AE7F82E0000382F0000FFFFFFF7430270B542004C005D0AC30FEC
:402340004802120E460A240EC90FFF2A0FD0FF2C11D00120A24200D070BDB542FCD18B420DD0002AF8D12800431E9841F4E70120002DF1D1EBE70120002EEDD1E9E7002006
:40238000EAE7C0464302F0B542005D0AC30F4802440A4800120E000EC90FFF2A1FD0FF2822D0002A09D16E426E4100280FD1002C0DD10020002D09D005E0002801D1002C24
:4023C00001D08B4213D0584201231843F0BD002EF7D048424141012049420843F6E7002DDDD002204042F1E7002CDAD0F9E78242E9DC04DBA542E6D80020A542E6D258424F
:40240000434101205B421843E0E7C0464302F0B542004C005E0AC30F4802120E450A240EC90FFF2A17D0FF2C19D0002A0BD170427041002C17D0002807D0484241410120F1
:4024400049420843F0BD002C13D08B4214D0584201231843F6E70220002EF3D1E3E70220002DEFD1E1E7002DE5D10020002EE9D0EDE7002DE9D1EAE7A242E8DC04DBAE4281
:40248000E5D80020AE42DDD25842434101205B421843D7E7F0B557464E4645464300E0B446028846760A1F0EC40F002F47D0FF2F25D0002380259A469946F600ED042E4395
:4024C0007F3F434642465D02D20F5B006D0A1B0E904640D0FF2B39D080220020ED00D20415437F3BFB1842465746591C62408C4607430F2F5CD86F49BF00C9598F46002EA9
:4025000045D108239A46063B9946DAE7424602282DD0032800D1C3E0012800D0A2E0002500260240D4B27602ED05760A2E43E407264330001CBC90469946A246F0BD002E8E
:402540001AD104239A46033B9946BAE72A00511E8A41901CC6E70120002DC3D0280000F0DBFA431F76309D4043420020BAE70124FF2514400026D6E7300000F0CDFA431F2C
:402580009E400023763047429A46994699E70C239A46093B994694E780260024F603FF25C1E735004846B2E7350022004846AEE72904090C0800370C3604360C2C0C79439D
:4025C000704367437443060C64183619B14203D980214902884647440004000C310409188D01681E8541890E2943350CED19AD010D43290104D5012369081D4063460D4360
:4026000019007F31002925DD680704D00F202840042800D00435280103D5274980330D401900FE29A3DC0124AD016E0A1440CDB279E78020C003064207D0054205D12843DF
:402640004602760A4446FF256DE706437602760AFF2568E70124611A1B2905DD14400025002660E76346CBE72E002023CE40591A8D406B1E9D412E43730704D00F2333404B
:40268000042B00D00436730104D5012401251440002648E70124B601760A1440002542E780260124F6032E437602760A1440FF2539E7C046782F0000FFFFFFF7F8B54A0243
:4026C0004E0043024400240EC50F9B09360EC90F9209FF2E00D183E001204140A01BA9425CD0002800DC95E0002E1CD1002A00D081E05A0704D00F221A40042A00D00433E9
:402700005A013BD50134FF2C00D191E001209B015B0AE4B205405B02E4055B0AED0723432B431800F8BDFF2CE3D08021C9040A431B2800DD90E016002021C640081A8240E5
:40274000511E8A4132439B1A5A0115D59B019E09300000F0E1F90538864084426CDC041B330020200134E340041BA640721E964100243343BDE70D005A07BCD1DF080123C8
:402780001D40FF2C33D1002F00D190E08022D20313003B435B025B0AFF24BCE700284FDD002E2ED0FF2CA4D08025ED042A431B2800DD97E016002025C640281A8240501E01
:4027C000824132439B185A01D5D50134FF2C6DD001227B481A405B08034013430D0088E7002A00D07AE777E7031EC5D100257B025B0AE4B28FE701380028A4D0FF2C97D1A9
:4028000077E7002A00D174E701380028DAD0FF2CCDD16EE7002821D1601CC0B2012858DD80279E1AFF0437402FD0D61A0D008FE701231D4000236EE7624B241A334058E774
:40284000002851D1601CC6B2012E33DDFF282DD09B185B0804004CE7012274E7002C1AD0FF2E1FD08024E404404223431B2800DD96E01D002024C540201A8340581E834113
:402880002B43D31A34000D005EE7002E00D05FE700250024ABE7002B44D0C0430028F0D0FF2EE3D11300FF240D0022E70D00FF24002330E7002C5DD1002B7DD0002A00D18A
:4028C00017E79B185A0100D456E73E4A040013400FE7002C1ED1002B2FD1002A65D013000D0006E701226DE7002C1FD1002B59D0C04300280BD0FF2E4FD01B285EDC1D0061
:402900002024C540201A8340581E83412B439B18340058E7002B1CD1002A49D013000D00FF24E6E6130034000D00E2E6FF2E34D08024E40440422343DFE7002A00D1D8E6D9
:402940008027981AFF04074000D14DE7D31A0D00CFE6FF24002A00D1CBE68020DB08C003034204D0D208024201D113000D00DB00FF24BEE6002B10D0FF24002A00D1B8E659
:402980008020DB08C003034203D0D208024200D11300DB000D00FF24ABE61300FF24A8E601236EE713003400A3E6002700251EE780270025FF03E9E613009AE60123A6E7DC
:4029C000FFFFFF7DFFFFFFFB4302590A4300C20F1B0E00207E2B0EDD9D2B0DDC802000040143952B0BDC9620C31AD9400B005842002A00D118007047034BD018FBE7963B88
:402A000099400B00F3E7C046FFFFFF7F70B5002830D0C317C5185D40C40F280000F07CF89E231B1A962B0DDC9622D21A95406A02520AD8B25202C005520AE40702432243E1
:402A4000100070BD992B19DC9922D21A9540124A2A40690704D00F210D40042D00D00432510103D50C4B1A409F231B1A9201520AD8B2DFE7002400200022DBE705222E0098
:402A8000121AB921D6402A00C91A8A40551EAA4135001543DBE7C046FFFFFFFB70B5041E28D000F039F89E231B1A962B0ADC9622D21A94406202520AD8B25202520AC00544
:402AC000104370BD992B18DC9922D21A9440114A2240610704D00F210C40042C00D00432510103D50B4B1A409F231B1A9201520AD8B2E2E700200022DFE705222500121AE5
:402B0000B921D5402200C91A8A40541EA2412C001443DCE7FFFFFFFB1C2101231B04984201D3000C10391B0A984201D3000A08391B09984201D30009043902A2105C401823
:402B40007047C04604030202010101010000000000000000014B18687047C046400100200E4B70B500251E000D4CE41AA410A54204D0AB00F35898470135F8E700F01EFA26
:402B8000084B00251E00084CE41AA410A54204D0AB00F35898470135F8E770BDC82F0000C82F0000C82F0000D02F000003008218934202D019700133FAE77047000000002A
:402BC00000300F40000400400F4000048067816F01100304040205070601070809010B120D060F11151F1B401C011E121FA021182204230327802A082B203010311F320444
:402C0000338034033520360837403E103F014040410249FF4AFF4BFF4DA04F01501852875407580459045A045B045F016040628064406540668068406A806C406D206E805B
:402C4000805582AA8C0F8EF0915593AA94969596966997699D339FCCA033A10FA2CCA3F0A4FFAEFFB0FFB5FFB902BE01BF01C040C106C9FFCAFFCBFFCDAFCE07CF01D018EC
:402C8000D40FD804D904DA04DB04DF01E040E280E440E540E680E840EA80EC40ED20EE80010805420A020E101312178A1804194A1A1A1B801C401D022008210422902352F4
:402CC0002602270828282B402F8031803218350A368039943A01404445024E04581059045A805E065F60610862106604670469946B01738084018C20C094C221C4BACA87F9
:402D0000CCDECE0FD085D220D6FED866E0420308060C0B060C021304140419081E032F0B30013208330834023501360437063E503F0440404106453C4625474E483F49FF39
:402D40004AFF4BFF4DAF4E074F0150185280580459045A045B045F016040628064406540668068406A806C406D206E8080028340850E8601871089028B248E048F01910CB6
:402D800093229C04A130A202A306AD20AF08B004B140B202B33EB401B701BE05C031C105C552C6C0C70EC81FC9FFCAFFCBFFCDA0CF01D018D80AD904DA04DF01E040E28013
:402DC000E440E540E680E840EA50EBA8EC40ED20EE50EFA8008802800440062007200A020E200F011080180819041A801C401E26228924102580262027022B412C01330175
:402E00003620370239943B023C023D20401041404502484049084A024B024E044F055080514852105625574164106508740179088004911C92089684970498019B019C1018
:402E40009D049E159F20A004A112A202A588A609A740A910B408C0ADC2A1C408CA19CCA1CEAFD08AD228DE02E401E84102020380050207010E086E0887018D02C0F0C28036
:402E8000DA80E040AA02B780E88051105C025F808510D404D60580029C02AB800101100102000F4068300F4037310F4063320F404C330F400C400F4003410F4006420F40A3
:402EC00003430F4002600F40030405060708090A0B0C0E0F101112131415161718191B1C1D1E1F2021222325262728292A2B2E2F3031323334350000522200007621000091
:402F0000342200000C2200003422000000220000342200000C2200007621000076210000002200000C220000B8220000B8220000B82200003A22000076210000762100007B
:402F4000202200000A2200002022000000220000202200000A2200007621000076210000002200000A220000B8220000B8220000B8220000C4220000B02500000E25000019
:402F80000E2500000C250000A2250000A2250000982500000C250000A225000098250000A22500000C250000A8250000A8250000A82500003226000043000000F8B5C04600
:402FC000F8BC08BC9E467047590200000D0C0000F8B5C046F8BC08BC9E46704731020000F02F0000C000002088000000A00100000000000001000000050000000100000022
:403000000000C05D80BB000030000000006CDC020000000000000000000000000000000000000000000000000000000000000000B82F0000000000000000000000000000D7
:40304000000000000000000000000000000000000000000000000000000000000000000000000000000000000000000000000000E000002000000000000000000000000050
:403080000000000000000000000000000000000000000000000000000000000000000000000000000000000000000000000000000000000000000000000000000000000010
:4030C00000000000000000000000000000000000000000000000000000000000000000000000000000000000000000000000000000000000000000000000000000000000D0
:40310000000000000000000000000000000000000000000000000000000000000000000000000000000000000000000000000000000000000000000000000000000000008F
:40314000000000000000000000000000000000000000000000000000000000000000000000000000000000000000000000000000000000000000000000000000000000004F
:0200000490303A
:02000000ACEA68
:0200000490402A
:200000000000000000000000000000000000000000000000000000000000000000000000E0
:0200000490501A
:0C000000000204FB11931101050ABE7DF3
:0200000490600A
:0100000001FE
:00000001FF